:04000000CFEF19F035
:1000080000C017F001C016F002C015F0E1CF18F0DB
:10001800E2CF19F09DA011D09EA00FD09D809E9098
:1000280000018951040A04E1896B010E886F01D02F
:10003800892BB50ECE6EB30ECF6E9DAA8FD09EAA19
:100048008DD000019E9AAECF02F08751000AD8B435
:1000580085D08751050A46E1080EE16E020EE26E70
:100068009C51E126D8B0E22A010EE66EE00E021499
:10007800016E0150000A0BE1876B180EE16E020E4B
:10008800E26E9C51E126D8B0E22A030EE66EE00E3D
:100098000214016E0150200A01E1876BE00E021480
:1000A800016E0150400A0CE1040E876F180EE16ED4
:1000B800020EE26E9C51E126D8B0E22A010EE66EED
:1000C800E00E0214016E0150600A0BE1876B180EF6
:1000D800E16E020EE26E9C51E126D8B0E22A020ED1
:1000E800E66E3CD02DD0B10EE16E000EE26E9C5152
:1000F800E126D8B0E22A02C0E6FF2FD0670EE16EF3
:10010800010EE26E9C51E126D8B0E22A02C0E6FF59
:1001180024D09E0EE16E000EE26E9C51E126D8B00E
:10012800E22A02C0E6FF19D0C10EE16E000EE26EAF
:100138009C51E126D8B0E22A02C0E6FF0ED00DD0CD
:100148008751040AD0E08751030AD8E08751020A90
:10015800E0E08751010AE8E0F2D7870717C000F00E
:1001680016C001F015C002F018C0E1FF19C0E2FF87
:02017800110074
:10017A00A5C2C9FFC7B002D00000FCD7C9CF00F0A2
:02018A00120061
:10018C00F250026EF29E0500FF6A0150FE6E0050A6
:08019C00FD6E02BEF28E12009E
:1001A4008090400E0201A211006E79C1E1FF7AC174
:1001B400E2FF00C0E6FF77C100F078C101F0E4DFA0
:1001C40079C1E1FF7AC1E2FFA3C2E6FF77C100F083
:1001D40078C101F0D9DF79C1E1FF7AC1E2FFA4C29D
:1001E400E6FF77C100F078C101F0CEDF8080120015
:1001F400020E0201A26F9FC2A3F2A0C2A4F2D0DF3A
:10020400809079C1E1FF7AC1E2FF7A0EE66E77C190
:1002140000F078C101F0B8DF79C1E1FF7AC1E2FFF3
:10022400A1C2E6FF77C100F078C101F0ADDF8080A4
:020234001200B6
:10023600809079C1E1FF7AC1E2FF9FC2E6FF77C1F4
:1002460000F078C101F09FDF79C1E1FF7AC1E2FFDA
:10025600E66A77C100F078C101F095DF8080120070
:100266008090800E02019F11006E79C1E1FF7AC174
:10027600E2FF00C0E6FF77C100F078C101F083DF3E
:1002860079C1E1FF7AC1E2FFA0C2E6FF77C100F0C3
:0A02960078C101F078DF80801200CB
:1002A0008090A00E02019F11006E79C1E1FF7AC11A
:1002B000E2FF00C0E6FF77C100F078C101F066DF21
:1002C00079C1E1FF7AC1E2FFA0C2E6FF77C100F089
:0A02D00078C101F05BDF80801200AE
:1002DA000201A26B9FC2A3F2A0C2A4F25EDF8090C9
:1002EA0079C1E1FF7AC1E2FF3A0EE66E77C100F00A
:1002FA0078C101F046DF79C1E1FF7AC1E2FFE66A1F
:0E030A0077C100F078C101F03CDF8080120066
:10031800809079C1E1FF7AC1E2FF7A0EE66E77C17B
:1003280000F078C101F02EDF79C1E1FF7AC1E2FF68
:100338009FC2E6FF77C100F078C101F023DF80801B
:020348001200A1
:10034A0002019E6B010E935F000E945B97530DE0C2
:10035A009451190802E19351AD0807E29E2BAD0EA4
:10036A00935D9C6F190E94599D6F9E5305E0AD0ED7
:10037A00986F190E996F04D093C298F294C299F2A9
:10038A009251991902E1985191190DE191C29FF286
:10039A0092C2A0F29DDF00C0A1F295C29FF296C25E
:1003AA00A0F223DF36D0100E0201A26F91C2A3F28F
:1003BA0092C2A4F2F2DE120E0201A26F9E5305E06F
:1003CA00AD0E9A6F190E9B6F04D093C29AF294C223
:1003DA009BF29AC2A3F29BC2A4F2DFDE140E0201C0
:1003EA00A26F95C2A3F296C2A4F2D7DE1F0E020133
:1003FA009F6F100EA06F4FDF1F0E02019F6F200E1E
:10040A00A06F2CDF1F0E02019F6F10DF00AA01D020
:10041A00F9D702019E531AE09151935D006E9251F1
:10042A009459016E9C51005E9D51015A004A012A5D
:10043A000050952701509623010E9C5D936F000E84
:0E044A009D59946F916B926B9E6B8FD7120031
:1004580091C29FF292C2A0F293C2A1F2C7DE94C2E7
:060468009FF256DF1200B6
:10046E00086A080E0C6E003408360450085ED8B0C8
:0E047E0002D00826D89000360C2EF5D71200BA
:10048C00AE0E02019F6F190EA06FA16BADDEAE0E0A
:10049C0002019125006E190E9221016E00C091F29D
:1004AC0001C092F2060EA26F00C0A3F201C0A4F22A
:1004BC0073DE1F0E02019F6F800EA06FCEDE1F0E2B
:1004CC0002019F6F800EA06FE5DE02012951050A23
:1004DC0004E02951070A01E005D01C0E9F6F0A0E9B
:1004EC00A06FD8DE1F0E02019F6F080EA06FB5DE45
:1004FC0002012951050A04E02951070A01E07FD0C5
:10050C00966B976B1C0E9F6F90DE0A0E00160052B6
:10051C000AE10201964B972B030E975D02E1E80E60
:10052C00965D01E2EFD702011C0E9F6F7EDE00B2DA
:10053C0008D0030E0201975D02E1E80E965D01E220
:10054C005DD002011F0E9F6F080EA06FA3DE040E7C
:10055C00020191259F6F000E9221A06FB8DE00C0A2
:10056C0095F20201936B100E935D48E21C0E9F6F87
:10057C005CDE00A23FD0020195AB3CD01F0E9F6FFA
:10058C00800EA06F6ADE1F0E02019F6F800EA06F9F
:10059C0081DE1C0E02019F6F0A0EA06F7BDE1F0E08
:1005AC0002019F6F080EA06F58DE0201966B976BCD
:1005BC001C0E9F6F3ADE0A0E001600520AE1020171
:1005CC00964B972B030E975D02E1E80E965D01E2C8
:1005DC00EFD702011F0E9F6F080EA06F5BDE040E9B
:1005EC00020191259F6F000E9221A06F70DE00C05A
:1005FC0095F201D003D00201932BB5D707D002019D
:10060C001F0E9F6F12DE00A601D0F9D71D0E02013E
:10061C009F6F0BDE060E0016005203E00201946B76
:0E062C0003D00201010E946F94C200F0120080
:10063A00020E0201A26F91C2A3F292C2A4F2ADDD30
:10064A00809079C1E1FF7AC1E2FF7A0EE66E77C146
:10065A0000F078C101F095DD02019551961117E07D
:10066A0079C1E1FF7AC1E2FF93C2E9FF94C2EAFFCE
:10067A00EECFE6FF77C100F078C101F082DD02011A
:10068A00934B942B010E955F000E965BE5D7808005
:02069A0012004C
:10069C0093C204F094C205F091C202F092C203F02E
:1006AC0095C200F096C201F0010E0201955F000E9A
:1006BC00965B005001100FE004C0E9FF05C0EAFF93
:1006CC0002C0E1FF03C0E2FFEECFE6FF024A032ABD
:1006DC00044A052AE5D791C200F092C201F012003B
:1006EC00020193519125956F94519221966F010EB1
:1006FC00955F000E965B100EA26F91C2A3F292C290
:10070C00A4F24ADD120E0201A26F95C2A3F296C2A8
:10071C00A4F242DD1F0E02019F6F300EA06F9DDD13
:10072C001F0E02019F6F81DD00AA01D0F9D71200C4
:10073C00809079C1E1FF7AC1E2FF7A0EE66E77C153
:10074C0000F078C101F01CDD79C1E1FF7AC1E2FF54
:10075C0092C2E6FF77C100F078C101F011DD79C1DA
:10076C00E1FF7AC1E2FF91C2E6FF77C100F078C1E8
:08077C0001F006DD808012008F
:10078400809079C1E1FF7AC1E2FF7A0EE66E77C10B
:1007940000F078C101F0F8DC93C200F094C201F0DB
:1007A400010E0201935F000E945B0050011013E0F0
:1007B40079C1E1FF7AC1E2FF91C2E9FF92C2EAFF87
:1007C400EECFE6FF77C100F078C101F0DDDC020175
:0A07D400914B922BE1D780801200B8
:0E07DE000000000000000000000000001200FB
:1007EC002D0E0C6EA30E0D6E0D2EFED70C2EFCD7FF
:0407FC0000001200E7
:0E080000670E0D6E0D2EFED7000000001200D8
:10080E00AF0E0201916F190E926F83C293F284C2E2
:10081E0094F2060E956F000E966F08DFC90E916F5B
:10082E00010E926F060E936F000E946FA4DF000EF2
:10083E00916F080E926F7BDF1C0E02018B258E6F5F
:10084E00000E8C218F6F000E916F450E926F6FDF31
:10085E008EC291F28FC292F26ADF2AC291F22BC23D
:10086E0092F265DF02012A4B2B2B916B926B5FDFAD
:10087E00110E0201916F800E926F59DF0201916B82
:10088E00926B55DFAD0E0201916F010E926F040E49
:10089E00936F000E946F6FDF85C291F286C292F253
:1008AE00040E936F000E946F66DF080E8B258E6F0D
:1008BE00000E8C218F6F87C291F288C292F237DFC1
:1008CE0089C291F28AC292F232DF8EC291F28FC247
:1008DE0092F22DDF0201916B926B29DFBD0E0201A8
:1008EE00916F190E926F140E936F000E946FF7DEC8
:1008FE00160E02019F6F98DC00C090F2170E0201D7
:10090E009F6F92DC00C093F2C70E0201916F190E19
:10091E00926F90C294F299DD010E02018E158D6FC9
:10092E00D90E8B259F6F190E8C21A06FA16B5BDCEE
:10093E00C90E0201916F190E926FD10E936F190E9F
:10094E00946FD90E8B25956F190E8C21966F8D5144
:10095E009527000E9623976BF1DCD90E8B25916FA0
:10096E00190E8C21926F8D519127000E9223080E35
:10097E009127000E9223936B110E946F66DD8FC23A
:10098E009FF2C3DC8EC29FF2C0DCD10E0201916FCA
:10099E00190E926F0C0E8E25936F000E8F21946F91
:1009AE008D519327000E94239ADE160E02019F6F2F
:1009BE003BDC00C090F2170E02019F6F35DC00C0C9
:1009CE0093F2D70E0201916F190E926F90C294F2AC
:1009DE003CDD2A0E02018B25916F000E8C21926F49
:0409EE004EDD1200C8
:1009F200809079C1E1FF7AC1E2FF7A0EE66E77C19B
:100A020000F078C101F0C6EC00F086C200F087C2A7
:100A120001F0010E0201865F000E875B005001109B
:100A22001CE079C1E1FF7AC1E2FF83C2F6FF84C212
:100A3200F7FF85C2F8FF0900F5CF00F000C0E6FF1E
:100A420077C100F078C101F0C6EC00F0010E02019E
:0E0A52008327000E84238523D8D780801200CE
:100A6000050E0C6E090E0D6E0D2EFED70C2EFCD74A
:020A7000120072
:100A720083C291F284C292F2AD0E0201936F010E13
:100A8200946F040E956F000E966F07DE856B85518D
:100A9200030821E385518325026E000E8421036E33
:100AA20002C0E9FF03C0EAFFEECF01F0830EE96E58
:100AB200010EEA6E8551E926D8B0EA2AFF0EEE1839
:100AC200006E0150001202C0E1FF03C0E2FF00C04D
:080AD200E6FF852BDCD71200C2
:100ADA000201866B030E865D0AE286518425E16E69
:100AEA00000E8521E26E200EE66E862BF3D7865124
:100AFA008425E16E000E8521E26EE66A860786513C
:100B0A008425876F000E8521886F0A0E046E83C2C2
:100B1A0000F0A8DC08C000F0300E002687C2E1FF12
:100B2A0088C2E2FF00C0E6FF0A0E046E83C200F02C
:100B3A0099DC00C083F20050000A01E102D0860766
:040B4A00DED71200E0
:100B4E0083C2E9FF84C2EAFFEE50000A13E0D10E21
:100B5E00E16E000EE26E02010751E126D8B0E22AE4
:100B6E0083C2E9FF84C2EAFFEECFE6FF072B834B79
:060B7E00842BE6D71200F3
:100B840087C201F088C202F0010E0201875F000EE5
:100B9400885B000E021802E1000E01181FE083C2F8
:100BA400E9FF84C2EAFF85C2D9FF86C2DAFFEE50AC
:100BB400DE180FE083C2E9FF84C2EAFF85C2D9FFD1
:100BC40086C2DAFFDE50EE5C006E016A000E015A46
:100BD40007D0834B842B854B862BD2D7006A016ABE
:020BE4001200FD
:100BE600809079C1E1FF7AC1E2FF3A0EE66E77C1E5
:100BF60000F078C101F0C6EC00F079C1E1FF7AC1DE
:100C0600E2FFE66A77C100F078C101F0C6EC00F0B9
:040C160080801200C8
:100C1A0002018651FF0A02E1FF0E851907E0A26B65
:100C2A0085C2A3F286C2A4F2D2EC00F0809079C108
:100C3A00E1FF7AC1E2FF3A0EE66E77C100F078C1B1
:100C4A0001F0C6EC00F087C200F088C201F0010E84
:100C5A000201875F000E885B0050011015E079C120
:100C6A00E1FF7AC1E2FFE66A77C100F078C101F0DC
:100C7A00C6EC00F083C2E1FF84C2E2FF00C0E6FFD7
:0C0C8A000201834B842BDFD78080120016
:100C960002017B6BC80E7B5D04E2DFDEDEDE7B2BB2
:040CA600F9D7120068
:100CAA0002017F6B076B7F6B100E7F5DD8B073D12B
:100CBA00080EE96E020EEA6E7F51E926D8B0EA2ADA
:100CCA00EE50010AD8A465D17B0E836F000E846FA3
:100CDA0039DF7FC283F27B0E846F020E856FF8DEE6
:100CEA007B0E836F020E846F2DDF180E806F020E4B
:100CFA00816F7F518027D8B0812B19D0720E836FF4
:100D0A00000E846F1FDF30D0680E836F000E846F71
:100D1A0019DF2AD05B0E836F000E846F13DF24D095
:100D2A00390E836F000E846F0DDF1ED01DD080C276
:100D3A00E9FF81C2EAFFEE50000AE0E080C2E9FF63
:100D4A0081C2EAFFEE50010ADFE080C2E9FF81C2F8
:100D5A00EAFFEE50020ADEE080C2E9FF81C2EAFF42
:100D6A00EE50030ADDE0E2D7180EE96E020EEA6ED3
:100D7A007F51E926D8B0EA2AEE50010AD8A409D14F
:100D8A00300E1A6E9E0EE96E000EEA6E7F51E9264B
:100D9A00D8B0EA2AEECF02F002C0AFF002C000F0EB
:100DAA000032009E0032009E0032009E0032009EF9
:100DBA00300E002600C0AEF00F0E02140001B06F14
:100DCA00300EB027D10EE16E000EE26E020107511D
:100DDA00E126D8B0E22A00C0E6FF072BD10EE16E69
:100DEA00000EE26E0751E126D8B0E22AB0C0E6FF53
:100DFA00072BD10EE16E000EE26E0751E126D8B044
:100E0A00E22A3A0EE66E072B670EE96E010EEA6ECB
:100E1A007F51E926D8B0EA2AEECF02F002C0AFF03D
:100E2A0002C000F00032009E0032009E0032009E96
:100E3A000032009E1A50002600C0AEF00F0E0214B7
:100E4A000001B06F1A50B027D10EE16E000EE26EAB
:100E5A0002010751E126D8B0E22A00C0E6FF072BBB
:100E6A00D10EE16E000EE26E0751E126D8B0E22AF9
:100E7A00B0C0E6FF072BD10EE16E000EE26E0751FD
:100E8A00E126D8B0E22A3A0EE66E072BB10EE96ED9
:100E9A00000EEA6E7F51E926D8B0EA2AEECF02F0B8
:100EAA0002C0AFF002C000F00032009E0032009E85
:100EBA000032009E0032009E1A50002600C0AEF09A
:100ECA000F0E02140001B06F1A50B027D10EE16E56
:100EDA00000EE26E02010751E126D8B0E22A00C0F4
:100EEA00E6FF072BD10EE16E000EE26E0751E126F6
:100EFA00D8B0E22AB0C0E6FF072BD10EE16E000E91
:100F0A00E26E0751E126D8B0E22A200EE66E072BE0
:100F1A00C10EE96E000EEA6E7F51E926D8B0EA2AC0
:100F2A00EECF00F000C0AFF04B0E0001AE6F0F0E17
:100F3A000014B06F1A50B027D10EE16E000EE26EA7
:100F4A0002010751E126D8B0E22A4B0EE66E072BC2
:100F5A00D10EE16E000EE26E0751E126D8B0E22A08
:100F6A00B0C0E6FF072BD10EE16E000EE26E07510C
:100F7A00E126D8B0E22A0A0EE66E072BD10EE16E00
:100F8A00000EE26E0751E126D8B0E22A0A0EE66E9A
:100F9A00072B7F2B89D6D10EE16E000EE26E075128
:0C0FAA00E126D8B0E22AE66A072B12000C
:100FB600830E0201916F010E926F7BC293F27CC287
:100FC60094F2040E956F000E966F4EEC03F07F0EB2
:100FD600916F010E926F7DC293F27EC294F2040E5F
:100FE600956F000E966F4EEC03F0A90E916F010EF1
:100FF600926F7FC293F280C294F2040E956F000E38
:10100600966F4EEC03F0A50E836F010E846F2EDDF6
:021016001200C6
:101018008090400E02017B11006E79C1E1FF7AC118
:10102800E2FF00C0E6FF77C100F078C101F0C6EC2E
:1010380000F079C1E1FF7AC1E2FF7CC2E6FF77C127
:0E10480000F078C101F0C6EC00F080801200CC
:1010560002017D6B3C0E0101C16F000EC26FC36FB2
:10106600C46FBEDD00C07BF20050020AD8A419D1BD
:1010760002017C6B0F0E7C5D04E2B2DD02017C2B6B
:10108600F9D7BD0E836F010E846FFF0E856FFF0EBD
:10109600866F040E876F000E886FBCDD7C6B080EB2
:1010A6007C5D04E29DDD02017C2BF9D77C6B060E8C
:1010B6007C5D12E295DD00C07BF2C90ED96E010E91
:1010C600DA6E02017C51D926D8B0DA2A0050DE1831
:1010D60001E011D17C2BEBD77C6BCE0E7C5D04E25C
:1010E6007FDD02017C2BF9D77E6B7ADD00C07BF2B7
:1010F600B9D076DD00C07BF20050010A04E170DD54
:1011060000C07DF201D0F7D0C8D06ADD00C07BF206
:101116000050040A0FE1C50E0201836F010E846FB1
:10112600FF0E856FFF0E866F040E876F000E886FA9
:1011360071DD01D0E0D0B1D053DD00C07BF2040EEA
:10114600005C0FE3B90E0201836F010E846FFF0E80
:10115600856FFF0E866F040E876F000E886F5ADD4F
:1011660001D0C9D00201040E7B5F02017BC200F0F0
:101176007B07005202E034DDF8D78FD031DD00C0A6
:101186007BF2040E005C0FE3B50E0201836F010EC5
:10119600846FFF0E856FFF0E866F040E876F000E3D
:1011A600886F38DD01D0A7D00201040E7B5F0201F3
:1011B6007BC200F07B07005202E012DDF8D76DD04B
:1011C6000FDD00C07BF20050040A0FE17F0E020122
:1011D600836F020E846FFF0E856FFF0E866F040EFF
:1011E600876F000E886F16DD01D085D056D00201BC
:1011F600010E7E6F52D0F4DC00C07BF20050040A70
:1012060023E1C10E0201836F010E846FFF0E856F0D
:10121600FF0E866F040E876F000E886FFBDC0101E0
:10122600C451000808E1C351000805E1C25107088E
:1012360002E1C151080807E2080EC15F070EC25B52
:10124600000EC35BC45B01D056D027D0C9DC00C0FA
:101256007BF27BC200F002017B07005202E0C0DC99
:10126600F8D71BD002017B51350AD8B442D77B513F
:10127600010AD8B44AD77B51030AD8B45DD77B514B
:10128600060AD8B47BD77B51360A9AE07B51FF0A0F
:10129600AEE07B51330AAFE0D9D702017E53D8B412
:1012A60024D702017D51020A0FE1B10E916F010EA2
:1012B600926F7F0E936F020E946F040E956F000E61
:1012C600966F4EEC03F014D0B10E836F010E846F4F
:1012D6007F0E856F020E866F040E876F000E886F75
:1012E6004EDC000E011802E1000E001801E07D6BD5
:0A12F6007DC200F001D0006A120072
:1013000002017E6B7F6B7BC2F6FF7CC2F7FF7DC262
:10131000F8FF0900F5CF00F0005214E07BC2F6FFA1
:101320007CC2F7FF7DC2F8FF0900F5CF9FF28CEC7D
:1013300001F0010E02017B27000E7C237D237E4BF2
:0E1340007F2BE1D77EC200F07FC201F01200C9
:10134E0002017D6B7E6B7BC2E9FF7CC2EAFFEE522F
:10135E000EE07BC2E9FF7CC2EAFFEECF9FF28CEC7F
:10136E0001F002017B4B7C2B7D4B7E2BECD77DC29B
:08137E0000F07EC201F0120034
:1013860002017BBF02D0819E01D0818E7BBD02D03F
:10139600819C01D0818C7BBB02D0819A01D0818A4D
:1013A6007BB902D0819801D081880101D3B102D0E6
:1013B600828001D082908284EFEC03F08294020155
:1013C6007BB702D0819E01D0818E7BB502D0819CF5
:1013D60001D0818C7BB302D0819A01D0818A7BB106
:1013E60002D0819801D081880101D3B102D08280D8
:1013F60001D082908284EFEC03F08294D3A103D0D3
:0C140600F6EC03F002D000EC04F0120041
:10141200F90E02017E6F000E7F6F020EA26FD90ECF
:10142200A36F190EA46FD2EC00F0DE0E0201836FDF
:10143200340E846F000E856F0C0E866F000E876F60
:10144200F9EC04F07B51030A0DE17C530BE0BD0E75
:10145200916F010E926F040E936F000E946FC2ECA7
:1014620003F00AD07D6B040E7D5D06E29F6B8CEC6F
:1014720001F002017D2BF7D77D6B0C0E7D5D06E23C
:101482009F6B8CEC01F002017D2BF7D7C90E916F97
:10149200010E926F060E936F000E946FC2EC03F072
:1014A2007D6BCA0E7D5D06E29F6B8CEC01F0020142
:1014B2007D2BF7D7F60E836F340E846F000E856F87
:1014C200060E866F000E876FF9EC04F07BC29FF266
:1014D2008CEC01F002017B51030A1AE17C5318E102
:1014E200360E9F6F8CEC01F0040E02019F6F8CECA4
:1014F20001F0B10E0201916F010E926F040E936F13
:10150200000E946FC2EC03F0060E7E27000E7F23BE
:10151200FC0E836F340E846F000E856F050E866F8E
:10152200000E876FF9EC04F07B51030A23E17C5330
:1015320021E1320E9F6F8CEC01F0040E02019F6FCD
:101542008CEC01F002017D6B040E7D5D0FE2BD0E9D
:10155200E96E010EEA6E7D51E926D8B0EA2AEECF95
:101562009FF28CEC01F002017D2BEED7060E7E2756
:10157200000E7F23FF0E9F6F8CEC01F0460E0201DE
:10158200836F000E846F460E856F000E866F440EC9
:10159200876F000E886F430E896F000E8A6F7EC2BE
:0C15A2008BF27FC28CF207EC04F0120008
:1015AE007BC202F07CC203F07EC200F07FC201F06B
:1015BE00010E02017E5F000E7F5B0050011009E0FC
:1015CE0002C0E1FF03C0E2FF7DC2E6FF024A032A2A
:0C15DE00EBD77BC200F07CC201F01200D1
:1015EA0002019F6B1BEC01F000C070F2010E0201B8
:1015FA009F6F1BEC01F000C071F20201A26B6BC27B
:10160A00A3F26CC2A4F2D2EC00F0809079C1E1FF9F
:10161A007AC1E2FF3A0EE66E77C100F078C101F0B6
:10162A00C6EC00F002016F5318E079C1E1FF7AC1FC
:10163A00E2FFE66A77C100F078C101F0C6EC00F07B
:10164A006DC2D9FF6EC2DAFF0050DE1801E005D084
:10165A0002016D4B6E2B6F07E5D702018080A26BEA
:10166A0070C2A3F271C2A4F2D2EC00F06FC200F011
:02167A0012005C
:10167C001F0E02019F6F010EA06F50EC01F01F0EA8
:10168C0002019F6F020EA06F33EC01F0140E0201E9
:10169C007B6F6BC27CF2BADC4BEC06F0160E7B6FE8
:1016AC006DC27CF2B3DC4BEC06F0170E7B6F6CC298
:0A16BC007CF2ACDC4BEC06F01200EF
:1016C6001F0E02019F6F010EA06F50EC01F01F0E5E
:1016D60002019F6F020EA06F33EC01F0140E02019F
:1016E6007B6F6BC27CF295DC120E02019F6F010EBE
:1016F600A06F33EC01F04BEC06F0120E9F6F010E5B
:10170600A06F50EC01F0180E02019F6F1BEC01F068
:101716006EC2E1FF6FC2E2FF00C0E6FF190E0201D2
:101726009F6F1BEC01F06CC2E1FF6DC2E2FF00C0CF
:04173600E6FF1200B8
:10173A00B50E0201916F190E926FBB0E936F190EBF
:10174A00946FAF0E956F190E966F976BA5EC01F01B
:10175A00B50E916F190E926FC90E936F010E946FA9
:0E176A00060E956F000E966F1DEC03F0120038
:101778000201776B786B000E701902E1500E6F1939
:1017880003E0006A016A12008088756B766B000EB0
:10179800765D02E10A0E755D12E2950E7525796F88
:1017A800010E76217A6FF3EC05F079C2E1FF7AC277
:1017B800E2FF00C0E6FF0201754B762BE8D7950ED5
:1017C8007525E16E010E7621E26EE66A950E836F4D
:1017D800010E846F250E856F000E866F050E876FCC
:1017E800000E886FC2EC05F00050011003E0006A9B
:1017F800016A120001019A51730AD8A4CFD0F00EE1
:101808009B15016E0150300AD8A4C8D0F00E9C1563
:10181800016E0150300AD8A4C1D0F00E9D15016E9A
:101828000150300AD8A4BAD0F00E9E15016E0150AE
:10183800300AD8A4B3D00201756B766B000E765DC2
:1018480002E1100E755D0AE28A0E7525E16E000E42
:101858007621E26EE66A754B762BF0D7080E010109
:101868009B15016E0150080A03E1010E0001996FF2
:10187800040E01019B15016E0150040A03E1010EDB
:101888000001986F020E01019B15016E0150020ABA
:1018980003E1010E0001976F010E01019B15016E16
:1018A8000150010A03E1010E0001966F080E0101C3
:1018B8009C15016E0150080A03E1010E0001956FA5
:1018C800040E01019C15016E0150040A03E1010E8A
:1018D8000001946F020E01019C15016E0150020A6D
:1018E80003E1010E0001936F010E01019C15016EC9
:1018F8000150010A03E1010E0001926F080E010177
:101908009D15016E0150080A03E1010E0001916F57
:10191800040E01019D15016E0150040A03E1010E38
:101928000001906F020E01019D15016E0150020A1F
:1019380003E1010E00018F6F010E01019D15016E7B
:101948000150010A03E1010E00018E6F080E01012A
:101958009E15016E0150080A03E1010E00018D6F0A
:10196800040E01019E15016E0150040A03E1010EE7
:1019780000018C6F020E01019E15016E0150020AD2
:1019880003E1010E00018B6F010E01019E15016E2E
:101998000150010A03E1010E00018A6F01019A5109
:1019A800720A09E1010E0001856F9BC193F19CC188
:1019B80094F19DC1A4F1000E0201781902E1000E14
:1019C800771956E155EC06F0BF0E7B6F340E7C6F2D
:1019D800000E7D6F91DC00C077F201C078F2EA0E4C
:1019E8007B6F340E7C6F000E7D6F86DC005077278E
:1019F80001507823D10E7B6F000E7C6FA4DC005061
:101A0800772701507823756B766B000E765D02E1BF
:101A1800100E755D2DE2080E7525E16E020E762119
:101A2800E26EE66A180E7525E16E020E7621E26E08
:101A3800E66AC10E7525E16E000E7621E26EE66A51
:101A48009E0E7525E16E000E7621E26EE66A670E3F
:101A58007525E16E010E7621E26EE66AB10E7525F6
:101A6800E16E000E7621E26EE66A754B762BCDD7D5
:0A1A780077C200F078C201F01200FE
:101A8200AFD0AD0E02017B6F010E7C6F7D6B040E39
:101A92007E6F000E7F6F8ADD010E7B6F7C6BB8DC80
:101AA20056C0CFF157C0D0F158C0D1F159C0D2F1D0
:101AB200030E556EA6D0050E0101CF25016E000E54
:101AC200D021026E000ED121036E000ED221046ECF
:101AD2005950045C08E15850035C05E15750025C20
:101AE20002E15650015C02E2020E556E2BEC08F048
:101AF2000050020A03E1040E556E01D082D0030E9B
:101B020002017B6F54C07CF283DC56C0CFF157C018
:101B1200D0F158C0D1F159C0D2F1050E556E71D035
:101B22002BEC08F000C06BF20050060A03E1040E31
:101B3200556E2CD002016B51050A28E156C0CFF137
:101B420057C0D0F158C0D1F159C0D2F1060E556E2E
:101B5200AD0E916F010E926FBD0E936F010E946FD9
:101B6200040E956F000E966F4EEC03F0C50E7B6F60
:101B7200010E7C6FB90E7D6F010E7E6FB50E7F6F09
:101B8200010E806FDBEC07F0546A3BD03AD0010EB5
:101B92000101CF25016E000ED021026E000ED1216F
:101BA200036E000ED221046E0450595C08E103500A
:101BB200585C05E10250575C02E10150565C0FE3AC
:101BC2000101010EC15F000EC25BC35BC45B56C064
:101BD200CFF157C0D0F158C0D1F159C0D2F111D0D4
:101BE2005550020AD8B44DD75550030AD8B463D71A
:101BF2005550040A84E05550050A92E05550060AF1
:041C0200C6E0120026
:061C0600006A016A1200F1
:101C0C00C90E0201916F190E926FCD0E936F190EC2
:101C1C00946FCD0E956F190E966F976BA5EC01F026
:101C2C00C90E916F190E926FAD0E936F010E946FDA
:0E1C3C00040E956F000E966F1DEC03F0120063
:101C4A000101D3916BC27BF2C3EC09F0D38112007C
:101C5A000B6A0A6A096A00500402F4CF09F0F3CF4A
:101C6A0008F001500502F4CF0BF0F3CF0AF0005050
:101C7A000502F3500926F4500A22E86A0B220150A1
:101C8A000402F3500926F4500A22E86A0B2208C01B
:101C9A0000F009C001F00AC002F00BC003F0120004
:101CAA0002016C51190802E16B51AD0804E2AE0E53
:101CBA006B5F190E6C5BA26B6BC2A3F26CC2A4F2CF
:061CCA00D2EC00F0120054
:101CD000F3EC05F0F3EC05F0F3EC05F000C06CF26A
:101CE000F3EC05F000C06BF2F3EC05F000C06EF20F
:101CF000F3EC05F000C06DF2F3EC05F000C070F2FB
:101D0000F3EC05F000C06FF2F3EC05F0F3EC05F036
:101D1000F3EC05F0F3EC05F06DC200F06EC201F0DB
:101D2000010E02016D5F000E6E5B005001100EE0AF
:101D3000F3EC05F0005201E0FBD7F3EC05F0F3EC17
:101D400005F0F3EC05F0F3EC05F0E6D76FC200F018
:101D500070C201F0010E02016F5F000E705B005057
:101D6000011048E0F3EC05F0F3EC05F0F3EC05F0BE
:101D700000C074F2F3EC05F000C073F2F3EC05F070
:101D8000F3EC05F0F3EC05F0F3EC05F0F3EC05F003
:101D9000F3EC05F0F3EC05F000C072F2F3EC05F0A3
:101DA00000C071F2000E0201741902E1010E7319F4
:101DB00011E1F3EC05F000C0D4F1F3EC05F000C044
:101DC000D5F1F3EC05F000C0D6F1F3EC05F000C05E
:101DD000D7F110D071C200F072C201F0010E020101
:101DE000715F000E725B0050011003E0F3EC05F030
:061DF000F1D7ACD7120090
:101DF60010D0800E02013E6F1AD0C00E3E6F17D073
:101E0600940E3E6F14D0D40E3E6F11D0800E3E6FEE
:101E16000ED002013E51010AECE03E51020AEDE00D
:101E26003E51030AEDE03E51040AEDE0EFD73F05CF
:101E3600006E3E51002600C03EF20101D38100C073
:101E46007BF2C3EC09F0D39140C27BF2C3EC09F0FC
:041E5600D381120022
:101E5A0010D0800E02013E6F1AD0C00E3E6F17D00E
:101E6A00940E3E6F14D0D40E3E6F11D0800E3E6F8A
:101E7A000ED002013E51010AECE03E51020AEDE0A9
:101E8A003E51030AEDE03E51040AEDE0EFD73F056B
:101E9A00006E3E51002600C03EF200C07BF2C3EC49
:101EAA0009F0D3910201426B42514025E96E000EBE
:101EBA004121EA6EEE520CE042514025E96E000ED5
:101ECA004121EA6EEECF6BF2BBDE0201422BECD768
:061EDA000101D38112009A
:101EE00002017B6B3E5303E00D0E3F6F02D0050EE7
:101EF0003F6F3FC27CF20CEC08F0020E02017B6FD8
:101F00003E5303E0310E406F02D0300E406F40C2AE
:101F10007CF20CEC08F00A0E0201A26FEE0EA36F29
:101F2000050EA46FD2EC00F0040E02017B6F3E534D
:101F300003E0150E416F02D0120E416F41C27CF2D8
:101F40000CEC08F0060E02017B6F120E7C6F0CEC9D
:101F500008F002013E5306E1070E7B6F0C0E7C6F0A
:101F60000CEC08F002013E5306E1090E7B6F3F0EB8
:101F70007C6F0CEC08F01F0E02019F6F010EA06F2A
:101F800033EC01F01F0E02019F6F020EA06F33ECC5
:101F900001F0040E02017B6FC9C17CF20CEC08F069
:101FA000050E02017B6FCAC17CF20CEC08F0020E38
:101FB00002017B6FCBC17CF20CEC08F0030E020136
:101FC0007B6FCCC17CF20CEC08F002017B6BCDC1C5
:101FD0007CF20CEC08F0010E02017B6FCEC17CF2AA
:101FE0000CEC08F0150E02017B6F7C6B0CEC08F01A
:101FF000120E02019F6F1BEC01F000C029F20201DA
:102000006B6B430E6C6F020E6D6F440E6E6F020EA3
:102010006F6F63EC0BF002016B6BFE0E43156C6F80
:102020003E5303E0010E426F01D0426B42516C13EC
:1020300044C26DF23EEC0BF0100E6B6F010E6C6F34
:102040006D6B3EEC0BF01F0E9F6F040EA06F33EC18
:1020500001F04BEC06F0D80E7B6F010E7C6F7D6BB0
:102060002D0E7E6F000E7F6FD7EC0AF01F0E9F6F54
:10207000010EA06F50EC01F01F0E02019F6F020EC7
:08208000A06F50EC01F012000A
:1020880041C29FF242C2A0F26DEC01F000C04CF2D6
:10209800F3EC05F000C04BF2F3EC05F000C04AF297
:1020A800F3EC05F000C049F2000E02014A1902E102
:1020B800000E491901E186D0F3EC05F000C04EF29C
:1020C800F3EC05F000C04DF24F0E0201836F020ED3
:1020D800846FC90E856F190E866F040E876F000E08
:1020E800886F0DEC06F0020EA26F080E4125A36F53
:1020F800000E4221A46FD2EC00F00E0E02013E2524
:102108006B6F000E3F216C6F40516B27000E6C23E4
:10211800080E6B27000E6C23C4DD000E02014C195B
:1021280002E1350E4B1902E1CFDD4CD0000E020161
:102138004A1902E1440E491902E19FDC43D04F0ECF
:1021480002016B6F020E6C6F4BC26DF24CC26EF2E5
:1021580049C26FF24AC270F2080E4D5D716F000EEF
:102168004E59726F280E736F020E746F48DD00C0EF
:102178004DF201C04EF20050011024E0430E836F6F
:10218800020E846FB50E856F190E866F060E876F67
:10219800000E886F0DEC06F0430E836F020E846FFD
:1021A8004F0E856F020E866F49C287F24AC288F2C7
:1021B8004BC289F24CC28AF24DC28BF24EC28CF2EB
:0621C80007EC04F0120018
:1021CE00C40E02019F6F190EA06F6DEC01F000C0DE
:1021DE003EF2E4D0D50E02016B6F190E6C6FAD0E90
:1021EE006D6F010E6E6F040E6F6FF5EC0AF00050FE
:1021FE00000A4BE1C40E02019F6F190EA06F020E72
:10220E00A16FFAEC00F09DEC0BF0CB0E916F190E56
:10221E00926FCF0E936F190E946FD50E956F190E98
:10222E00966F976BA5EC01F0CB0E916F190E926F16
:10223E00AD0E936F010E946F040E956F000E966F98
:10224E001DEC03F0C50E916F190E926FCB0E936FAE
:10225E00190E946FCF0E956F190E966F976BA5ECA6
:10226E0001F0C50E916F190E926FC90E936F010E8C
:10227E00946F060E956F000E966F1DEC03F03C0EDC
:10228E00916F000E926F46EC02F091D00201AF0EEC
:10229E006B6F190E6C6FC90E6D6F010E6E6F060EA1
:1022AE006F6FF5EC0AF00050000A77E1CB0E0201D9
:1022BE006B6F190E6C6F05C26DF206C26EF2040ED4
:1022CE006F6FF5EC0AF00050000A67E10F0E006E1A
:1022DE00000E016E5AC004F0000E056EB7DCD80E6B
:1022EE0000240201836F010E0120846F090E8327E3
:1022FE00000E8423C50E856F190E866F060E876F2E
:10230E00000E886F0DEC06F00F0E006E000E016EC3
:10231E005AC004F0000E056E99DCD80E0024916FA1
:10232E00010E0120926F050E9127000E922305C219
:10233E0093F206C294F2040E956F000E966F4EEC59
:10234E0003F00F0E006E000E016E5AC004F0000E68
:10235E00056E7CDCD80E0024E16E010E0120E26ECB
:10236E00010EE66E0F0E006E000E016E5AC004F0E6
:10237E00000E056E6BDCD80E0026010E0122010E3A
:10238E000024E16E000E0120E26E56C0E6FF57C03B
:10239E00E6FF58C0E6FF59C0E6FF09D002013E51E4
:1023AE00010AD8B417D73E51020AD8B46FD712001B
:1023BE0042C29FF243C2A0F26DEC01F000C052F295
:1023CE00F3EC05F000C051F2F3EC05F000C050F252
:1023DE00F3EC05F000C04FF20201576B5C6B010E7F
:1023EE005D6F5A6B5B6B0C0E42259F6F000E432187
:1023FE00A06F6DEC01F000C055F2000E0201566F99
:10240E005533559F5533559F000E566FFC0E55177D
:10241E00FF0E5617660E836F020E846FC90E856F00
:10242E00190E866F040E876F000E886F0DEC06F086
:10243E000D0E42259F6F000E4321A06F6DEC01F033
:10244E003F0E00140201536F546B000E5417000E12
:10245E00546F0E0E00019A5D0201586F000E0001BE
:10246E009B590201596F4051585F4151595B55516B
:10247E00585F5651595B020E42259F6F000E432145
:10248E00A06F6DEC01F000C0A1F242C29FF243C2F8
:10249E00A0F2FAEC00F0030E020142259F6F000E2F
:1024AE004321A06F6DEC01F000C09FF28CEC01F0A7
:1024BE0051C291F252C292F29EEC03F0040E02014E
:1024CE0042259F6F000E4321A06F6DEC01F000C0FE
:1024DE0061F2F3EC05F000C060F2F3EC05F000C021
:1024EE005FF2F3EC05F000C05EF2F3EC05F000C015
:1024FE0065F2F3EC05F000C064F2F3EC05F000C0F9
:10250E0063F2F3EC05F000C062F2000E0201541902
:10251E0002E1020E53193DE1010E5E25006E000E22
:10252E005F21016E000E6021026E000E6121036EAE
:10253E0000C062F201C063F202C064F203C065F231
:10254E00120E536F000E546F0C0E9F6F1BEC01F0AA
:10255E0000C05EF20D0E02019F6F1BEC01F000C079
:10256E005FF202019F6B1BEC01F000C060F2010EE6
:10257E0002019F6F1BEC01F000C061F20201572BAC
:10258E00180E556F000E566F5A6B5B6B0001846B05
:10259E0070D0000E0201541902E1180E53192FE1EA
:1025AE005EC244F25FC245F260C246F261C247F2B9
:1025BE0062C25EF263C25FF264C260F265C261F231
:1025CE0058514425006E59514521016E000E462189
:1025DE00026E000E4721036E00C062F201C063F26C
:1025EE0002C064F203C065F2100E536F000E546FFA
:1025FE00572B140E556F000E566F5C2B3AD0000EF3
:10260E00541902E1110E531934E15EC248F25FC251
:10261E0049F260C24AF261C24BF262C25EF263C21A
:10262E005FF264C260F265C261F2010E4825006E6F
:10263E00000E4921016E000E4A21026E000E4B2142
:10264E00036E00C062F201C063F202C064F203C006
:10265E0065F2100E536F000E546F572B140E556FFC
:10266E00000E566F5A6B5B6B0001815302E1842B97
:10267E00816B02015753D8B4D4D10201040E422506
:10268E00916F000E4321926F61C293F260C294F279
:10269E002CEC02F05FC29FF28CEC01F05EC29FF256
:1026AE008CEC01F065C29FF28CEC01F064C29FF2DB
:1026BE008CEC01F063C29FF28CEC01F062C29FF2CF
:1026CE008CEC01F00C0E020142259F6F000E43218F
:1026DE00A06F6DEC01F00F0E00140201A16F55C238
:1026EE0000F000360090003600900050A1130C0E42
:1026FE0042259F6F000E4321A06FFAEC00F00D0EE5
:10270E00020142259F6F000E4321A06F6DEC01F078
:10271E00C00E00140201A16F5351A1130D0E4225DC
:10272E009F6F000E4321A06FFAEC00F0000E020125
:10273E00541902E1120E531923E10E0E4225916F28
:10274E00000E4321926F050E936FEE0E946F2CECDC
:10275E0002F0140E02014225916F000E4321926F7A
:10276E00020E936F040E946F2CEC02F0050E020114
:10277E009F6F8CEC01F0780E02019F6F8CEC01F0D4
:10278E00020140515A25586F41515B21596F5551E5
:10279E005827565159235D5304E09DEC0BF006EC7F
:1027AE000EF0BF0E916F190E926F59C293F258C26E
:1027BE0094F22CEC02F0C70E0201916F190E926F7B
:1027CE00936B946B2CEC02F0BD0E0201916F190EFF
:1027DE00926F40C293F241C294F276EC03F0160E61
:1027EE0002019F6F1BEC01F000C06AF2170E02018E
:1027FE009F6F1BEC01F000C093F2C70E0201916FA8
:10280E00190E926F6AC294F22CEC02F0BD0E020108
:10281E0058254D6F190E59214E6F100E4225916F8E
:10282E00000E4321926F936B946B2CEC02F0010E11
:10283E00020158154C6F4DC29FF24EC2A0F2A16B11
:10284E00FAEC00F0C90E0201916F190E926FD10EC3
:10285E00936F190E946F4C514D25956F000E4E21AE
:10286E00966F976BA5EC01F0080E4D25916F000E3B
:10287E004E21926F4C519127000E9223936B060EB0
:10288E00946F2CEC02F00A0E02014D25916F000E92
:10289E004E21926F4C519127000E92235A5155257D
:1028AE00036E5B515621046E04C000F0016A00C035
:1028BE0093F203C094F22CEC02F042C291F243C2A6
:1028CE0092F202015A515525936F5B515621946F26
:1028DE000C0E9327000E94234C519327000E942335
:1028EE0076EC03F0160E02019F6F1BEC01F000C098
:1028FE006AF2170E02019F6F1BEC01F000C093F2FB
:10290E00100E02014225916F000E4321926F6AC292
:10291E0094F22CEC02F00E0E02015825916F000E6F
:10292E005921926F46EC02F05C5351E0100E536F3A
:10293E00000E546F5C6B5D6B020EA26F55514225FB
:10294E00A36F56514321A46FD2EC00F00E0E02017C
:10295E003E256B6F000E3F216C6F40516B2741512E
:10296E006C2355516B2756516C2355EC0EF000011C
:10297E00842B660E02016B6F020E6C6F51C26DF2EC
:10298E0052C26EF24FC26FF250C270F20E0E0001C2
:10299E009A5D0201716F000E00019B590201726F68
:1029AE004051715F4151725B5551715F5651725B6F
:1029BE00280E736F020E746FBCEC0BF000C05AF24F
:1029CE0001C05BF228B102D00001846B56D6000123
:1029DE00845327E002015A515E25006E5B515F2140
:1029EE00016E000E6021026E000E6121036E00C0AA
:1029FE005EF201C05FF202C060F203C061F2110E1E
:102A0E00536F000E546F0001846B02015D6B140E48
:102A1E00556F000E566F5A6B5B6B010E0001816F86
:042A2E002CD6120090
:102A3200949494909398939A939C939E8294829068
:102A4200819E819C819A8198F6EC03F0F6EC03F06A
:102A5200F6EC03F0818A81888284EFEC03F08294A1
:102A6200F6EC03F08284EFEC03F08294F6EC03F0D0
:102A72008284EFEC03F08294F6EC03F08198828476
:102A8200EFEC03F08294F6EC03F08284EFEC03F0B7
:102A92008294819A818E8284EFEC03F08294F6EC28
:102AA20003F0819E81888284EFEC03F08294819806
:102AB2008284EFEC03F08294F6EC03F08284EFEC74
:102AC20003F0829481888284EFEC03F08294F6EC26
:102AD20003F081988284EFEC03F08294818E818CE2
:102AE200818A81888284EFEC03F08294F6EC03F011
:062AF2000101D381120076
:102AF8000201326B336B010E3E6F010E3F6F2B0EDE
:102B0800406F000E416F2DEC0FF00201326B336BFA
:102B1800800E006E800E3319005C02E132510F08FE
:102B280021E38A0E3225E96E000E3321EA6EEE505B
:102B3800010A0AE1020E3E6F325110083F6F310E52
:102B4800406FFBEC0EF00AD0020E02013E6F3251CC
:102B580010083F6F300E406FFBEC0EF00201324B55
:062B6800332BD6D712004A
:102B6E00FF0E01017B6FFF0E7C6FFF0E7D6FFF0E60
:102B7E007E6FFF0E876FFF0E886F000E896F000E3F
:102B8E008A6FFF0E8B6FFF0E8C6F000E8D6F000E17
:102B9E008E6FFF0E8F6FFF0E906F000E916F000EF7
:102BAE00926FAC8A900EAB6E948E949C9EAA03D0BC
:082BBE00AECF00F0FBD71200BE
:102BC6007A0E0101776F010E786FA50E796F020EEE
:102BD6007A6FFF0E02012C6FFF0E2D6FFF0E2E6F08
:102BE600FF0E2F6F949A3251040A02E1948601D0A7
:102BF60094969488C66A3251C6123451C61233511D
:102C0600C712345305E03551000A01E1C78C03D0E1
:0A2C1600355301E0C78CC68A120096
:102C200092928082929080804BEC06F080824BECF6
:102C300006F080924BEC06F080824BEC06F0809020
:102C400079C1E1FF7AC1E2FFFF0EE66E77C100F0C5
:102C500078C101F0C6EC00F080804BEC06F0C90EA4
:102C6000916F010E926F32C293F233C294F2060E4C
:102C7000956F000E966F4EEC03F0AD0E916F010E46
:102C8000926F34C293F235C294F2040E956F000E27
:102C9000966F4EEC03F01F0E9F6F010EA06F50EC6D
:102CA00001F01F0E02019F6F020EA06F50EC01F0A9
:102CB000080E0201A26FA36BA46BD2EC00F00A0E07
:102CC0000201A26FAD0EA36F190EA46FD2EC00F03B
:102CD0000C0E0201A26FAD0EA36F190EA46FD2EC01
:102CE00000F00201A26BA36BA46BD2EC00F0040E07
:102CF0000201A26FAE0EA36F190EA46FD2EC00F00A
:102D00001F0E02019F6F010EA06F50EC01F01F0E0D
:102D100002019F6F020EA06F33EC01F036C23EF24B
:062D200070EC0FF0120040
:102D260002013B6B288128931F0E9F6F010EA06F37
:102D360050EC01F01F0E02019F6F020EA06F50ECC7
:102D460001F00201A26B82C0A3F283C0A4F2D2EC0E
:102D560000F0809079C1E1FF7AC1E2FF3A0EE66E9B
:102D660077C100F078C101F0C6EC00F079C1E1FF4F
:102D76007AC1E2FFE66A77C100F078C101F0C6ECDD
:102D860000F000C082F079C1E1FF7AC1E2FFE66A95
:102D960077C100F078C101F0C6EC00F000C083F006
:102DA60079C1E1FF7AC1E2FFE66A77C100F078C136
:102DB60001F0C6EC00F000C09AF079C1E1FF7AC1DB
:102DC600E2FFE66A77C100F078C101F0C6EC00F0D8
:102DD60000C09BF079C1E1FF7AC1E2FFE66A77C1E4
:102DE60000F078C101F0C6EC00F000C039F279C1FC
:102DF600E1FF7AC1E2FFE66A77C100F078C101F02F
:102E0600C6EC00F000C03AF28080040E00019A5F22
:102E1600000E9B5B8351190802E18251AD0810E355
:102E260082B10ED002013ABF0BD000019B510508BA
:102E360002E19A51EE0804E3020139AF01D003D052
:102E4600010E006ED6D102019F6B1BEC01F000C093
:102E560037F2010E02019F6F1BEC01F000C038F241
:102E660037C291F238C292F200019A510201372517
:102E7600936F00019B5102013821946FAF0E956F3D
:102E8600190E966F010E976FA5EC01F0BB0E9F6FA2
:102E9600190EA06F6DEC01F000C03AF2F3EC05F0EC
:102EA60000C039F202013A51080A02E1060E391948
:102EB60012E1BD0E6B6F190E6C6F4C0E6D6F000E2E
:102EC6006E6F070E6F6FF5EC0AF00050000A02E114
:102ED600E7EC10F05FD102013A51080A02E1000E58
:102EE6003919D8A454D1CD0E6B6F190E6C6FA50E7F
:102EF6006D6F010E6E6F040E6F6FF5EC0AF00052E7
:102F060002E1020128830201CD0E6B6F190E6C6F70
:102F1600460E6D6F000E6E6F040E6F6FF5EC0AF0C5
:102F2600005202E1020128830201CD0E6B6F190ED9
:102F36006C6FAD0E6D6F010E6E6F040E6F6FF5EC5C
:102F46000AF0005206E0020128B303D0020E3B6FDE
:102F56001DD10201BD0E9F6F190EA06F6DEC01F021
:102F6600F00E0014016E0150400A04E0030E020147
:102F76003B6F0CD10201BD0E9F6F190EA06F6DEC59
:102F860001F000C035F2000E0201366F0F0E351744
:102F9600000E361735373591363735373591363792
:102FA600C30E9F6F190EA06F6DEC01F0BF0E0014DB
:102FB600016E0150000AD8A4E9D0C40E02019F6F29
:102FC600190EA06F6DEC01F00050000AD8A4DED0F7
:102FD600BD0E02013525336F190E3621346FC60E2C
:102FE6009F6F190EA06F6DEC01F000C032F2005019
:102FF600010AD8A48CD033C29FF234C2A0F26DEC81
:1030060001F00050080AD8A481D0010E0201332530
:103016009F6F000E3421A06F6DEC01F00050000A86
:1030260075E133C29FF234C2A0F20201A16BFAEC41
:1030360000F09DEC0BF006EC0EF0C70E916F190E2A
:10304600926F936B946B2CEC02F0BD0E0201916FA4
:10305600190E926F35C293F236C294F276EC03F0F3
:10306600160E02019F6F1BEC01F000C03CF2170E1A
:1030760002019F6F1BEC01F000C093F2C70E020124
:10308600916F190E926F3CC294F22CEC02F0020E74
:1030960002013325916F000E3421926F936B946B6E
:1030A6002CEC02F033C291F234C292F20201355195
:1030B60000019A5D0201936F365100019B5902018E
:1030C600946F0E0E935F000E945B76EC03F0160E73
:1030D60002019F6F1BEC01F000C03CF2170E0201CB
:1030E6009F6F1BEC01F000C093F2020E0201332524
:1030F600916F000E3421926F3CC294F22CEC02F0D8
:103106009AC091F29BC092F246EC02F03FD00201C7
:103116003251110A0DE137C23EF238C23FF235C2D2
:1031260040F233C241F234C242F244EC10F02ED0E7
:1031360002013251060A2AE1100E37259F6F000E52
:103146003821A06F6DEC01F000C03DF202013C6B2E
:10315600F3EC05F0005002013C2500019A6F000EC9
:1031660002013D2100019B6F0E0E9A27000E9B2344
:1031760037C23EF238C23FF235C240F236C241F2A1
:1031860033C242F234C243F2DFEC11F003D0040E34
:1031960002013B6F02011E0E9F6F400EA06F33ECC3
:1031A60001F0010E0001825D016E000E8359026E70
:1031B6000250190802E10150AD080AE20C0E0201A4
:1031C600A26FAD0EA36F190EA46FD2EC00F00FD054
:1031D6000C0E0201A26F010E0001825D0201A36FB7
:1031E600000E000183590201A46FD2EC00F03BC22D
:0431F60000F01200D3
:1031FA000900F5CFE6FF0006FBE10106F9E112003E
:10320A009E6A210E9D6EB00ECD6ECD80B50ECE6E2D
:10321A00B30ECF6E400EF26EF28E926A0F0E936E5E
:10322A00D00E946E806A816A826AC26A0F0EC16E7B
:10323A00500EAF6EAC8496DCAC8AAB8EAB8819ECC0
:10324A0015F00C0E02017B6FC3EC09F050DC020E84
:10325A00326F336B346B010E356FB0DC1F0E326F79
:10326A00000E336F1B0E346F000E356F010E366F72
:04327A00D2DC120090
:10327E000201316B1F0E9F6F010EA06F33EC01F038
:10328E001F0E02019F6F020EA06F50EC01F0190E7F
:10329E0002019F6F1BEC01F00050000803E23CDDC1
:1032AE0000C031F21F0E02019F6F010EA06F50EC95
:1032BE0001F01F0E02019F6F020EA06F50EC01F085
:0632CE0031C200F0120005
:1032D4000201076B0001876B886B856B866B896BBA
:1032E4000F0E9C6F9D6B960E9D5D0BE2D10EE16EF1
:1032F400000EE26E9D51E126D8B0E22AE66A9D2BCB
:10330400F2D79D6B100E9D5D41E28A0EE16E000EB8
:10331400E26E9D51E126D8B0E22AE66A080EE16E1B
:10332400020EE26E9D51E126D8B0E22AE66A180E3A
:10333400E16E020EE26E9D51E126D8B0E22AE66A01
:10334400C10EE16E000EE26E9D51E126D8B0E22A74
:10335400E66A9E0EE16E000EE26E9D51E126D8B043
:10336400E22AE66A670EE16E010EE26E9D51E126E5
:10337400D8B0E22AE66AB10EE16E000EE26E9D510B
:0E338400E126D8B0E22AE66A9D2BBCD71200E3
:0C33920031C2ADFFACB201D0FDD712007B
:10339E0081EC1AF00201306B31DF95DF69DF00013D
:1033AE008851010A4EE1886B9C2B9C51100A10E14A
:1033BE009C6B80888651010A03E1866B856B05D074
:1033CE008551010A02E1010E866F7CEC15F001D0E9
:1033DE00809800018651000A1EE1808A8A0EE96EED
:1033EE00000EEA6E9C51E926D8B0EA2AEE50010A88
:1033FE0005E19C51300F0201306F05D000019C5148
:10340E00200F0201306F30C231F2BCDF809A050E00
:10341E000001876F16D0808A9C51700F006E00C01D
:10342E0030F200C031F2AEDF93C131F2ABDF94C1A6
:10343E0031F2A8DFA4C131F2A5DF809A050E00019A
:06344E00876FACD7FFD729
:1035020010EE1AF06B0E006E010E016E540EF66E86
:0E351200340EF76E000EF86EFDEC18F012008D
:013454003047
:043455000A630C01F9
:063459000014A576193FE6
:06345F00474554202F0038
:0E3465004F7065726174696F6E202020200028
:0D347300204E4F204341524453200A0A00CE
:06348000FFFFFFFFFFFF4C
:0834860000010800060400002B
:01348E00003D
:01348F00003C
:043490000000000038
:013494000037
:0D3495002054494D4520534554200A0A009B
:0A34A2002056454849434C452000E0
:0934AC002049444C45200A0A00A5
:0634B50052616D703A0047
:0134BB000010
:0234BC0000000E
:0134BE00000D
:1034BF00485454502F312E3120323030204F4B0A88
:0F34CF00436F6E74656E742D747970653A2000CA
:0C34DE00010106001223344500008000AC
:0C34EA00746578742F68746D6C0A0A0019
:0634F600638253633501FF
:0534FC00370301030687
:020000040030CA
:0D00010002191EFF8180FF07C007E00740C5
:00000001FF
