:0400000089EF1AF07A
:1000080000C017F001C016F002C015F0E1CF18F0DB
:10001800E2CF19F09DA033D09EA031D09E9001016F
:100028003B51040A04E13B6B010EB26F01D03B2B3C
:10003800B651000801E2B60781A00DD0B651000AFA
:100048000AE1140EB66F010EB76F140EB15D02E32C
:10005800B16B01D0B12B81A20ED0B651000A0BE1D1
:10006800140EB66F010EB76FB151000A03E1140EFA
:10007800B16F01D0B107B50ECE6EB30ECF6E9DAA8B
:100088003DD09EAA3BD09E9AAECF02F02CD036D05F
:10009800E00E0214016E0150200A15E10F0E021441
:1000A800016E01508F190DE1A00EE16E010EE26E96
:1000B8008F51E126D8B0E22A010EE66E010EB36F29
:1000C80001D0B36B01D0B36B19D0900EE16E010E65
:1000D800E26E8F51E126D8B0E22A02C0E6FFB36B88
:1000E8000DD0B36B0BD00101B351000AD0E0B3516E
:1000F800020ACEE0B351010AE8E0F3D717C000F0D6
:1001080016C001F015C002F018C0E1FF19C0E2FFE7
:020118001100D4
:10011A0034C3C9FFC7B002D00000FCD7C9CF00F072
:02012A001200C1
:10012C00F250026EF29E0500FF6A0150FE6E005006
:08013C00FD6E02BEF28E1200FE
:100144008090400E03013111006E06C1E1FF07C12A
:10015400E2FF00C0E6FF04C100F005C101F0E4DFE6
:1001640006C1E1FF07C1E2FF32C3E6FF04C100F0AC
:1001740005C101F0D9DF06C1E1FF07C1E2FF33C3C6
:10018400E6FF04C100F005C101F0CEDF808012005B
:10019400020E0301316F2EC332F32FC333F3D0DFCA
:1001A400809006C1E1FF07C1E2FF7A0EE66E04C14A
:1001B40000F005C101F0B8DF06C1E1FF07C1E2FFAD
:1001C40030C3E6FF04C100F005C101F0ADDF80805B
:0201D400120017
:1001D600809006C1E1FF07C1E2FF2EC3E6FF04C11E
:1001E60000F005C101F09FDF06C1E1FF07C1E2FF94
:1001F600E66A04C100F005C101F095DF80801200B7
:10020600809006C1E1FF07C1E2FF7A0EE66E04C1E7
:1002160000F005C101F087DF06C1E1FF07C1E2FF7B
:100226002EC3E6FF04C100F005C101F07CDF80802B
:020236001200B4
:100238008090A00E03012E11006E06C1E1FF07C1D8
:10024800E2FF00C0E6FF04C100F005C101F06ADF6B
:1002580006C1E1FF07C1E2FF2FC3E6FF04C100F0BA
:0A02680005C101F05FDF8080120085
:100272000301316B2EC332F32FC333F362DF80905D
:1002820006C1E1FF07C1E2FF3A0EE66E04C100F0CB
:1002920005C101F04ADF06C1E1FF07C1E2FFE66ADC
:0E02A20004C100F005C101F040DF80801200B1
:1002B0008090800E03012E11006E06C1E1FF07C180
:1002C000E2FF00C0E6FF04C100F005C101F02EDF2F
:1002D00006C1E1FF07C1E2FF2FC3E6FF04C100F042
:0A02E00005C101F023DF8080120049
:1002EA00020E0301316F24C332F325C333F325DF32
:1002FA00809006C1E1FF07C1E2FF7A0EE66E04C1F3
:10030A0000F005C101F00DDF03012851291117E0A2
:10031A0006C1E1FF07C1E2FF26C3E9FF27C3EAFFDF
:10032A00EECFE6FF04C100F005C101F0FADE0301D9
:10033A00264B272B010E285F000E295BE5D780800C
:02034A0012009F
:10034C00809006C1E1FF07C1E2FF7A0EE66E04C1A0
:10035C0000F005C101F0E4DE26C300F027C301F074
:10036C00010E0301265F000E275B0050011013E005
:10037C0006C1E1FF07C1E2FF24C3E9FF25C3EAFF81
:10038C00EECFE6FF04C100F005C101F0C9DE0301A8
:0A039C00244B252BE1D780801200CE
:1003A60026C304F027C305F024C302F025C303F0D7
:1003B60028C300F029C301F0010E0301285F000ED7
:1003C600295B005001100FE004C0E9FF05C0EAFFF9
:1003D60002C0E1FF03C0E2FFEECFE6FF024A032AB6
:1003E600044A052AE5D724C300F025C301F012000C
:1003F600AE0E03012E6F190E2F6F306BC8DEAE0ED8
:1004060003012425006E190E2521016E00C024F378
:1004160001C025F3060E316F00C032F301C033F37D
:100426008EDE1F0E03012E6F800E2F6F3EDF1F0E16
:1004360003012E6F800E2F6FFCDE01010351050AAA
:1004460004E00351070A01E006D01C0E03012E6FDB
:100456000A0E2F6FEEDE1F0E03012E6F080E2F6F92
:1004660024DF01010351050A04E00351070A01E0F4
:1004760080D00301286B296B1C0E2E6FA9DE0A0E95
:10048600001600520AE10301284B292B030E295DB1
:1004960002E1E80E285D01E2EFD703011C0E2E6F84
:1004A60097DE00B208D0030E0301295D02E1E80ED3
:1004B600285D01E25DD003011F0E2E6F080E2F6F1F
:1004C600B8DE040E030124252E6F000E25212F6FA2
:1004D600CDDE00C027F30301266B100E265D48E231
:1004E6001C0E2E6F75DE00A23FD0030127AB3CD059
:1004F6001F0E2E6F800E2F6FD8DE1F0E03012E6F7C
:10050600800E2F6F96DE1C0E03012E6F0A0E2F6FC4
:1005160090DE1F0E03012E6F080E2F6FC6DE03013D
:10052600286B296B1C0E2E6F53DE0A0E0016005226
:100536000AE10301284B292B030E295D02E1E80E8F
:10054600285D01E2EFD703011F0E2E6F080E2F6FF5
:1005560070DE040E030124252E6F000E25212F6F59
:1005660085DE00C027F301D003D00301262BB5D7C3
:1005760007D003011F0E2E6F2BDE00A601D0F9D780
:100586001D0E03012E6F24DE060E0016005202E039
:0A059600006A02D0010E006E120090
:1005A000030126512425286F27512521296F010E8B
:1005B000285F000E295B100E316F24C332F325C370
:1005C00033F3C0DD120E0301316F28C332F329C3A8
:1005D00033F3B8DD1F0E03012E6F300E2F6F68DE70
:1005E0001F0E03012E6FF7DD00AA01D0F9D712000C
:1005F00024C32EF325C32FF326C330F3CBDD27C34B
:060600002EF301DE1200E2
:1006060003012D6B010E265F000E275B2A530DE0BA
:100616002751190802E12651AD0807E22D2BAD0E30
:10062600265D2B6F190E27592C6F2D5305E0AD0E45
:10063600016E190E026E04D026C301F027C302F024
:100646002551021802E1015024190DE124C32EF3AD
:1006560025C32FF30BDE00C030F328C32EF329C3C6
:100666002FF395DD36D0100E0301316F24C332F31C
:1006760025C333F364DD120E0301316F2D5305E0FC
:10068600AD0E006E190E016E04D026C300F027C30E
:1006960001F000C032F301C033F351DD140E030143
:1006A600316F28C332F329C333F349DD1F0E03012B
:1006B6002E6F100E2F6FBDDD1F0E03012E6F200E45
:1006C6002F6FF3DD1F0E03012E6F82DD00AA01D00E
:1006D600F9D703012D531AE02451265D006E2551EA
:1006E6002759016E2B51005E2C51015A004A012AEE
:1006F6000050282701502923010E2B5D266F000E7E
:0E0706002C59276F246B256B2D6B8FD712009B
:10071400809006C1E1FF07C1E2FF7A0EE66E04C1D4
:1007240000F005C101F000DD06C1E1FF07C1E2FFF1
:1007340025C3E6FF04C100F005C101F0F5DC06C1E4
:10074400E1FF07C1E2FF24C3E6FF04C100F005C1D5
:0807540001F0EADC80801200D4
:10075C00086A080E0C6E003408360450085ED8B0D7
:0E076C0002D00826D89000360C2EF5D71200C9
:0E077A0000000000000000000000000012005F
:10078800809006C1E1FF07C1E2FF3A0EE66E04C1A0
:1007980000F005C101F0C6DC06C1E1FF07C1E2FFB8
:1007A800E66A04C100F005C101F0BCDC80801200DB
:1007B8000301196B030E195D0AE219511725E16E41
:1007C800000E1821E26E200EE66E192BF3D7195190
:1007D8001725E16E000E1821E26EE66A1907195115
:1007E80017251A6F000E18211B6F0A0E046E16C308
:1007F80000F0B0DF08C000F0300E00261AC3E1FF99
:100808001BC3E2FF00C0E6FF0A0E046E16C300F029
:10081800A1DF00C016F30050000A01E102D0190759
:04082800DED7120005
:10082C002D0E0C6EA30E0D6E0D2EFED70C2EFCD7BE
:04083C0000001200A6
:10084000809006C1E1FF07C1E2FF7A0EE66E04C1A7
:1008500000F005C101F06ADC19C300F01AC301F011
:10086000010E0301195F000E1A5B005001101BE01E
:1008700006C1E1FF07C1E2FF16C3F6FF17C3F7FF8A
:1008800018C3F8FF0900F5CF00F000C0E6FF04C16F
:1008900000F005C101F04ADC010E03011627000E2D
:0A08A00017231823D9D78080120017
:1008AA00050E0C6E090E0D6E0D2EFED70C2EFCD702
:0208BA0012002A
:0E08BC00670E0D6E0D2EFED70000000012001C
:1008CA00AF0E0301246F190E256F16C326F317C343
:1008DA0027F3060E286F000E296F02DD1C0E246F07
:1008EA00010E256F060E266F000E276F2ADD000EF9
:1008FA00246F080E256F09DF1C0E03011E25216FC8
:10090A00000E1F21226F000E246F450E256FFDDE9B
:10091A0021C324F322C325F3F8DE3CC124F33DC1ED
:10092A0025F3F3DE01013C4B3D2B0301246B256BC0
:10093A00ECDE110E0301246F800E256FE6DE030143
:10094A00246B256BE2DE180E0301246F010E256F5E
:10095A00040E266F000E276FF4DC18C324F319C3A4
:10096A0025F3040E266F000E276FEBDC080E1E25FA
:10097A00216F000E1F21226F1AC324F31BC325F314
:10098A00C4DE1CC324F31DC325F3BFDE21C324F335
:10099A0022C325F3BADE0301246B256BB6DEBD0E36
:1009AA000301246F190E256F140E266F000E276F90
:1009BA00F2DD160E03012E6F09DC00C023F3170EB9
:1009CA0003012E6F03DC00C026F3C70E0301246F58
:1009DA00190E256F23C327F306DE010E0301211525
:1009EA00206FD90E1E252E6F190E1F212F6F306B07
:1009FA00CAEC00F0C90E0301246F190E256FD10E3F
:100A0A00266F190E276FD90E1E25286F190E1F2162
:100A1A00296F20512827000E29232A6BEFDDD90ED2
:100A2A001E25246F190E1F21256F20512427000E21
:100A3A002523080E2427000E2523266B110E276F67
:100A4A00D2DD22C32EF303EC01F021C32EF303EC13
:100A5A0001F0D10E0301246F190E256F0C0E21250A
:100A6A00266F000E2221276F20512627000E2723EA
:100A7A0092DD160E03012E6FEBEC00F000C023F39B
:100A8A00170E03012E6FEBEC00F000C026F3D70E11
:100A9A000301246F190E256F23C327F3A4DD2A0E41
:100AAA0003011E25246F000E1F21256F9FDC1200F3
:100ABA0003011951FF0A02E1FF0E181907E0316B11
:100ACA0018C332F319C333F3A2EC00F0809006C1C5
:100ADA00E1FF07C1E2FF3A0EE66E04C100F005C16C
:100AEA0001F096EC00F01AC300F01BC301F0010EEE
:100AFA0003011A5F000E1B5B0050011015E006C1CE
:100B0A00E1FF07C1E2FFE66A04C100F005C101F096
:100B1A0096EC00F016C3E1FF17C3E2FF00C0E6FF40
:0C0B2A000301164B172BDFD78080120050
:100B360016C324F317C325F3180E0301266F010EFF
:100B4600276F040E286F000E296F2ADC186B1851C8
:100B5600030821E318511625026E000E1721036EB5
:100B660002C0E9FF03C0EAFFEECF01F04F0EE96EC7
:100B7600010EEA6E1851E926D8B0EA2AFF0EEE18E1
:100B8600006E0150001202C0E1FF03C0E2FF00C088
:080B9600E6FF182BDCD712006A
:100B9E0016C3E9FF17C3EAFFEE50000A14E02D0E4C
:100BAE00E16E020EE26E0101B451E126D8B0E22AE6
:100BBE0016C3E9FF17C3EAFFEECFE6FFB42B03011E
:080BCE00164B172BE5D71200AE
:100BD6001AC301F01BC302F0010E03011A5F000ED7
:100BE6001B5B000E021802E1000E01181FE016C37F
:100BF600E9FF17C3EAFF18C3D9FF19C3DAFFEE509E
:100C0600DE180FE016C3E9FF17C3EAFF18C3D9FFC2
:100C160019C3DAFFDE50EE5C006E016A000E015A5F
:100C260007D0164B172B184B192BD2D7006A016A1F
:020C36001200AA
:100C38000301106B116B0EC3E9FF0FC3EAFFEE52FD
:100C48000EE00EC3E9FF0FC3EAFFEECF2EF303EC6D
:100C580001F003010E4B0F2B104B112BECD710C3D7
:080C680000F011C301F01200BD
:100C7000F90E0301116F000E126F020E316FD90EC3
:100C8000326F190E336FA2EC00F0200E0301166FC5
:100C9000380E176F000E186F0C0E196F000E1A6FBA
:100CA000CFDD0E51030A0DE10F530BE00C0E246F44
:100CB000010E256F040E266F000E276FA6EC01F0C3
:100CC0000AD0106B040E105D06E22E6B03EC01F0EF
:100CD0000301102BF7D7106B0C0E105D06E22E6B84
:100CE00003EC01F00301102BF7D71C0E246F010E4B
:100CF000256F060E266F000E276FA6EC01F0106B15
:100D0000CA0E105D06E22E6B03EC01F00301102BFE
:100D1000F7D7380E166F380E176F000E186F060EC5
:100D2000196F000E1A6F8CDD0EC32EF303EC01F069
:100D300003010E51030A1AE10F5318E1360E2E6F0C
:100D400003EC01F0040E03012E6F03EC01F0140E0E
:100D50000301246F010E256F040E266F000E276F0E
:100D6000A6EC01F0060E1127000E12233E0E166FA0
:100D7000380E176F000E186F050E196F000E1A6FE0
:100D80005FDD0E51030A23E10F5321E1320E2E6F76
:100D900003EC01F0040E03012E6F03EC01F00301DC
:100DA000106B040E105D0FE20C0EE96E010EEA6E80
:100DB0001051E926D8B0EA2AEECF2EF303EC01F069
:100DC0000301102BEED7060E1127000E1223FF0E83
:100DD0002E6F03EC01F0D90E0301166F000E176F92
:100DE000D90E186F000E196F440E1A6F000E1B6F8C
:100DF000430E1C6F000E1D6F11C31EF312C31FF3B1
:040E000064DD12009B
:100E040003010E6BC80E0E5D04E24DDD4CDD0E2BAE
:040E1400F9D71200F8
:100E18004F0E0301246F010E256F0EC326F30FC377
:100E280027F3040E286F000E296FD3EC01F04B0E48
:100E3800246F010E256F10C326F311C327F3040E88
:100E4800286F000E296FD3EC01F0550E246F010EA8
:100E5800256F12C326F313C327F3040E286F000E61
:100E6800296FD3EC01F0590E166F010E176F5FDE74
:020E7800120066
:100E7A000301106B3C0E0101086F000E096F0A6F27
:100E8A000B6F7DDC00C00EF30050020AD8A420D1FB
:100E9A0003010F6B0F0E0F5D04E271DC03010F2BD0
:100EAA00F9D70C0E166F010E176FFF0E186FFF0E93
:100EBA00196F040E1A6F000E1B6FFADD0F6B080E06
:100ECA000F5D04E25CDC03010F2BF9D70F6B060EF2
:100EDA000F5D12E254DC00C00EF31C0ED96E010E37
:100EEA00DA6E03010F51D926D8B0DA2A0050DE187B
:100EFA0001E018D10F2BEBD70F6BCE0E0F5D04E27A
:100F0A003EDC03010F2BF9D7116B39DC00C00EF35D
:100F1A00C0D035DC00C00EF30050010A04E12FDC1A
:100F2A0000C010F301D0FED0CFD029DC00C00EF3F0
:100F3A000050040A0FE1220E0301166F010E176F0B
:100F4A00FF0E186FFF0E196F040E1A6F000E1B6F3B
:100F5A00AFDD01D0E7D0B8D012DC00C00EF3040E2A
:100F6A00005C0FE3260E0301166F010E176FFF0ECA
:100F7A00186FFF0E196F040E1A6F000E1B6F98DDA3
:100F8A0001D0D0D00301040E0E5F03010EC300F09E
:100F9A000E07005203E0C4EC03F0F7D795D0C4EC77
:100FAA0003F000C00EF3040E005C0FE3100E030101
:100FBA00166F010E176FFF0E186FFF0E196F040ED2
:100FCA001A6F000E1B6F74DD01D0ACD00301040E42
:100FDA000E5F03010EC300F00E07005203E0C4ECDB
:100FEA0003F0F7D771D0C4EC03F000C00EF3005041
:100FFA00040A0FE1120E0301166F030E176FFF0E9C
:10100A00186FFF0E196F040E1A6F000E1B6F50DD5A
:10101A0001D088D059D00301010E116F55D0C4EC0C
:10102A0003F000C00EF30050040A23E1080E030186
:10103A00166F010E176FFF0E186FFF0E196F040E51
:10104A001A6F000E1B6F34DD01010B51000808E115
:10105A000A51000805E10951070802E10851080888
:10106A0007E2080E085F070E095B000E0A5B0B5BBE
:10107A0001D058D029D0C4EC03F000C00EF30EC33F
:10108A0000F003010E07005203E0C4EC03F0F7D7A7
:10109A001BD003010E51350AD8B43BD70E51010AB1
:1010AA00D8B443D70E51030AD8B456D70E51060AFC
:1010BA00D8B475D70E51360A96E00E51FF0AABE046
:1010CA000E51330AACE0D7D703011153D8B41DD758
:1010DA0003011051020A0FE1140E246F010E256F4D
:1010EA00120E266F030E276F040E286F000E296F4B
:1010FA00D3EC01F014D0140E166F010E176F120EF6
:10110A00186F030E196F040E1A6F000E1B6F5EDD47
:10111A00000E011802E1000E001801E0106B10C366
:08112A0000F001D0006A120080
:101132000301116B126B0EC3F6FF0FC3F7FF10C34F
:10114200F8FF0900F5CF00F0005214E00EC3F6FFDD
:101152000FC3F7FF10C3F8FF0900F5CF2EF303EC1E
:1011620001F0010E03010E27000E0F231023114B75
:0E117200122BE1D711C300F012C301F01200DE
:101180000301126B136B0101B46B0301126B100EA0
:10119000125D60E2A00EE96E010EEA6E1251E926C0
:1011A000D8B0EA2AEE50010A53E1FC0E166F000E89
:1011B000176FF5DC12C316F30E0E176F030E186FC0
:1011C000DCEC03F00E0E166F030E176FE8DCFA0E60
:1011D000166F000E176FE3DC900EE96E010EEA6EDB
:1011E0001251E926D8B0EA2AEECF01F001C013F37C
:1011F00001BE06D0EE0E166F000E176FD0DC23D0A6
:1012000013AD1CD013A90DD0430E166F000E176F2F
:10121000C6DC13AB05D05B0E166F000E176FBFDC7C
:101220000CD0660E166F000E176FB9DC13AB05D02D
:101230002C0E166F000E176FB2DC05D0370E166F2E
:10124000000E176FACDC3E0E166F000E176FA7DC9A
:10125000122B9DD72D0EE16E020EE26E0101B451EC
:0C126000E126D8B0E22AE66AB42B1200A6
:10126C000EC302F00FC303F011C300F012C301F060
:10127C00010E0301115F000E125B0050011009E01A
:10128C0002C0E1FF03C0E2FF10C3E6FF024A032ADB
:0C129C00EBD70EC300F00FC301F01200EE
:1012A8008090400E03010E11006E06C1E1FF07C1D8
:1012B800E2FF00C0E6FF04C100F005C101F096ECB2
:1012C80000F006C1E1FF07C1E2FF0FC3E6FF04C15A
:0E12D80000F005C101F096EC00F080801200DD
:1012E60003010EBF02D0819E01D0818E0EBD02D0B9
:1012F600819C01D0818C0EBB02D0819A01D0818A5B
:101306000EB902D0819801D0818801012AB102D09C
:10131600828001D082908284BDEC03F08294030126
:101326000EB702D0819E01D0818E0EB502D0819C6F
:1013360001D0818C0EB302D0819A01D0818A0EB180
:1013460002D0819801D0818801012AB102D0828021
:1013560001D082908284BDEC03F082942AA103D04E
:0C13660016EC04F002D05EEC04F0120063
:101372000201FE51190802E1FD51AD0804E2AE0E70
:10138200FD5F190EFE5B0301316BFDC232F3FEC23B
:0813920033F3A2EC00F012009D
:10139A00B5D0180E03010E6F010E0F6F106B040EFD
:1013AA00116F000E126F5DDF010E0E6F0F6B5BDCAB
:1013BA00E2C033F1E3C034F1E4C035F1E5C036F1FF
:1013CA00030E0001D66FADD0050E01013325016E63
:1013DA00000E3421026E000E3521036E000E3621F6
:1013EA00046E0001E551045C08E1E451035C05E187
:1013FA00E351025C02E1E251015C02E2020ED66FA5
:10140A0037DD0050020A04E1040E0001D66F01D054
:10141A0088D0030E03010E6FD5C00FF324DCE2C09F
:10142A0033F1E3C034F1E4C035F1E5C036F1050E1D
:10143A000001D66F76D01CDD00C0FDF20050060A0E
:10144A0004E1040E0001D66F2ED00201FD51050AF7
:10145A002AE1E2C033F1E3C034F1E4C035F1E5C07A
:10146A0036F1060E0001D66F180E0301246F010E25
:10147A00256F0C0E266F010E276F040E286F000EC3
:10148A00296FD3EC01F0220E0E6F010E0F6F260E9C
:10149A00106F010E116F100E126F010E136FB7DC71
:1014AA000001D56B3ED03DD0010E01013325016EFE
:1014BA00000E3421026E000E3521036E000E362115
:1014CA00046E04500001E55D08E10350E45D05E1A6
:1014DA000250E35D02E10150E25D0FE3010E0101FA
:1014EA00085F000E095B0A5B0B5BE2C033F1E3C0E5
:1014FA0034F1E4C035F1E5C036F113D00001D6511C
:10150A00020AD8B446D7D651030AD8B45DD7D65101
:10151A00040AD8B47ED7D651050A8DE0D651060AF8
:04152A00C3E0120008
:10152E00C4EC03F0C4EC03F0C4EC03F000C0FEF214
:10153E00C4EC03F000C0FDF2C4EC03F000C002F3F3
:10154E00C4EC03F000C001F3C4EC03F000C004F3DC
:10155E00C4EC03F000C003F3C4EC03F0C4EC03F0DE
:10156E00C4EC03F0C4EC03F001C300F002C301F0BD
:10157E00010E0301015F000E025B005001100EE030
:10158E00C4EC03F0005201E0FBD7C4EC03F0C4EC52
:10159E0003F0C4EC03F0C4EC03F0E6D703C300F091
:1015AE0004C301F0010E0301035F000E045B005043
:1015BE00011048E0C4EC03F0C4EC03F0C4EC03F0FB
:1015CE0000C008F3C4EC03F000C007F3C4EC03F052
:1015DE00C4EC03F0C4EC03F0C4EC03F0C4EC03F071
:1015EE00C4EC03F0C4EC03F000C006F3C4EC03F04B
:1015FE0000C005F3000E0301081902E1010E0719E0
:10160E0011E1C4EC03F000C02FF1C4EC03F000C0F4
:10161E0030F1C4EC03F000C031F1C4EC03F000C0B3
:10162E0032F110D005C300F006C301F0010E030124
:10163E00055F000E065B0050011003E0C4EC03F0E2
:06164E00F1D7ACD7120039
:101654001F0E03012E6F010E2F6F1CEC01F01F0EE5
:1016640003012E6F020E2F6F58EC01F0140E0301CC
:101674000E6FFDC20FF316DE02EC07F0160E0E6FAE
:10168400FFC20FF30FDE02EC07F0170E0E6FFEC25F
:0A1694000FF308DE02EC07F012006D
:10169E001F0E03012E6F010E2F6F1CEC01F01F0E9B
:1016AE0003012E6F020E2F6F58EC01F0140E030182
:1016BE000E6FFDC20FF3F1DD120E03012E6F010E40
:1016CE002F6F58EC01F002EC07F0120E2E6F010E88
:1016DE002F6F1CEC01F0160E03012E6FEBEC00F0D9
:1016EE0000C3E1FF01C3E2FF00C0E6FF170E0301D6
:1016FE002E6FEBEC00F0FEC2E1FFFFC2E2FF00C076
:04170E00E6FF1200E0
:1017120003012E6BEBEC00F000C002F3010E03019B
:101722002E6FEBEC00F000C003F30301316BFDC23E
:1017320032F3FEC233F3A2EC00F0809006C1E1FF67
:1017420007C1E2FF3A0EE66E04C100F005C101F0E6
:1017520096EC00F0030101531AE006C1E1FF07C154
:10176200E2FFE66A04C100F005C101F096EC00F068
:10177200FFC2D9FF00C3DAFF0050DE1801E007D034
:101782000201FF2B0301000E00230107E3D703012F
:101792008080316B02C332F303C333F3A2EC00F057
:0617A20001C300F012007B
:1017A8000B6A0A6A096A00500402F4CF09F0F3CF01
:1017B80008F001500502F4CF0BF0F3CF0AF0005007
:1017C8000502F3500926F4500A22E86A0B22015058
:1017D8000402F3500926F4500A22E86A0B2208C0D2
:1017E80000F009C001F00AC002F00BC003F01200BB
:1017F800B50E0301246F190E256FBB0E266F190E47
:10180800276FAF0E286F190E296F2A6B03EC03F0B0
:10181800B50E246F190E256F1C0E266F010E276F4B
:0E182800060E286F000E296F75EC01F01200FD
:06183600006A016A1200C5
:0E183C0001012A91FDC20EF350DD2A81120037
:10184A0010D0800E0201FD6F1AD0C00EFD6F17D0A6
:10185A00940EFD6F14D0D40EFD6F11D0800EFD6F63
:10186A000ED00201FD51010AECE0FD51020AEDE041
:10187A00FD51030AEDE0FD51040AEDE0EFD7FE0544
:10188A00006EFD51002600C0FDF201012A8100C050
:10189A000EF324DD2A91FFC20EF320DD2A81120005
:1018AA00C90E0301246F190E256FCD0E266F190E6E
:1018BA00276FCD0E286F190E296F2A6B03EC03F0E0
:1018CA00C90E246F190E256F180E266F010E276F89
:0E18DA00040E286F000E296F75EC01F012004D
:1018E80003010A6B0B6B000E021902E1500E01197D
:1018F80003E0006A016A12008088086B096B000E19
:10190800095D02E1100E085D12E2B90E08250C6FA0
:10191800010E09210D6FC4EC03F00CC3E1FF0DC3E8
:10192800E2FF00C0E6FF0301084B092BE8D7B90E18
:101938000825E16E010E0921E26EE66AB90E166FFE
:10194800010E176FF40E186F000E196F050E1A6F3F
:10195800000E1B6FEBEC05F00050011003E0006A6D
:10196800016A12000101BE51730A03E1010EB86F4A
:101978001BD1BE51720A27E1010EB56F0F0EBF15BC
:101988008E6F0A0E8E03F3CF8EF10F0EC015006E08
:1019980000508E270F0EC1158D6F0A0E8D03F3CFE1
:1019A8008DF10F0EC215006E00508D270F0EC31556
:1019B8008C6F0A0E8C03F3CF8CF10F0EC415006EDA
:1019C80000508C27F1D0BE51620A55E10F0EBF15A9
:1019D800006E0A0E0002F3CF01F0F4CF02F00F0EF2
:1019E800C015006E00500124036E000E0220046E24
:1019F80003C000F004C001F0003600900136CD0E9F
:101A08000026010E012200C0E1FF01C0E2FF0F0E17
:101A1800C115006E0A0E0002F3CF01F00F0EC215B9
:101A2800006E0150002600C0E6FF0F0EBF15006EC5
:101A38000A0E0002F3CF01F0F4CF02F00F0EC0152A
:101A4800006E00500124036E000E0220046E03C0D5
:101A580000F004C001F0003600900136CD0E0026DB
:101A6800010E0122010E0024E16E000E0120E26E3B
:101A7800010EE66E99D0BE51700AD8A495D00F0E0B
:101A8800BF15006E0A0E0002F3CF01F00F0EC0154D
:101A9800006E00500124036E03C007F303C000F07A
:101AA800000E016E003600900136003600900136B7
:101AB800ED0E0026010E012200C0E1FF01C0E2FF89
:101AC8000F0EC115006E0A0E0002F3CF01F00F0EC3
:101AD800C215006E0150002600C0E6FF07C300F0E3
:101AE800000E016E00360090013600360090013677
:101AF800ED0E0026010E0122010E0024E16E000EFB
:101B08000120E26E0F0EC315006E0A0E0002F3CF1D
:101B180001F00F0EC415006E0150002600C0E6FF4C
:101B280007C300F0000E016E003600900136003643
:101B380000900136ED0E0026010E0122020E00244F
:101B4800E16E000E0120E26E0F0EC515006E0A0E42
:101B58000002F3CF01F00F0EC615006E01500026EB
:101B680000C0E6FF07C300F0000E016E00360090CB
:101B78000136003600900136ED0E0026010E0122D6
:101B8800030E0024E16E000E0120E26E0F0EC71551
:101B9800006E0A0E0002F3CF01F00F0EC815006E9A
:101BA8000150002600C0E6FF000E03010B1902E1F8
:101BB800000E0A193EE1C0EC08F0010E03010E6F99
:101BC800380E0F6F000E106F99EC08F000C00AF382
:101BD80001C00BF32C0E0E6F380E0F6F000E106F36
:101BE80099EC08F000500A2701500B230101B85165
:101BF800010A0CE1B86B2D0E03010E6F020E0F6F78
:101C08001CEC06F000500A2701500B230301086B57
:101C1800096B000E095D02E1100E085D0AE2A00ED4
:101C28000825E16E010E0921E26EE66A084B092BD0
:0C1C3800F0D70AC300F00BC301F012004B
:101C4400C40E03012E6F190E2F6F39EC01F000C082
:101C5400D0F2E3D0D50E0201FD6F190EFE6F180EFF
:101C6400FF6F010E0301006F040E016F50DD005081
:101C7400000A4AE1C40E03012E6F190E2F6F020EE3
:101C8400306FCAEC00F0B6DDCB0E246F190E256F51
:101C9400CF0E266F190E276FD50E286F190E296FD8
:101CA4002A6B03EC03F0CB0E246F190E256F180E6C
:101CB400266F010E276F040E286F000E296F75EC36
:101CC40001F0C50E246F190E256FCB0E266F190E69
:101CD400276FCF0E286F190E296F2A6B03EC03F0C0
:101CE400C50E246F190E256F1C0E266F010E276F6B
:101CF400060E286F000E296F75EC01F03C0E246F60
:101D0400000E256FFBEC01F091D0AF0E0201FD6FC8
:101D1400190EFE6F1C0EFF6F010E0301006F060EFD
:101D2400016FF5DC0050000A77E1CB0E0201FD6F74
:101D3400190EFE6F5DC1FFF25EC100F3040E0301D4
:101D4400016FE5DC0050000A67E10F0E006E000E23
:101D5400016EE1C004F0000E056E24DD5F0E002468
:101D64000301166F010E0120176F090E1627000ECE
:101D74001723C50E186F190E196F060E1A6F000E71
:101D84001B6F5DEC05F00F0E006E000E016EE1C0DE
:101D940004F0000E056E06DD5F0E0024246F010EB4
:101DA4000120256F050E2427000E25235DC126F38F
:101DB4005EC127F3040E286F000E296FD3EC01F0E7
:101DC4000F0E006E000E016EE1C004F0000E056EF1
:101DD400E9DC5F0E0024E16E010E0120E26E010ECB
:101DE400E66E0F0E006E000E016EE1C004F0000EF0
:101DF400056ED8DC5F0E0026010E0122010E0024C0
:101E0400E16E000E0120E26EE2C0E6FFE3C0E6FFF1
:101E1400E4C0E6FFE5C0E6FF09D00201D051010AA3
:0E1E2400D8B418D7D051020AD8B46FD7120024
:101E32000201D46BD2C2D3F2D351090804E20A0ED2
:101E4200D35FD42BF9D7D0C2FDF2D1C2FEF2300E4D
:101E5200D425FF6FF9DCD0C2FDF20201D151010F8E
:0C1E6200FE6F300ED325FF6FEFDC120086
:101E6E0003010E6B0201D05303E00D0E006E02D083
:101E7E00050E006E00C00FF354EC09F0020E0301C4
:101E8E000E6F0201D05303E0310E006E02D0300E01
:101E9E00006E00C00FF354EC09F00A0E0301316F0F
:101EAE00EE0E326F050E336FA2EC00F0040E03013E
:101EBE000E6F0201D05303E0150E006E02D0120E0B
:101ECE00006E00C00FF354EC09F0060E03010E6F06
:101EDE00120E0F6F54EC09F00201D05307E1070EFA
:101EEE0003010E6F0C0E0F6F54EC09F00201D0536C
:101EFE0007E1090E03010E6F3F0E0F6F54EC09F050
:101F0E001F0E03012E6F010E2F6F58EC01F01F0EE6
:101F1E0003012E6F020E2F6F58EC01F0040E030119
:101F2E000E6F1CC10FF354EC09F0050E03010E6F7A
:101F3E001DC10FF354EC09F0020E03010E6F1EC10A
:101F4E000FF354EC09F0030E03010E6F1FC10FF3D4
:101F5E0054EC09F003010E6B20C10FF354EC09F0A1
:101F6E00010E03010E6F21C10FF354EC09F0150E93
:101F7E0003010E6F0F6B54EC09F0120E03012E6F5E
:101F8E00EBEC00F000C003F10201FD6BD10EFE6F11
:101F9E00020EFF6FD20E0301006F020E016F4FECA7
:101FAE000BF00201FD6BFE0ED115FE6FD05303E058
:101FBE00010E006E01D0006A0050FE13D2C2FFF275
:101FCE002AEC0BF0100E0201FD6F010EFE6FFF6B7F
:101FDE002AEC0BF01F0E2E6F040E2F6F58EC01F033
:101FEE0002EC07F05F0E0E6F010E0F6F106B2D0ED1
:101FFE00116F000E126F36EC09F01F0E2E6F010ED0
:10200E002F6F1CEC01F01F0E03012E6F020E2F6FAF
:06201E001CEC01F01200B1
:10202400D3C22EF3D4C22FF339EC01F000C0DEF298
:10203400C4EC03F000C0DDF2C4EC03F000C0DCF239
:10204400C4EC03F000C0DBF2000E0201DC1902E173
:10205400000EDB1901E191D0C4EC03F000C0E0F202
:10206400C4EC03F000C0DFF2E10E0301166F020EB0
:10207400176FC90E186F190E196F040E1A6F000E20
:102084001B6F5DEC05F0020E316F080E0201D325C3
:102094000301326F000E0201D4210301336FA2EC5D
:1020A40000F00E0E0201D025FD6F000ED121FE6F4F
:1020B400D251FD27000EFE23080EFD27000EFE233D
:1020C400B9EC09F0000E0201DE1902E1350EDD194A
:1020D40003E197EC0AF051D0000E0201DC1902E191
:1020E400440EDB1903E1CDEC09F047D0E10E020107
:1020F400FD6F020EFE6FDDC2FFF2DEC200F3DBC233
:1021040001F3DCC202F3080EDF5D0301036F000E6E
:102114000201E0590301046F4A0E056F010E066FB8
:102124001BEC0CF000C0DFF201C0E0F20050011023
:1021340024E0D50E166F020E176FB50E186F190E28
:10214400196F060E1A6F000E1B6F5DEC05F0D50EAD
:10215400166F020E176FE10E186F020E196FDBC2B5
:102164001AF3DCC21BF3DDC21CF3DEC21DF3DFC2B3
:0C2174001EF3E0C21FF365EC04F0120043
:1021800010D0800E0201D06F1AD0C00ED06F17D0C1
:10219000940ED06F14D0D40ED06F11D0800ED06FAB
:1021A0000ED00201D051010AECE0D051020AEDE05C
:1021B000D051030AEDE0D051040AEDE0EFD7D1058C
:1021C000006ED051002600C0D0F200C00EF373ECB8
:1021D00009F02A910201D46BD451D225E96E000E88
:1021E000D321EA6EEE520DE0D451D225E96E000EF5
:1021F000D321EA6EEECFFDF21EEC0CF00201D42BDF
:08220000EBD701012A81120055
:10220800D4C22EF3D5C22FF339EC01F000C0E4F2AA
:10221800C4EC03F000C0E3F2C4EC03F000C0E2F247
:10222800C4EC03F000C0E1F20201E96BEE6B010EB1
:10223800EF6FEC6BED6B0C0ED42503012E6F000EC7
:102248000201D52103012F6F39EC01F000C0E7F23C
:10225800000E0201E86FE733E79FE733E79F000EC0
:10226800E86FFC0EE717FF0EE817F80E0301166F6C
:10227800020E176FC90E186F190E196F040E1A6F18
:10228800000E1B6F5DEC05F00D0E0201D425030155
:102298002E6F000E0201D52103012F6F39EC01F0DA
:1022A8003F0E00140201E56FE66B000EE617000E04
:1022B800E66F0E0E0101535D0201EA6F000E010187
:1022C80054590201EB6FD251EA5FD351EB5BE751EE
:1022D800EA5FE851EB5B020ED42503012E6F000E76
:1022E8000201D52103012F6F39EC01F000C030F352
:1022F800D4C22EF3D5C22FF3CAEC00F0030E0201AC
:10230800D42503012E6F000E0201D52103012F6F82
:1023180039EC01F000C02EF303EC01F0E3C224F322
:10232800E4C225F38AEC03F0040E0201D42503016C
:102338002E6F000E0201D52103012F6F39EC01F039
:1023480000C0F3F2C4EC03F000C0F2F2C4EC03F0F6
:1023580000C0F1F2C4EC03F000C0F0F2C4EC03F0EA
:1023680000C0F7F2C4EC03F000C0F6F2C4EC03F0CE
:1023780000C0F5F2C4EC03F000C0F4F2000E020154
:10238800E61902E1020EE5193EE1010EF025006EA4
:10239800000EF121016E000EF221026E000EF321F3
:1023A800036E00C0F4F201C0F5F202C0F6F203C0F9
:1023B800F7F2120EE56F000EE66F0C0E03012E6F9A
:1023C800EBEC00F000C0F0F20D0E03012E6FEBEC09
:1023D80000F000C0F1F203012E6BEBEC00F000C03E
:1023E800F2F2010E03012E6FEBEC00F000C0F3F2E5
:1023F8000201E92B180EE76F000EE86FEC6BED6B2E
:102408000001E06B70D0000E0201E61902E1180E1F
:10241800E5192FE1F0C2D6F2F1C2D7F2F2C2D8F232
:10242800F3C2D9F2F4C2F0F2F5C2F1F2F6C2F2F256
:10243800F7C2F3F2EA51D625006EEB51D721016EAF
:10244800000ED821026E000ED921036E00C0F4F2EE
:1024580001C0F5F202C0F6F203C0F7F2100EE56F04
:10246800000EE66FE92B140EE76F000EE86FEE2BF7
:102478003AD0000EE61902E1110EE51934E1F0C276
:10248800DAF2F1C2DBF2F2C2DCF2F3C2DDF2F4C23C
:10249800F0F2F5C2F1F2F6C2F2F2F7C2F3F2010E6F
:1024A800DA25006E000EDB21016E000EDC21026EC3
:1024B800000EDD21036E00C0F4F201C0F5F202C087
:1024C800F6F203C0F7F2100EE56F000EE66FE92B87
:1024D800140EE76F000EE86FEC6BED6B0001DF5335
:1024E80002E1E02BDF6B0201E953D8B41CD20201F0
:1024F800040ED4250301246F000E0201D521030127
:10250800256FF3C226F3F2C227F3F8EC02F0F1C20A
:102518002EF303EC01F0F0C22EF303EC01F0F7C246
:102528002EF303EC01F0F6C22EF303EC01F0F5C232
:102538002EF303EC01F0F4C22EF303EC01F00C0EC1
:102548000201D42503012E6F000E0201D5210301DB
:102558002F6F39EC01F00F0E00140301306FE7C242
:1025680000F00036009000360090005030130C0E3A
:102578000201D42503012E6F000E0201D5210301AB
:102588002F6FCAEC00F00D0E0201D42503012E6F47
:10259800000E0201D52103012F6F39EC01F0C00EA6
:1025A80000140301306F0201E551030130130D0ED1
:1025B8000201D42503012E6F000E0201D52103016B
:1025C8002F6FCAEC00F0000E0201E61902E1120EAC
:1025D800E51929E10E0ED4250301246F000E02012E
:1025E800D5210301256F050E266FEE0E276FF8EC37
:1025F80002F0140E0201D4250301246F000E02011B
:10260800D5210301256F020E266F040E276FF8EC03
:1026180002F0050E03012E6F03EC01F0780E0301A2
:102628002E6F03EC01F00201D251EC25EA6FD35171
:10263800ED21EB6FE751EA27E851EB23EF5304E074
:10264800FCEC0BF055EC0CF00301BF0E246F190ED7
:10265800256FEBC226F3EAC227F3F8EC02F0C70EA7
:102668000301246F190E256F266B276BF8EC02F017
:10267800BD0E0301246F190E256FD2C226F3D3C2F3
:1026880027F3D0EC02F0160E03012E6FEBEC00F0EE
:1026980000C0FCF2170E03012E6FEBEC00F000C037
:1026A80026F3C70E0301246F190E256FFCC227F30A
:1026B800F8EC02F0BD0E0201EA25DF6F190EEB21DE
:1026C800E06F100ED4250301246F000E0201D521FE
:1026D8000301256F266B276BF8EC02F0010E02014F
:1026E800EA15DE6FDFC22EF3E0C22FF30301306B71
:1026F800CAEC00F0C90E0301246F190E256FD10E24
:10270800266F190E276F0201DE51DF250301286F9E
:10271800000E0201E0210301296F2A6B03EC03F08C
:10272800080E0201DF250301246F000E0201E021DB
:102738000301256F0201DE5103012427000E252322
:10274800266B060E276FF8EC02F00A0E0201DF2551
:102758000301246F000E0201E0210301256F02012D
:10276800DE5103012427000E25230201EC51E72541
:10277800036EED51E821046E04C000F0016A00C048
:1027880026F303C027F3F8EC02F0D4C224F3D5C231
:1027980025F30201EC51E7250301266F0201ED51F3
:1027A800E8210301276F0C0E2627000E27230201BC
:1027B800DE5103012627000E2723D0EC02F0160E67
:1027C80003012E6FEBEC00F000C0FCF2170E0301C2
:1027D8002E6FEBEC00F000C026F3100E0201D4259A
:1027E8000301246F000E0201D5210301256FFCC2ED
:1027F80027F3F8EC02F00E0E0201EA250301246F1C
:10280800000E0201EB210301256FFBEC01F0020130
:10281800EE535FE0100EE56F000EE66FEE6BEF6BA8
:10282800020E0301316F0201E751D4250301326F13
:102838000201E851D5210301336FA2EC00F00E0E1E
:102848000201D025FD6F000ED121FE6FD251FD2768
:10285800D351FE23E751FD27E851FE23B9EC09F0D7
:102868000001E02BF80E0201FD6F020EFE6FE3C2BD
:10287800FFF2E4C200F3E1C201F3E2C202F30E0E7A
:102888000101535D0301036F000E01015459030157
:10289800046F0201D2510301035F0201D351030106
:1028A800045B0201E7510301035F0201E8510301E0
:1028B800045B4A0E056F010E066F74EC0CF000C045
:1028C800ECF201C0EDF201014AB102D00001E06B67
:1028D8000ED60001E05327E00201EC51F025006E0E
:1028E800ED51F121016E000EF221026E000EF3216E
:1028F800036E00C0F0F201C0F1F202C0F2F203C0B0
:10290800F3F2110EE56F000EE66F0001E06B0201B5
:10291800EF6B140EE76F000EE86FEC6BED6B010EBA
:082928000001DF6FE4D512008D
:10293000FF0E0101376FFF0E386FFF0E396FFF0E6C
:102940003A6FFF0E3E6FFF0E3F6F000E406F000E9E
:10295000416FFF0E426FFF0E436F000E446F000E7B
:10296000456FFF0E466FFF0E476F000E486F000E5B
:10297000496FAC8A900EAB6E948E949C9EAA03D045
:08298000AECF00F0FBD71200FE
:102988001A0E0101046F010E056F340E066F030E57
:10299800076FFF0E2B6FFF0E2C6FFF0E2D6FFF0EB4
:1029A8002E6F949A0201C451040A02E1948601D060
:1029B80094969488C66AC451C612C651C612C551A7
:1029C800C712C65305E0C751000A01E1C78C03D0FE
:0A29D800C75301E0C78CC68A120045
:1029E200929280829290808002EC07F0808202ECC8
:1029F20007F0809202EC07F0808202EC07F08090F0
:102A020006C1E1FF07C1E2FFFF0EE66E04C100F05E
:102A120005C101F096EC00F0808002EC07F01C0E7C
:102A2200246F010E256FC4C226F3C5C227F3060E1A
:102A3200286F000E296FD3EC01F0180E246F010EDF
:102A4200256FC6C226F3C7C227F3040E286F000EF5
:102A5200296FD3EC01F01F0E2E6F010E2F6F1CECAD
:102A620001F01F0E03012E6F020E2F6F1CEC01F0FE
:102A7200080E0301316F326B336BA2EC00F00A0EC9
:102A82000301316FAD0E326F190E336FA2EC00F0FD
:102A92000C0E0301316FAD0E326F190E336FA2ECC3
:102AA20000F00301316B326B336BA2EC00F0040EC9
:102AB2000301316FAE0E326F190E336FA2EC00F0CC
:102AC2001F0E03012E6F010E2F6F1CEC01F01F0E63
:102AD20003012E6F020E2F6F58EC01F0C8C2D0F224
:062AE20037EC0FF01200BA
:102AE8000201C56BC66BC56BC66B800E006E800E8F
:102AF800C619005C02E1C5510F0824E3900EC525F4
:102B0800E96E010EC621EA6EC451EE14016E015041
:102B1800C4190AE1020EFD6FC5511008FE6F310E8F
:102B2800FF6F25EC0CF00AD0020E0201FD6FC551B3
:102B38001008FE6F300EFF6F25EC0CF00201C54B3C
:062B4800C62BD3D71200DA
:102B4E000201CD6B01014A814A931F0E03012E6FC4
:102B5E00010E2F6F1CEC01F01F0E03012E6F020EE3
:102B6E002F6F1CEC01F00301316BD7C032F3D8C0CC
:102B7E0033F3A2EC00F0809006C1E1FF07C1E2FF43
:102B8E003A0EE66E04C100F005C101F096EC00F0BD
:102B9E0006C1E1FF07C1E2FFE66A04C100F005C10C
:102BAE0001F096EC00F000C0D7F006C1E1FF07C1BE
:102BBE00E2FFE66A04C100F005C101F096EC00F0F8
:102BCE0000C0D8F006C1E1FF07C1E2FFE66A04C10A
:102BDE0000F005C101F096EC00F000C053F106C103
:102BEE00E1FF07C1E2FFE66A04C100F005C101F092
:102BFE0096EC00F000C054F106C1E1FF07C1E2FF00
:102C0E00E66A04C100F005C101F096EC00F000C0C8
:102C1E00CBF206C1E1FF07C1E2FFE66A04C100F094
:102C2E0005C101F096EC00F000C0CCF28080040EDD
:102C3E000101535F000E545B0001D851190802E1E7
:102C4E00D751AD0810E3D7B10ED00201CCBF0BD0D7
:102C5E0001015451050802E15351EE0804E302014B
:102C6E00CBAF01D003D0010E006EECD103012E6B61
:102C7E00EBEC00F000C0C9F2010E03012E6FEBEC7D
:102C8E0000F000C0CAF2C9C224F3CAC225F3010182
:102C9E0053510201C9250301266F0101545102014E
:102CAE00CA210301276FAF0E286F190E296F010E6F
:102CBE002A6F03EC03F0BB0E2E6F190E2F6F39EC3B
:102CCE0001F000C0CCF2C4EC03F000C0CBF2020164
:102CDE00CC51080A02E1060ECB1913E1BD0EFD6FB1
:102CEE00190EFE6FE60EFF6F000E0301006F070E4A
:102CFE00016F89EC0BF00050000A02E122EC0EF09D
:102D0E0072D10201CC51080A02E1000ECB19D8A4EF
:102D1E0067D1CD0EFD6F190EFE6F590EFF6F010EAE
:102D2E000301006F040E016F89EC0BF0005202E1FB
:102D3E0001014A83CD0E0201FD6F190EFE6FD90EF1
:102D4E00FF6F000E0301006F040E016F89EC0BF094
:102D5E00005202E101014A83CD0E0201FD6F190EF0
:102D6E00FE6F180EFF6F010E0301006F040E016F50
:102D7E0089EC0BF0005207E001014AB304D0020EB9
:102D8E000201CD6F2CD1BD0E03012E6F190E2F6FC8
:102D9E0039EC01F0F00E0014016E0150400A04E00F
:102DAE00030E0201CD6F1BD1BD0E03012E6F190E46
:102DBE002F6F39EC01F000C0C7F2000E0201C86F90
:102DCE000F0EC717000EC817C737C791C837C737BA
:102DDE00C791C837C30E03012E6F190E2F6F39EC32
:102DEE0001F0BF0E0014016E0150000AD8A4F7D0F6
:102DFE00C40E03012E6F190E2F6F39EC01F0005027
:102E0E00000AD8A4ECD0BD0E0201C725C56F190E5D
:102E1E00C821C66FC60E03012E6F190E2F6F39EC27
:102E2E0001F000C0C4F20050010AD8A496D0C5C269
:102E3E002EF3C6C22FF339EC01F00050080AD8A4C5
:102E4E008BD0010E0201C52503012E6F000E02016B
:102E5E00C62103012F6F39EC01F00050000A7CE10E
:102E6E00C5C22EF3C6C22FF30301306BCAEC00F0BD
:102E7E00FCEC0BF055EC0CF0C70E246F190E256F01
:102E8E00266B276BF8EC02F0BD0E0301246F190EB2
:102E9E00256FC7C226F3C8C227F3D0EC02F0160E78
:102EAE0003012E6FEBEC00F000C0CEF2170E030103
:102EBE002E6FEBEC00F000C026F3C70E0301246F5B
:102ECE00190E256FCEC227F3F8EC02F0020E0201A6
:102EDE00C5250301246F000E0201C6210301256FD3
:102EEE00266B276BF8EC02F0C5C224F3C6C225F39D
:102EFE000201C7510101535D0301266F0201C85142
:102F0E00010154590301276F0E0E265F000E275B39
:102F1E00D0EC02F0160E03012E6FEBEC00F000C0A9
:102F2E00CEF2170E03012E6FEBEC00F000C026F36D
:102F3E00020E0201C5250301246F000E0201C621F7
:102F4E000301256FCEC227F3F8EC02F053C124F330
:102F5E0054C125F3FBEC01F042D00201C451110A19
:102F6E000DE1C9C2D0F2CAC2D1F2C7C2D2F2C5C2F5
:102F7E00D3F2C6C2D4F212EC10F031D00201C45119
:102F8E00060A2DE1100EC92503012E6F000E020157
:102F9E00CA2103012F6F39EC01F000C0CFF20201FC
:102FAE00CE6BC4EC03F000500201CE250101536F2D
:102FBE00000E0201CF210101546F0E0E5327000E99
:102FCE005423C9C2D0F2CAC2D1F2C7C2D2F2C8C209
:102FDE00D3F2C5C2D4F2C6C2D5F204EC11F003D0BE
:102FEE00040E0201CD6F1E0E03012E6F400E2F6FC9
:102FFE0058EC01F0010E0001D75D016E000ED8599C
:10300E00026E0250190802E10150AD080AE20C0EE0
:10301E000301316FAD0E326F190E336FA2EC00F05B
:10302E000FD00C0E0301316F010E0001D75D0301AD
:10303E00326F000E0001D8590301336FA2EC00F07D
:06304E00CDC200F01200EB
:10305400010E0201D06F010ED16F9C0ED26F000ED3
:10306400D36FC0EC10F0010E0201D06F060ED16FC9
:10307400C8C2D2F219EC0FF0010E0201D06F080E93
:10308400D16F280ED26F000ED36FC0EC10F0010E7A
:103094000201D06F0C0ED16F1A0ED26F000ED36FD7
:1030A400C0EC10F0020E0201D06F010ED16FC4C249
:1030B400D2F219EC0FF0020E0201FD6F030EFE6F47
:1030C4003A0EFF6F25EC0CF0020E0201D06F040ED5
:1030D400D16FC5C2D2F219EC0FF0020E0201D06F0B
:1030E400060ED16F200ED26F000ED36FC0EC10F01D
:1030F400020E0201FD6F080EFE6F2F0EFF6F25EC0E
:103104000CF0020E0201D06F090ED16F230ED26FA4
:10311400000ED36FC0EC10F0020E0201D06F0D0E42
:10312400D16FC6C2D2F219EC0FF0020E0201D06FB9
:0E3134000F0ED16FC7C2D2F219EC0FF01200CD
:10314200949494909398939A939C939E8294829051
:10315200819E819C819A819816EC04F016EC04F011
:1031620016EC04F0818A81888284BDEC03F082949B
:1031720016EC04F08284BDEC03F0829416EC04F0A9
:103182008284BDEC03F0829416EC04F08198828470
:10319200BDEC03F0829416EC04F08284BDEC03F0E3
:1031A2008294819A818E8284BDEC03F0829416EC23
:1031B20004F0819E81888284BDEC03F08294819820
:1031C2008284BDEC03F0829416EC04F08284BDECA0
:1031D20003F0829481888284BDEC03F0829416EC21
:1031E20004F081988284BDEC03F08294818E818CFC
:1031F200818A81888284BDEC03F0829416EC04F00B
:0632020001012A81120007
:10320800100E0101B15D1EE2B1C100F0000E016EA9
:10321800003600900136003600900136ED0E00248D
:10322800E96E010E0120EA6E040E006EC40EE16E16
:10323800020EE26EEECFE6FF0006FCE1B1C1C8F275
:1032480005DF4ED0B151100A10E1010E0201D06F16
:10325800010ED16F810ED26F000ED36FC0EC10F04B
:10326800800E0201C46F3CDC3BD00101B151110A50
:1032780010E1010E0201D06F010ED16FA20ED26FC4
:10328800000ED36FC0EC10F0400E0201C46F28DCB2
:1032980027D00101B151120A10E1010E0201D06FCD
:1032A800010ED16FB30ED26F000ED36FC0EC10F0C9
:1032B800200E0201C46F14DC13D00101B151130AAE
:1032C8000FE1010E0201D06F010ED16FC40ED26F53
:1032D800000ED36FC0EC10F0100E0201C46F00DCBA
:0232E8001200D2
:1032EA000900F5CFE6FF0006FBE10106F9E112004D
:1032FA009E6A210E9D6EB00ECD6ECD80B50ECE6E3D
:10330A00B30ECF6E400EF26EF28E926A0F0E936E6D
:10331A00D00E946E806A816A826AC26A0F0EC16E8A
:10332A00500EAF6EAC8498EC14F0AC8AAB8EAB88BE
:10333A00020E0201C46FC56BC66B010EC76FC4ECE7
:10334A0014F0920EC46F000EC56F980EC66F000E71
:10335A00C76F010EC86FF1EC14F0EEDE010E030127
:10336A000E6F73EC09F00C0E03010E6F73EC09F08B
:02337A0012003F
:0C337C00C3C2ADFFACB201D0FDD71200FF
:103388000101B46BB36BB26BB56BB86BB76BB66B53
:10339800B16B8E6B8D6B8C6B0F0E8F6FB06B100ECD
:1033A800B05DD8B084D0A00EE16E010EE26EB051CF
:1033B800E126D8B0E22AE66A900EE16E010EE26ECE
:1033C800B051E126D8B0E22AE66AB0C100F0000E9A
:1033D800016E003600900136003600900136ED0E81
:1033E8000024E16E010E0120E26EE66AB0C100F031
:1033F800000E016E0036009001360036009001364E
:10340800ED0E0026010E0122010E0024E16E000ED1
:103418000120E26EE66AB0C100F0000E016E0036CF
:1034280000900136003600900136ED0E0026010EA0
:103438000122020E0024E16E000E0120E26EE66A0F
:10344800B0C100F0000E016E003600900136003663
:1034580000900136ED0E0026010E0122030E002415
:10346800E16E000E0120E26EE66AB0C100F0000EC7
:10347800016E003600900136CD0E0024E16E010E7B
:103488000120E26EE66AB0C100F0000E016E00365F
:1034980000900136CD0E0026010E0122010E0024F7
:1034A800E16E000E0120E26EE66AB02B78D71200BA
:1034B8000201C36B1F0E03012E6F010E2F6F58EC14
:1034C80001F01F0E03012E6F020E2F6F1CEC01F08E
:1034D800190E03012E6FEBEC00F00050000804E217
:1034E800A7EC15F000C0C3F21F0E03012E6F010EEA
:1034F8002F6F1CEC01F01F0E03012E6F020E2F6FB1
:0A3508001CEC01F0C3C200F0120039
:1035120022EC1CF0F1DE37DFCEDF0101B251010AED
:10352200D8A4F2D0B26B8F2B8F51100A05E18F6BAA
:10353200010EB76F808801D080988FC100F0000E15
:10354200016E003600900136CD0E0026010E0122DA
:10355200010E0024E96E000E0120EA6EEE50010A0F
:10356200D8A4B1D0808AA00E8F110201C36F05DFEB
:103572008FC100F0000E016E003600900136CD0EB4
:103582000024E96E010E0120EA6EEECF03F003C0C3
:1035920000F0000E016E00360090013600360090F9
:1035A2000136ED0E0024E96E010E0120EA6EEECF27
:1035B200C3F2E3DE8FC100F0000E016E0036009010
:1035C2000136CD0E0024E96E010E0120EA6EEECF27
:1035D20003F003C000F0000E016E003600900136C9
:1035E200003600900136ED0E0026010E0122010E7A
:1035F2000024E96E000E0120EA6EEECFC3F2BDDEBA
:103602008FC100F0000E016E003600900136CD0E23
:103612000024E96E010E0120EA6EEECF03F003C032
:1036220000F0000E016E0036009001360036009068
:103632000136ED0E0026010E0122020E0024E96E73
:10364200000E0120EA6EEECFC3F297DE8FC100F0CA
:10365200000E016E003600900136CD0E0024E96E98
:10366200010E0120EA6EEECF03F003C000F0000E5F
:10367200016E003600900136003600900136ED0EE4
:103682000026010E0122030E0024E96E000E012025
:10369200EA6EEECFC3F271DE809A8FC100F0000EA7
:1036A200016E003600900136CD0E0026010E012279
:1036B200010E0024E16E000E0120E26EE66A020EA7
:1036C2000101B36F21D0B551010A14E1808A7F0E46
:1036D2000201C36F52DE8EC1C3F24FDE8DC1C3F24F
:1036E2004CDE8CC1C3F249DE809A0101B56B020E39
:1036F200B36F0AD0808A200E8F110201C36F3DDEA4
:10370200809A020E0101B36FB751010A02E1B76B51
:063712007ADD02D7FFD7AB
:1038440010EE1AF0E90E006E010E016E180EF66EFF
:0E385400370EF76E000EF86E75EC19F01200CC
:06371800546F74616C00A7
:03371E0020200068
:05372100202020200023
:04372600202020003F
:0B372A00414C41524D204F4E0A0A0056
:0737350049444C450A0A005B
:05373C003C62723E003A
:103741005761746572696E67284D616E75616C5F52
:083751004D6F6465290A0A00AE
:0B375900414C41524D204F4E0A0A0027
:103764005761746572696E67284175746F6D617411
:0B37740069635F4D6F6465290A0A005D
:10377F004F7065726174696F6E20202020202020A9
:01378F000039
:063790000014A576193FAC
:043796000A630C01B5
:06379A0050726F673A0057
:1037A0005761746572696E672020202020202020D8
:0137B0000018
:1037B100416C61726D2020202020202020202020BB
:0137C1000007
:1037C2004D616E75616C2020202020202020202059
:0137D20000F6
:0137D30000F5
:0137D40000F4
:0237D5000000F2
:0637D700FFFFFFFFFFFFF2
:0137DD0000EB
:0137DE0000EA
:0137DF0000E9
:0437E00000000000E5
:0837E4000001080006040000CA
:0637EC004F46460A0A00E8
:0637F200474554202F00A2
:0237F8002000AF
:0737FA0042617374613A00A3
:10380100485454502F312E3120323030204F4B0A42
:0F381100436F6E74656E742D747970653A200084
:0C38200001010600122334450000800066
:0C382C00746578742F68746D6C0A0A00D3
:06383800638253633501B9
:05383E00370301030641
:020000040030CA
:0D00010002191EFF8180FF07C007E00740C5
:00000001FF
