:04000000EEEF15F01A
:1000080000C017F001C016F002C015F0E1CF18F0DB
:10001800E2CF19F09DA012D09EA010D09E900101B1
:100028006D51040A05E16D6B010E0001B56F02D038
:1000380001016D2BB50ECE6EB30ECF6E9DAA31D0D9
:100048009EAA2FD09E9AAECF02F020D02AD002A02E
:100058000CD00F0E0214016E01500001A21903E129
:10006800010EB46F01D0B46B02D00001B46B19D08B
:100078005D0EE16E010EE26EA251E126D8B0E22AD1
:1000880002C0E6FFB46B0DD0B46B0BD00001B451C5
:10009800000ADCE0B451020ADAE0B451010AE8E0EF
:1000A800F3D717C000F016C001F015C002F018C051
:0800B800E1FF19C0E2FF110095
:1000C000AFC2C9FFC7B002D00000FCD7C9CF00F053
:0200D00012001C
:1000D200F250026EF29E0500FF6A0150FE6E005061
:0800E200FD6E02BEF28E120059
:1000EA008090400E0201AC11006E4CC1E1FF4DC17F
:1000FA00E2FF00C0E6FF4AC100F04BC101F0E4DFB5
:10010A004CC1E1FF4DC1E2FFADC2E6FF4AC100F0BA
:10011A004BC101F0D9DF4CC1E1FF4DC1E2FFAEC2D4
:10012A00E6FF4AC100F04BC101F0CEDF8080120029
:10013A00020E0201AC6FA9C2ADF2AAC2AEF2D0DFC2
:10014A0080904CC1E1FF4DC1E2FF7A0EE66E4AC1D2
:10015A0000F04BC101F0B8DF4CC1E1FF4DC1E2FF35
:10016A00ABC2E6FF4AC100F04BC101F0ADDF8080AF
:02017A00120071
:10017C000201AC6BA9C2ADF2AAC2AEF2B0DF8090A4
:10018C004CC1E1FF4DC1E2FF3A0EE66E4AC100F0F0
:10019C004BC101F098DF4CC1E1FF4DC1E2FFE66AB3
:0E01AC004AC100F04BC101F08EDF80801200CE
:1001BA0080904CC1E1FF4DC1E2FF7A0EE66E4AC162
:1001CA0000F04BC101F080DF4CC1E1FF4DC1E2FFFD
:1001DA00A9C2E6FF4AC100F04BC101F075DF808079
:0201EA00120001
:1001EC008090A00E0201A911006E4CC1E1FF4DC11F
:1001FC00E2FF00C0E6FF4AC100F04BC101F063DF33
:10020C004CC1E1FF4DC1E2FFAAC2E6FF4AC100F0BA
:0A021C004BC101F058DF8080120092
:100226008090800E0201A911006E4CC1E1FF4DC104
:10023600E2FF00C0E6FF4AC100F04BC101F046DF15
:100246004CC1E1FF4DC1E2FFAAC2E6FF4AC100F080
:0A0256004BC101F03BDF8080120075
:1002600080904CC1E1FF4DC1E2FFA9C2E6FF4AC147
:1002700000F04BC101F02DDF4CC1E1FF4DC1E2FFA9
:10028000E66A4AC100F04BC101F023DF8080120012
:10029000AE0E0201A96F190EAA6FAB6B4EDFAE0E48
:1002A00002019F25006E190EA021016E00C09FF271
:1002B00001C0A0F2060EAC6F00C0ADF201C0AEF2FC
:1002C00014DF1F0E0201A96F800EAA6FACDF1F0E94
:1002D0000201A96F800EAA6F89DF0001FC51050A97
:1002E00004E0FC51070A01E006D01C0E0201A96FD0
:1002F0000A0EAA6F7BDF1F0E0201A96F080EAA6FFC
:1003000092DF0001FC51050A04E0FC51070A01E0FC
:1003100080D00201A36BA46B1C0EA96FA1DF0A0E93
:10032000001600520AE10201A34BA42B030EA45DA8
:1003300002E1E80EA35D01E2EFD702011C0EA96FF6
:100340008FDF00B208D0030E0201A45D02E1E80EC7
:10035000A35D01E25DD002011F0EA96F080EAA6F16
:1003600045DF040E02019F25A96F000EA021AA6F90
:1003700005DF00C0A2F20201A16B100EA15D48E2F0
:100380001C0EA96F6DDF00A23FD00201A2AB3CD0D2
:100390001F0EA96F800EAA6F46DF1F0E0201A96F04
:1003A000800EAA6F23DF1C0E0201A96F0A0EAA6F2E
:1003B0001DDF1F0E0201A96F080EAA6F34DF0201B4
:1003C000A36BA46B1C0EA96F4BDF0A0E0016005224
:1003D0000AE10201A34BA42B030EA45D02E1E80E87
:1003E000A35D01E2EFD702011F0EA96F080EAA6FED
:1003F000FDDE040E02019F25A96F000EA021AA6F49
:10040000BDDE00C0A2F201D003D00201A12BB5D7FE
:1004100007D002011F0EA96F23DF00A601D0F9D774
:100420001D0E0201A96F1CDF060E0016005202E02D
:0A043000006A02D0010E006E1200F7
:10043A000201A86B010EA15F000EA25BA5530DE09D
:10044A00A251190802E1A151AD0807E2A82BAD0E8D
:10045A00A15DA66F190EA259A76FA85305E0AD0EAC
:10046A00016E190E026E04D0A1C201F0A2C202F0FE
:10047A00A051021802E101509F190DE19FC2A9F291
:10048A00A0C2AAF276DE00C0ABF2A3C2A9F2A4C24D
:10049A00AAF24EDE36D0100E0201AC6F9FC2ADF248
:1004AA00A0C2AEF21DDE120E0201AC6FA85305E027
:1004BA00AD0E006E190E016E04D0A1C200F0A2C2E8
:1004CA0001F000C0ADF201C0AEF20ADE140E020164
:1004DA00AC6FA3C2ADF2A4C2AEF202DE1F0E0201DD
:1004EA00A96F100EAA6F7DDE1F0E0201A96F200EE2
:1004FA00AA6F94DE1F0E0201A96FADDE00AA01D019
:10050A00F9D70201A8531AE09F51A15D006EA051CC
:10051A00A259016EA651005EA751015A004A012A4A
:10052A000050A3270150A423010EA65DA16F000E5F
:0E053A00A759A26F9F6BA06BA86B8FD7120002
:100548009FC2A9F2A0C2AAF2A1C2ABF2F2DDA2C276
:06055800A9F22FDE1200E3
:10055E000201A1519F25A36FA251A021A46F010EEC
:10056E00A35F000EA45B100EAC6F9FC2ADF2A0C2D3
:10057E00AEF2B4DD120E0201AC6FA3C2ADF2A4C294
:10058E00AEF2ACDD1F0E0201A96F300EAA6F44DE73
:10059E001F0E0201A96F5DDE00AA01D0F9D712006D
:1005AE0080904CC1E1FF4DC1E2FF7A0EE66E4AC16A
:1005BE0000F04BC101F086DD4CC1E1FF4DC1E2FF01
:1005CE00A0C2E6FF4AC100F04BC101F07BDD4CC179
:1005DE00E1FF4DC1E2FF9FC2E6FF4AC100F04BC1F1
:0805EE0001F070DD80801200B5
:1005F600020E0201AC6F9FC2ADF2A0C2AEF272DD76
:1006060080904CC1E1FF4DC1E2FF7A0EE66E4AC111
:1006160000F04BC101F05ADD0201A351A41117E00D
:100626004CC1E1FF4DC1E2FFA1C2E9FFA2C2EAFF50
:10063600EECFE6FF4AC100F04BC101F047DD0201F3
:10064600A14BA22B010EA35F000EA45BE5D7808011
:02065600120090
:1006580080904CC1E1FF4DC1E2FF7A0EE66E4AC1BF
:1006680000F04BC101F031DDA1C200F0A2C201F0DF
:10067800010E0201A15F000EA25B0050011013E001
:100688004CC1E1FF4DC1E2FF9FC2E9FFA0C2EAFFF2
:10069800EECFE6FF4AC100F04BC101F016DD0201C2
:0A06A8009F4BA02BE1D780801200C9
:1006B200086A080E0C6E003408360450085ED8B082
:0E06C20002D00826D89000360C2EF5D7120074
:1006D000A1C204F0A2C205F09FC202F0A0C203F0C2
:1006E000A3C200F0A4C201F0010E0201A35F000E3C
:1006F000A45B005001100FE004C0E9FF05C0EAFF51
:1007000002C0E1FF03C0E2FFEECFE6FF024A032A88
:10071000044A052AE5D79FC200F0A0C201F01200EA
:1007200091C2E9FF92C2EAFFEE50000A14E0930E74
:10073000E16E010EE26E01017651E126D8B0E22AA7
:1007400091C2E9FF92C2EAFFEECFE6FF762B0201EB
:08075000914B922BE5D712003A
:10075800050E0C6E090E0D6E0D2EFED70C2EFCD755
:0207680012007D
:10076A0080904CC1E1FF4DC1E2FF7A0EE66E4AC1AC
:10077A0000F04BC101F0A8DC94C200F095C201F070
:10078A00010E0201945F000E955B005001101BE000
:10079A004CC1E1FF4DC1E2FF91C2F6FF92C2F7FFE1
:1007AA0093C2F8FF0900F5CF00F000C0E6FF4AC186
:1007BA0000F04BC101F088DC010E02019127000E06
:0A07CA0092239323D9D780801200F8
:1007D400AF0E02019F6F190EA06F91C2A1F292C2D7
:1007E400A2F2060EA36F000EA46F03DFFD0E9F6F2F
:1007F400000EA06F060EA16F000EA26F2BDF000E7D
:100804009F6F080EA06FD1DE1C0E020199259C6F0C
:10081400000E9A219D6F000E9F6F450EA06FC5DEDE
:100824009CC29FF29DC2A0F2C0DE3DC29FF23EC2B6
:10083400A0F2BBDE02013D4B3E2B9F6BA06BB5DEED
:10084400110E02019F6F800EA06FAFDE02019F6B3D
:10085400A06BABDE4E0E02019F6F010EA06F040E63
:10086400A16F000EA26FF6DE93C29FF294C2A0F2B3
:10087400040EA16F000EA26FEDDE080E99259C6F89
:10088400000E9A219D6F95C29FF296C2A0F28DDE52
:1008940097C29FF298C2A0F288DE9CC29FF29DC2CA
:1008A400A0F283DE02019F6BA06B7FDEBD0E02010E
:1008B4009F6F190EA06F140EA16F000EA26F4DDE74
:1008C400160E0201A96FCADC00C09EF2170E0201C7
:1008D400A96FC4DC00C0A1F2C70E02019F6F190EFC
:1008E400A06F9EC2A2F22EDE010E02019C159B6F28
:1008F400D90E9925A96F190E9A21AA6FAB6B1BDC2F
:10090400C90E02019F6F190EA06FD10EA16F190EAF
:10091400A26FD90E9925A36F190E9A21A46F9B512A
:10092400A327000EA423A56B86DDD90E99259F6FFE
:10093400190E9A21A06F9B519F27000EA023080E29
:100944009F27000EA023A16B110EA26FFBDD9DC299
:10095400A9F231DC9CC2A9F22EDCD10E02019F6FF8
:10096400190EA06F0C0E9C25A16F000E9D21A26F85
:100974009B51A127000EA223F0DD160E0201A96FE0
:100984006DDC00C09EF2170E0201A96F67DC00C087
:10099400A1F2D70E02019F6F190EA06F9EC2A2F2A0
:1009A400D1DD2A0E020199259F6F000E9A21A06FB6
:0409B4006DDC1200E4
:1009B8000201946B030E945D0AE294519225E16E54
:1009C800000E9321E26E200EE66E942BF3D794511D
:1009D8009225E16E000E9321E26EE66A9407945127
:1009E8009225956F000E9321966F0A0E046E91C2A0
:1009F80000F05BDE08C000F0300E002695C2E1FF73
:100A080096C2E2FF00C0E6FF0A0E046E91C200F033
:100A18004CDE00C091F20050000A01E102D09407B8
:040A2800DED7120003
:100A2C0080904CC1E1FF4DC1E2FF3A0EE66E4AC127
:100A3C0000F04BC101F069EC00F04CC1E1FF4DC17D
:100A4C00E2FFE66A4AC100F04BC101F069EC00F02C
:040A5C008080120084
:100A600091C29FF292C2A0F24E0E0201A16F010E3E
:100A7000A26F040EA36F000EA46F2ADE936B935136
:100A8000030821E393519125026E000E9221036E1B
:100A900002C0E9FF03C0EAFFEECF01F03E0EE96EAF
:100AA000010EEA6E9351E926D8B0EA2AFF0EEE183D
:100AB000006E0150001202C0E1FF03C0E2FF00C05F
:080AC000E6FF932BDCD71200C6
:100AC80002019451FF0A02E1FF0E931907E0AC6B93
:100AD80093C2ADF294C2AEF275EC00F080904CC1B6
:100AE800E1FF4DC1E2FF3A0EE66E4AC100F04BC18C
:100AF80001F069EC00F095C200F096C201F0010E19
:100B08000201955F000E965B0050011015E04CC184
:100B1800E1FF4DC1E2FFE66A4AC100F04BC101F0B6
:100B280069EC00F091C2E1FF92C2E2FF00C0E6FF6B
:0C0B38000201914B922BDFD7808012004D
:100B440095C201F096C202F0010E0201955F000EFB
:100B5400965B000E021802E1000E01181FE091C21C
:100B6400E9FF92C2EAFF93C2D9FF94C2DAFFEE50C2
:100B7400DE180FE091C2E9FF92C2EAFF93C2D9FFE7
:100B840094C2DAFFDE50EE5C006E016A000E015A78
:100B940007D0914B922B934B942BD2D7006A016AC6
:020BA40012003D
:100BA6003E0E02019F6F010EA06F89C2A1F28AC29A
:100BB600A2F2040EA36F000EA46F87DD420E9F6F94
:100BC600010EA06F8BC2A1F28CC2A2F2040EA36F1B
:100BD600000EA46F7ADD460E9F6F010EA06F8DC2C8
:100BE600A1F28EC2A2F2040EA36F000EA46F6DDDF9
:0C0BF600570E916F010E926F30DF12005D
:100C02000201896BC80E895D04E2A5DDA4DD892B92
:040C1200F9D71200FC
:100C16008090400E02018911006E4CC1E1FF4DC16A
:100C2600E2FF00C0E6FF4AC100F04BC101F069ECEB
:100C360000F04CC1E1FF4DC1E2FF8AC2E6FF4AC1A6
:0E0C460000F04BC101F069EC00F0808012005C
:100C540002018D6B8E6B0101766B02018D6B100EA0
:100C64008D5D54E27F0EE96E010EEA6E8D51E92628
:100C7400D8B0EA2AEE50010A47E1450E916F000E02
:100C8400926F4CDD8DC291F2890E926F020E936FBA
:100C940091DE890E916F020E926F40DD430E916FCB
:100CA400000E926F3BDD5D0EE96E010EEA6E8D5112
:100CB400E926D8B0EA2AEECF01F001C08EF201BED7
:100CC40006D0670E916F000E926F28DD1DD08EAD99
:100CD4000ED08EA906D04F0E916F000E926F1EDDBE
:100CE40005D06D0E916F000E926F18DD0DD08EAB96
:100CF40006D0910E916F000E926F10DD05D08A0E12
:100D0400916F000E926F0ADD8D2BA9D7930EE16EC1
:100D1400010EE26E01017651E126D8B0E22AE66ABC
:040D2400762B120018
:100D280002018B6B3C0E0101536F000E546F556F1F
:100D3800566F78DE00C089F20050020AD8A419D193
:100D480002018A6B0F0E8A5D04E26CDE02018A2BB7
:100D5800F9D73A0E916F010E926FFF0E936FFF0E47
:100D6800946F040E956F000E966FAADE8A6B080EBC
:100D78008A5D04E257DE02018A2BF9D78A6B060ED8
:100D88008A5D12E24FDE00C089F2FD0ED96E000EB8
:100D9800DA6E02018A51D926D8B0DA2A0050DE1854
:100DA80001E011D18A2BEBD78A6BCE0E8A5D04E263
:100DB80039DE02018A2BF9D78C6B34DE00C089F248
:100DC800B9D030DE00C089F20050010A04E12ADE01
:100DD80000C08BF201D0F7D0C8D024DE00C089F261
:100DE8000050040A0FE1030E0201916F010E926F89
:100DF800FF0E936FFF0E946F040E956F000E966FA3
:100E08005FDE01D0E0D0B1D00DDE00C089F2040E63
:100E1800005C0FE3070E0201916F010E926FFF0E47
:100E2800936FFF0E946F040E956F000E966F48DE59
:100E380001D0C9D00201040E895F020189C200F005
:100E48008907005202E0EEDDF8D78FD0EBDD00C055
:100E580089F2040E005C0FE3F40E0201916F000E9C
:100E6800926FFF0E936FFF0E946F040E956F000E36
:100E7800966F26DE01D0A7D00201040E895F020119
:100E880089C200F08907005202E0CCDDF8D76DD0A6
:100E9800C9DD00C089F20050040A0FE18D0E02017D
:100EA800916F020E926FFF0E936FFF0E946F040EF8
:100EB800956F000E966F04DE01D085D056D00201E2
:100EC800010E8C6F52D0AEDD00C089F20050040ACA
:100ED80023E1530E0201916F010E926FFF0E936F83
:100EE800FF0E946F040E956F000E966FE9DD0101F9
:100EF8005651000808E15551000805E1545107080A
:100F080002E15351080807E2080E535F070E545BCD
:100F1800000E555B565B01D056D027D083DD00C04C
:100F280089F289C200F002018907005202E07ADDE5
:100F3800F8D71BD002018951350AD8B442D7895154
:100F4800010AD8B44AD78951030AD8B45DD7895160
:100F5800060AD8B47BD78951360A9AE08951FF0A24
:100F6800AEE08951330AAFE0D9D702018C53D8B427
:100F780024D702018B51020A0FE1F80E9F6F000E71
:100F8800A06F8D0EA16F020EA26F040EA36F000E4C
:100F9800A46F68EC03F014D0F80E916F000E926FF6
:100FA8008D0E936F020E946F040E956F000E966F60
:100FB800C5DD000E011802E1000E001801E08B6B80
:0A0FC8008BC200F001D0006A120095
:100FD200F90E02018C6F000E8D6F020EAC6FD90EEE
:100FE200AD6F190EAE6F75EC00F09D0E0201916FA0
:100FF2002D0E926F000E936F0C0E946F000E956F74
:10100200B5EC03F08951030A0DE18A530BE03A0E65
:101012009F6F010EA06F040EA16F000EA26F2CEC49
:1010220003F00AD08B6B040E8B5D06E2A96BDDEC3C
:1010320000F002018B2BF7D78B6B0C0E8B5D06E257
:10104200A96BDDEC00F002018B2BF7D7FD0E9F6F31
:10105200000EA06F060EA16F000EA26F2CEC03F023
:101062008B6BCA0E8B5D06E2A96BDDEC00F0020110
:101072008B2BF7D7B50E916F2D0E926F000E936FDB
:10108200060E946F000E956FB5EC03F089C2A9F2BB
:10109200DDEC00F002018951030A1AE18A5318E1DA
:1010A200360EA96FDDEC00F0040E0201A96FDDEC33
:1010B20000F0F80E02019F6F000EA06F040EA16FE8
:1010C200000EA26F2CEC03F0060E8C27000E8D236F
:1010D200BB0E916F2D0E926F000E936F050E946FE3
:1010E200000E956FB5EC03F08951030A23E18A5390
:1010F20021E1320EA96FDDEC00F0040E0201A96FAE
:10110200DDEC00F002018B6B040E8B5D0FE23A0EF8
:10111200E96E010EEA6E8B51E926D8B0EA2AEECFCB
:10112200A9F2DDEC00F002018B2BEED7060E8C2724
:10113200000E8D23FF0EA96FDDEC00F0390E0201C7
:10114200916F000E926F390E936F000E946F440EE2
:10115200956F000E966F430E976F000E986F8CC2BC
:0C11620099F28DC29AF2EAEC03F0120040
:10116E0002018B6B8C6B89C2E9FF8AC2EAFFEE52D9
:10117E000EE089C2E9FF8AC2EAFFEECFA9F2DDECEA
:10118E0000F00201894B8A2B8B4B8C2BECD78BC238
:08119E0000F08CC201F0120008
:1011A60002018C6B8D6B89C2F6FF8AC2F7FF8BC278
:1011B600F8FF0900F5CF00F0005214E089C2F6FFEF
:1011C6008AC2F7FF8BC2F8FF0900F5CFA9F2DDEC62
:1011D60000F0010E02018927000E8A238B238C4B17
:0E11E6008D2BE1D78CC200F08DC201F01200FB
:1011F40089C202F08AC203F08CC200F08DC201F0F1
:10120400010E02018C5F000E8D5B0050011009E09D
:1012140002C0E1FF03C0E2FF8BC2E6FF024A032AD9
:0C122400EBD789C200F08AC201F0120072
:10123000B50E02019F6F190EA06FBB0EA16F190EA4
:10124000A26FAF0EA36F190EA46FA56B1DEC02F079
:10125000B50E9F6F190EA06FFD0EA16F000EA26F4D
:0E126000060EA36F000EA46FFBEC02F012004E
:10126E000B6A0A6A096A00500402F4CF09F0F3CF40
:10127E0008F001500502F4CF0BF0F3CF0AF0005046
:10128E000502F3500926F4500A22E86A0B22015097
:10129E000402F3500926F4500A22E86A0B2208C011
:1012AE0000F009C001F00AC002F00BC003F01200FA
:1012BE000201A96B30EC01F000C07EF2010E0201BA
:1012CE00A96F30EC01F000C07FF20201AC6B79C265
:1012DE00ADF27AC2AEF275EC00F080904CC1E1FF37
:1012EE004DC1E2FF3A0EE66E4AC100F04BC101F06D
:1012FE0069EC00F002017D5318E04CC1E1FF4DC1D5
:10130E00E2FFE66A4AC100F04BC101F069EC00F061
:10131E007BC2D9FF7CC2DAFF0050DE1801E005D097
:10132E0002017B4B7C2B7D07E5D702018080AC6BE5
:10133E007EC2ADF27FC2AEF275EC00F07DC200F05F
:02134E0012008B
:101350001F0E0201A96F010EAA6FF6EC00F01F0E1E
:101360000201A96F020EAA6F13EC01F0140E020124
:10137000896F79C28AF24FDC44DC160E896F7BC21A
:101380008AF249DC3EDC170E896F7AC28AF243DCAE
:0413900038DC120033
:101394001F0E0201A96F010EAA6FF6EC00F01F0EDA
:1013A4000201A96F020EAA6F13EC01F0140E0201E0
:1013B400896F79C28AF22DDC120E0201A96F010E27
:1013C400AA6F13EC01F01BDC120EA96F010EAA6FB9
:1013D400F6EC00F0160E0201A96F30EC01F07CC2AD
:1013E400E1FF7DC2E2FF00C0E6FF170E0201A96F14
:1013F40030EC01F07AC2E1FF7BC2E2FF00C0E6FFFD
:021404001200D4
:101406000201856B866B000E7E1902E1500E7D1976
:1014160003E0006A016A12008088836B846B000E09
:10142600845D02E10F0E835D12E2290E8325876F2C
:10143600020E8421886F16EC05F087C2E1FF88C290
:10144600E2FF00C0E6FF0201834B842BE8D7290E9A
:101456008325E16E020E8421E26EE66A290E916F03
:10146600020E926F9C0E936F000E946F050E956F91
:10147600000E966FA2EC05F00050011003E0006A22
:10148600016A12002E51720A0AE1010E0101926FE1
:101496002FC291F130C290F131C28FF128D00201F2
:1014A6002E51620A07E10001D3852FC289F030C2AE
:1014B60088F01DD002012E51700A0FE10001D38180
:1014C6002FC228F030C229F031C225F032C226F0F0
:1014D60033C227F034C22BF00AD002012E51630A20
:1014E60006E10001D3832FC22CF030C22AF0000E91
:1014F6000201861902E1000E851949E12AEC06F07F
:101506007E0E0201896F2D0E8A6F000E8B6F48DEEC
:1015160000C085F201C086F2A90E896F2D0E8A6F72
:10152600000E8B6F3DDE0050852701508623930EFB
:10153600896F010E8A6F18DE0050852701508623B9
:10154600836B846B000E845D02E1100E835D1FE2E7
:101556007F0E8325E16E010E8421E26EE66AD40ECB
:101566008325E16E000E8421E26EE66AE40E832591
:10157600E16E000E8421E26EE66AC30E8325E16EFB
:10158600000E8421E26EE66A834B842BDBD785C28C
:0815960000F086C201F0120012
:10159E00C90E02019F6F190EA06FCD0EA16F190E0D
:1015AE00A26FCD0EA36F190EA46FA56B1DEC02F0EA
:1015BE00C90E9F6F190EA06F4E0EA16F010EA26F76
:0E15CE00040EA36F000EA46FFBEC02F01200DF
:0615DC00006A016A120022
:1015E200AFD04E0E0201896F010E8A6F8B6B040E13
:1015F2008C6F000E8D6FFDDD010E896F8A6BE8DC4A
:101602002DC0BBF02EC0BCF02FC0BDF030C0BEF06C
:10161200030E406EA6D0050E0001BB25016E000E22
:10162200BC21026E000EBD21036E000EBE21046EAF
:101632003050045C08E12F50035C05E12E50025C3F
:1016420002E12D50015C02E2020E406E94EC06F0C3
:101652000050020A03E1040E406E01D082D0030E54
:101662000201896F1AC08AF2B3DC2DC0BBF02EC012
:10167200BCF02FC0BDF030C0BEF0050E406E71D080
:1016820094EC06F000C079F20050060A03E1040E61
:10169200406E2CD002017951050A28E12DC0BBF021
:1016A2002EC0BCF02FC0BDF030C0BEF0060E406EA2
:1016B2004E0E9F6F010EA06F3A0EA16F010EA26F28
:1016C200040EA36F000EA46F68EC03F0030E896F83
:1016D200010E8A6F070E8B6F010E8C6FF40E8D6FE9
:1016E200000E8E6FD3EC05F01A6A3BD03AD0010E91
:1016F2000001BB25016E000EBC21026E000EBD2151
:10170200036E000EBE21046E0450305C08E10350EB
:101712002F5C05E102502E5C02E101502D5C0FE3CB
:10172200010E0101535F000E545B555B565B2DC0E9
:10173200BBF02EC0BCF02FC0BDF030C0BEF011D047
:101742004050020AD8B44DD74050030AD8B463D7E8
:101752004050040A84E04050050A92E04050060AD4
:04176200C6E01200CB
:1017660002017A51190802E17951AD0804E2AE0E80
:10177600795F190E7A5BAC6B79C2ADF27AC2AEF2C2
:0617860075EC00F01200FA
:10178C0016EC05F016EC05F016EC05F000C07AF23C
:10179C0016EC05F000C079F216EC05F000C07CF2F6
:1017AC0016EC05F000C07BF216EC05F000C07EF2E2
:1017BC0016EC05F000C07DF216EC05F016EC05F009
:1017CC0016EC05F016EC05F07BC200F07CC201F0C3
:1017DC00010E02017B5F000E7C5B005001100EE0DD
:1017EC0016EC05F0005201E0FBD716EC05F016ECF8
:1017FC0005F016EC05F016EC05F0E6D77DC200F00E
:10180C007EC201F0010E02017D5F000E7E5B005076
:10181C00011048E016EC05F016EC05F016EC05F09E
:10182C0000C082F216EC05F000C081F216EC05F057
:10183C0016EC05F016EC05F016EC05F016EC05F0C0
:10184C0016EC05F016EC05F000C080F216EC05F075
:10185C0000C07FF2000E0201821902E1010E811913
:10186C0011E116EC05F000C0B7F016EC05F000C065
:10187C00B8F016EC05F000C0B9F016EC05F000C09D
:10188C00BAF010D07FC200F080C201F0010E02014C
:10189C007F5F000E805B0050011003E016EC05F03A
:0618AC00F1D7ACD71200D9
:1018B20050C2A9F251C2AAF2BEEC00F000C060F21E
:1018C20016EC05F000C05FF216EC05F000C05EF207
:1018D20016EC05F000C05DF20201656B6A6B010E49
:1018E2006B6F686B696B0C0E5025A96F000E51214E
:1018F200AA6FBEEC00F000C063F2000E0201646F3A
:101902006333639F6333639F000E646FFC0E631740
:10191200FF0E6417740E916F020E926FC90E936FD1
:10192200190E946F040E956F000E966F64EC05F01D
:101932000D0E5025A96F000E5121AA6FBEEC00F0CA
:101942003F0E00140201616F626B000E6217000EFF
:10195200626F0E0E01015B5D0201666F000E0101F6
:101962005C590201676F4E51665F4F51675B63516D
:10197200665F6451675B020E5025A96F000E51210C
:10198200AA6FBEEC00F000C0ABF250C2A9F251C285
:10199200AAF29DEC00F0030E02015025A96F000E81
:1019A2005121AA6FBEEC00F000C0A9F2DDEC00F0FC
:1019B2005FC29FF260C2A0F2D7EC02F0040E0201F5
:1019C2005025A96F000E5121AA6FBEEC00F000C095
:1019D2006FF216EC05F000C06EF216EC05F000C0D6
:1019E2006DF216EC05F000C06CF216EC05F000C0CA
:1019F20073F216EC05F000C072F216EC05F000C0AE
:101A020071F216EC05F000C070F2000E02016219CC
:101A120002E1020E61193CE1010E6C25006E000E1E
:101A22006D21016E000E6E21026E000E6F21036E9B
:101A320000C070F201C071F202C072F203C073F210
:101A4200120E616F000E626F0C0EA96F30EC01F086
:101A520000C06CF20D0E0201A96F30EC01F000C063
:101A62006DF20201A96B30EC01F000C06EF2010EC2
:101A72000201A96F30EC01F000C06FF20201652B88
:101A8200180E636F000E646F686B696B426A6ED0EA
:101A9200000E621902E1180E61192FE16CC252F2B6
:101AA2006DC253F26EC254F26FC255F270C26CF242
:101AB20071C26DF272C26EF273C26FF2665152253A
:101AC200006E67515321016E000E5421026E000E0A
:101AD2005521036E00C070F201C071F202C072F2B1
:101AE20003C073F2100E616F000E626F652B140E4D
:101AF200636F000E646F6A2B39D0000E621902E127
:101B0200110E611933E16CC256F26DC257F26EC208
:101B120058F26FC259F270C26CF271C26DF272C2A7
:101B22006EF273C26FF2010E5625006E000E57213F
:101B3200016E000E5821026E000E5921036E00C084
:101B420070F201C071F202C072F203C073F2100EA1
:101B5200616F000E626F652B140E636F000E646F6F
:101B6200686B696B415202E1422A416A6553D8B4FB
:101B7200CED10201040E50259F6F000E5121A06F9D
:101B82006FC2A1F26EC2A2F2A4EC02F06DC2A9F27F
:101B9200DDEC00F06CC2A9F2DDEC00F073C2A9F238
:101BA200DDEC00F072C2A9F2DDEC00F071C2A9F224
:101BB200DDEC00F070C2A9F2DDEC00F00C0E0201C7
:101BC2005025A96F000E5121AA6FBEEC00F00F0E36
:101BD20000140201AB6F63C200F0003600900036C1
:101BE20000900050AB130C0E5025A96F000E51212E
:101BF200AA6F9DEC00F00D0E02015025A96F000E98
:101C02005121AA6FBEEC00F0C00E00140201AB6FAE
:101C12006151AB130D0E5025A96F000E5121AA6F11
:101C22009DEC00F0000E0201621902E1120E611930
:101C320023E10E0E50259F6F000E5121A06F050E5D
:101C4200A16FEE0EA26FA4EC02F0140E0201502559
:101C52009F6F000E5121A06F020EA16F040EA26FA2
:101C6200A4EC02F0050E0201A96FDDEC00F0780E83
:101C72000201A96FDDEC00F002014E516825666F8A
:101C82004F516921676F63516627645167236B5314
:101C920003E018EC09F082DCBF0E9F6F190EA06FF3
:101CA20067C2A1F266C2A2F2A4EC02F0C70E020160
:101CB2009F6F190EA06FA16BA26BA4EC02F0BD0E78
:101CC20002019F6F190EA06F4EC2A1F24FC2A2F283
:101CD200AFEC02F0160E0201A96F30EC01F000C069
:101CE20078F2170E0201A96F30EC01F000C0A1F2E8
:101CF200C70E02019F6F190EA06F78C2A2F2A4EC68
:101D020002F0BD0E020166255B6F190E67215C6F42
:101D1200100E50259F6F000E5121A06FA16BA26B78
:101D2200A4EC02F0010E020166155A6F5BC2A9F221
:101D32005CC2AAF2AB6B9DEC00F0C90E02019F6F70
:101D4200190EA06FD10EA16F190EA26F5A515B2509
:101D5200A36F000E5C21A46FA56B1DEC02F0080EB0
:101D62005B259F6F000E5C21A06F5A519F27000ECA
:101D7200A023A16B060EA26FA4EC02F00A0E0201D0
:101D82005B259F6F000E5C21A06F5A519F27000EAA
:101D9200A02368516325036E69516421046E04C057
:101DA20000F0016A00C0A1F203C0A2F2A4EC02F0AA
:101DB20050C29FF251C2A0F2020168516325A16F85
:101DC20069516421A26F0C0EA127000EA2235A5161
:101DD200A127000EA223AFEC02F0160E0201A96F9A
:101DE20030EC01F000C078F2170E0201A96F30EC5E
:101DF20001F000C0A1F2100E020150259F6F000EEB
:101E02005121A06F78C2A2F2A4EC02F00E0E0201E0
:101E120066259F6F000E6721A06F48EC01F002015A
:101E22006A534FE0100E616F000E626F6A6B6B6B4C
:101E3200020EAC6F63515025AD6F64515121AE6FEC
:101E420075EC00F00E0E02014C25796F000E4D214B
:101E52007A6F4E5179274F517A2363517927645112
:101E62007A2380DC422A740E0201796F020E7A6FA5
:101E72005FC27BF260C27CF25DC27DF25EC27EF224
:101E82000E0E01015B5D02017F6F000E01015C59C4
:101E92000201806F4E517F5F4F51805B63517F5FC4
:101EA2006451805B520E816F010E826F03EC0AF067
:101EB20000C068F201C069F2010152B101D0426A68
:101EC20058D6425224E0020168516C25006E6951D5
:101ED2006D21016E000E6E21026E000E6F21036EE7
:101EE20000C06CF201C06DF202C06EF203C06FF26C
:101EF200110E616F000E626F426A6B6B140E636F9C
:101F0200000E646F686B696B010E416E32D612006F
:101F12000201896B4C5303E00D0E006E02D0050ED8
:101F2200006E00C08AF20BEC06F0020E0201896F0D
:101F32004C5303E0310E006E02D0300E006E00C032
:101F42008AF20BEC06F00A0E0201AC6FEE0EAD6FD8
:101F5200050EAE6F75EC00F0040E0201896F4C5352
:101F620003E0150E006E02D0120E006E00C08AF25F
:101F72000BEC06F0060E0201896F120E8A6F0BEC53
:101F820006F002014C5306E1070E896F0C0E8A6FB0
:101F92000BEC06F002014C5306E1090E896F3F0E6D
:101FA2008A6F0BEC06F01F0E0201A96F010EAA6FD9
:101FB20013EC01F01F0E0201A96F020EAA6F13ECBF
:101FC20001F0040E0201896FFDC08AF20BEC06F0EB
:101FD200050E0201896FFEC08AF20BEC06F0020EBA
:101FE2000201896FFFC08AF20BEC06F0030E0201B8
:101FF200896F00C18AF20BEC06F00201896B01C104
:102002008AF20BEC06F0010E0201896F02C18AF21C
:102012000BEC06F0150E0201896F8A6B0BEC06F0D1
:10202200120E0201A96F30EC01F000C0FCF00201B7
:10203200796B4D0E7A6F020E7B6F4E0E7C6F020E25
:102042007D6FCAEC09F00201796BFE0E4D157A6FB5
:102052004C5303E0010E006E01D0006A00507A1367
:102062004EC27BF2A8EC09F0100E796F010E7A6F66
:102072007B6BA8EC09F01F0EA96F040EAA6F13EC7C
:1020820001F001EC06F00D0E896F010E8A6F8B6B69
:102092002D0E8C6F000E8D6FFAEC08F01F0EA96FDB
:1020A200010EAA6FF6EC00F01F0E0201A96F020EDC
:0820B200AA6FF6EC00F0120029
:1020BA004FC2A9F250C2AAF2BEEC00F000C05AF216
:1020CA0016EC05F000C059F216EC05F000C058F203
:1020DA0016EC05F000C057F2000E0201581902E191
:1020EA00000E571901E18AD016EC05F000C05CF227
:1020FA0016EC05F000C05BF25D0E0201916F020E54
:10210A00926FC90E936F190E946F040E956F000E9D
:10211A00966F64EC05F0020EAC6F080E4F25AD6F9A
:10212A00000E5021AE6F75EC00F00E0E02014C2528
:10213A00796F000E4D217A6F4E517927000E7A235E
:10214A00080E7927000E7A23B3EC0BF0000E020179
:10215A005A1902E1350E591903E1C6EC0BF04ED0BB
:10216A00000E0201581902E1440E571903E1F1EC7D
:10217A000AF044D05D0E0201796F020E7A6F59C2DD
:10218A007BF25AC27CF257C27DF258C27EF2080E26
:10219A005B5D7F6F000E5C59806F520E816F010E7E
:1021AA00826FEEEC0AF000C05BF201C05CF20050F4
:1021BA00011024E0510E916F020E926FB50E936FCB
:1021CA00190E946F060E956F000E966F64EC05F06B
:1021DA00510E916F020E926F5D0E936F020E946F05
:1021EA0057C295F258C296F259C297F25AC298F259
:0E21FA005BC299F25CC29AF2EAEC03F01200AA
:10220800C40E0201A96F190EAA6FBEEC00F000C03F
:102218004CF2E8D0D50E0201796F190E7A6F4E0E86
:102228007B6F010E7C6F040E7D6F5FEC09F0005030
:10223800000A4BE1C40E0201A96F190EAA6F020E23
:10224800AB6F9DEC00F018EC09F0CB0E9F6F190EE8
:10225800A06FCF0EA16F190EA26FD50EA36F190E26
:10226800A46FA56B1DEC02F0CB0E9F6F190EA06F2B
:102278004E0EA16F010EA26F040EA36F000EA46F85
:10228800FBEC02F0C50E9F6F190EA06FCB0EA16F6D
:10229800190EA26FCF0EA36F190EA46FA56B1DECBC
:1022A80002F0C50E9F6F190EA06FFD0EA16F000EF4
:1022B800A26F060EA36F000EA46FFBEC02F03C0E9B
:1022C8009F6F000EA06F48EC01F095D0AF0E020191
:1022D800796F190E7A6FFD0E7B6F000E7C6F060EFC
:1022E8007D6F5FEC09F00050000A7BE1CB0E020124
:1022F800796F190E7A6F0BC17BF20CC17CF2040E58
:102308007D6F5FEC09F00050000A6BE10F0E006E64
:10231800000E016E3FC004F0000E056E37EC09F0A8
:102328000D0E00240201916F010E0120926F090E1B
:102338009127000E9223C50E936F190E946F060E07
:10234800956F000E966F64EC05F00F0E006E000E90
:10235800016E3FC004F0000E056E37EC09F00D0E5B
:1023680000249F6F010E0120A06F050E9F27000E0D
:10237800A0230BC1A1F20CC1A2F2040EA36F000EA0
:10238800A46F68EC03F00F0E006E000E016E3FC0E4
:1023980004F0000E056E37EC09F00D0E0024E16E16
:1023A800010E0120E26E010EE66E0F0E006E000EA9
:1023B800016E3FC004F0000E056E37EC09F00D0EFB
:1023C8000026010E0122010E0024E16E000E0120FC
:1023D800E26E2DC0E6FF2EC0E6FF2FC0E6FF30C03C
:1023E800E6FF09D002014C51010AD8B413D74C5169
:0823F800020AD8B46BD71200F1
:10240000929280829290808001EC06F0808201ECB2
:1024100006F0809201EC06F0808201EC06F08090DC
:102420004CC1E1FF4DC1E2FFFF0EE66E4AC100F074
:102430004BC101F069EC00F0808001EC06F0FD0E6C
:102440009F6F000EA06F40C2A1F241C2A2F2060E21
:10245000A36F000EA46F68EC03F04E0E9F6F010E89
:10246000A06F42C2A1F243C2A2F2040EA36F000EFB
:10247000A46F68EC03F01F0EA96F010EAA6FF6ECB3
:1024800000F01F0E0201A96F020EAA6FF6EC00F019
:10249000080E0201AC6FAD6BAE6B75EC00F00A0E6E
:1024A0000201AC6FAD0EAD6F190EAE6F75EC00F0A2
:1024B0000C0E0201AC6FAD0EAD6F190EAE6F75EC68
:1024C00000F00201AC6BAD6BAE6B75EC00F0040E6E
:1024D0000201AC6FAE0EAD6F190EAE6F75EC00F071
:1024E0001F0E0201A96F010EAA6FF6EC00F01F0E7D
:1024F0000201A96F020EAA6F13EC01F044C24CF264
:0425000008DD1200E0
:10250400FF0E0101726FFF0E736FFF0E746FFF0EEB
:10251400756FFF0E6E6FFF0E6F6F000E706F000E03
:10252400716FFF0E7B6FFF0E7C6F000E7D6F000ED0
:102534007E6FFF0E776FFF0E786F000E796F000EBF
:102544007A6FAC8A900EAB6E948E949C9EAA03D044
:08255400AECF00F0FBD712002E
:10255C00C00E01014A6F000E4B6FAF0E4C6F020E96
:10256C004D6FFF0E0001BF6FFF0EC06FFF0EC16FEE
:10257C00FF0EC26F949A02014051040A02E1948644
:10258C0001D094969488C66A4051C6124251C61224
:10259C004151C712425305E04351000A01E1C78C77
:0C25AC0003D0435301E0C78CC68A120024
:1025B8000201496B0101528152931F0E0201A96F5A
:1025C800010EAA6FF6EC00F01F0E0201A96F020EB1
:1025D800AA6FF6EC00F00201AC6B4DC0ADF24EC034
:1025E800AEF275EC00F080904CC1E1FF4DC1E2FF06
:1025F8003A0EE66E4AC100F04BC101F069EC00F0FA
:102608004CC1E1FF4DC1E2FFE66A4AC100F04BC18F
:1026180001F069EC00F000C04DF04CC1E1FF4DC184
:10262800E2FFE66A4AC100F04BC101F069EC00F034
:1026380000C04EF04CC1E1FF4DC1E2FFE66A4AC15D
:1026480000F04BC101F069EC00F000C05BF14CC137
:10265800E1FF4DC1E2FFE66A4AC100F04BC101F05B
:1026680069EC00F000C05CF14CC1E1FF4DC1E2FF34
:10267800E66A4AC100F04BC101F069EC00F000C005
:1026880047F24CC1E1FF4DC1E2FFE66A4AC100F0E2
:102698004BC101F069EC00F000C048F28080040EE4
:1026A80001015B5F000E5C5B4E50190802E14D5062
:1026B800AD0810E34DB00ED0020148BF0BD00101A8
:1026C8005C51050802E15B51EE0804E3020147AFE3
:1026D80001D003D0010E006ED1D10201A96B30ECFC
:1026E80001F000C045F2010E0201A96F30EC01F0C3
:1026F80000C046F245C29FF246C2A0F201015B51FA
:1027080002014525A16F01015C5102014621A26F1A
:10271800AF0EA36F190EA46F010EA56F1DEC02F08A
:10272800BB0EA96F190EAA6FBEEC00F000C048F2EC
:1027380016EC05F000C047F202014851080A02E110
:10274800060E471911E1BD0E796F190E7A6F310E19
:102758007B6F000E7C6F070E7D6F5FEC09F00050F9
:10276800000A01E14DDD60D102014851080A02E189
:10277800000E4719D8A455D1CD0E796F190E7A6F6E
:10278800570E7B6F010E7C6F040E7D6F5FEC09F0B6
:10279800005202E101015283CD0E0201796F190E38
:1027A8007A6F390E7B6F000E7C6F040E7D6F5FECC5
:1027B80009F0005202E101015283CD0E0201796F46
:1027C800190E7A6F4E0E7B6F010E7C6F040E7D6FB3
:1027D8005FEC09F0005207E0010152B304D0020E89
:1027E8000201496F1DD10201BD0EA96F190EAA6F12
:1027F800BEEC00F0F00E0014016E0150400A04E037
:10280800030E0201496F0CD10201BD0EA96F190E0A
:10281800AA6FBEEC00F000C043F2000E0201446F44
:102828000F0E4317000E441743374391443743377D
:1028380043914437C30EA96F190EAA6FBEEC00F07E
:10284800BF0E0014016E0150000AD8A4E9D0C40ECE
:102858000201A96F190EAA6FBEEC00F00050000A21
:10286800D8A4DED0BD0E02014325416F190E4421C4
:10287800426FC60EA96F190EAA6FBEEC00F000C019
:1028880040F20050010AD8A48CD041C2A9F242C239
:10289800AAF2BEEC00F00050080AD8A481D0010EBC
:1028A80002014125A96F000E4221AA6FBEEC00F07B
:1028B8000050000A75E141C2A9F242C2AAF202011F
:1028C800AB6B9DEC00F018EC09F0CFEC0AF0C70EEA
:1028D8009F6F190EA06FA16BA26BA4EC02F0BD0E46
:1028E80002019F6F190EA06F43C2A1F244C2A2F267
:1028F800AFEC02F0160E0201A96F30EC01F000C037
:102908004AF2170E0201A96F30EC01F000C0A1F2E3
:10291800C70E02019F6F190EA06F4AC2A2F2A4EC63
:1029280002F0020E020141259F6F000E4221A06FA6
:10293800A16BA26BA4EC02F041C29FF242C2A0F2CA
:102948000201435101015B5D0201A16F4451010184
:102958005C590201A26F0E0EA15F000EA25BAFECE4
:1029680002F0160E0201A96F30EC01F000C04AF225
:10297800170E0201A96F30EC01F000C0A1F2020E9F
:10298800020141259F6F000E4221A06F4AC2A2F2A8
:10299800A4EC02F05BC19FF25CC1A0F248EC01F02C
:1029A8003FD002014051110A0DE145C24CF246C226
:1029B8004DF243C24EF241C24FF242C250F25DECB8
:1029C80010F02ED002014051060A2AE1100E4525CA
:1029D800A96F000E4621AA6FBEEC00F000C04BF2B2
:1029E80002014A6B16EC05F0005002014A2501016C
:1029F8005B6F000E02014B2101015C6F0E0E5B271D
:102A0800000E5C2345C24CF246C24DF243C24EF260
:102A180044C24FF241C250F242C251F259EC0CF09A
:102A280003D0040E0201496F02011E0EA96F400E69
:102A3800AA6F13EC01F0010E4D5C016E000E4E58AA
:102A4800026E0250190802E10150AD080AE20C0EAC
:102A58000201AC6FAD0EAD6F190EAE6F75EC00F0E4
:102A68000BD00C0E0201AC6F010E4D5CAD6F000E69
:0E2A78004E58AE6F75EC00F049C200F012002F
:102A86009E6A210E9D6EB00ECD6ECD80B50ECE6EB9
:102A9600B30ECF6E400EF26EF28E926A0F0E936EEA
:102AA600D00E946E806A816A826AC26A0F0EC16E07
:102AB600500EAF6EAC8423DDAC8AAB8EAB88020EB3
:102AC6000201406F416B426B010E436F44DD1B0EEA
:102AD600406F000E416F210E426F000E436F010ED4
:062AE600446F8BDC1200BE
:102AEC000900F5CFE6FF0006FBE10106F9E1120053
:0C2AFC003FC2ADFFACB201D0FDD712000C
:102B080002013F6B1F0EA96F010EAA6F13EC01F0B3
:102B18001F0E0201A96F020EAA6FF6EC00F0190E43
:102B28000201A96F30EC01F00050000803E240DD1B
:102B380000C03FF21F0E0201A96F010EAA6FF6EC4A
:102B480000F01F0E0201A96F020EAA6FF6EC00F04A
:062B58003FC200F0120074
:102B5E000101766B0001B46BB56B0101926B000144
:102B6E00B66B0F0EA26FA36B100EA35D2FE2A40E19
:102B7E00E16E000EE26EA351E126D8B0E22AE66ABB
:102B8E007F0EE16E010EE26EA351E126D8B0E22A6D
:102B9E00E66AD40EE16E000EE26EA351E126D8B0C5
:102BAE00E22AE66AE40EE16E000EE26EA351E12621
:102BBE00D8B0E22AE66AC30EE16E000EE26EA351B1
:0E2BCE00E126D8B0E22AE66AA32BCED7120089
:102BDC00E0EC16F052DFBDDF91DF0001B551010AC8
:102BEC00D8A481D0B56BA22BA251100A11E1A26B13
:102BFC008088B651010A04E1B66B0101926B07D0D3
:102C0C0001019251010A03E1010E0001B66F01D0DE
:102C1C0080980001D3A312D02C50A2190FE1808A06
:102C2C00C00EA21102013F6F63DF2AC03FF260DFCA
:102C3C00809A0001D393020EB46F55D0B651010A9D
:102C4C0015E1808A600EA21102013F6F51DF91C124
:102C5C003FF24EDF90C13FF24BDF8FC13FF248DFB6
:102C6C00809A0001B66B020EB46F3DD0D3A11ED07A
:102C7C002850A2191BE1808AA00EA21102013F6FFD
:102C8C0037DF29C03FF234DF25C03FF231DF26C0E9
:102C9C003FF22EDF27C03FF22BDF2BC03FF228DFA5
:102CAC00809A020E0001B46FD3911DD0D3A512D01F
:102CBC008951A2190FE1808A800EA21102013F6F87
:102CCC0017DF88C03FF214DF809A020E0001B46F48
:102CDC00D39509D0808A200EA21102013F6F08DF24
:0A2CEC00020E0001B46F78D7FFD785
:102DC00010EE1AF0880E006E010E016EF60EF66E11
:0E2DD0002C0EF76E000EF86E76EC15F0120069
:012CF60000DD
:062CF7000014A576193F50
:042CFD000A630C0159
:012D010000D1
:012D020000D0
:012D030000CF
:012D040000CE
:012D050000CD
:012D060000CC
:012D070000CB
:012D080000CA
:042D090000000000C6
:082D0D000001080006040000AB
:062D1500FFFFFFFFFFFFBE
:012D1B0000B7
:012D1C0000B6
:012D1D0000B5
:012D1E0000B4
:022D1F00200092
:082D210042617374613A200065
:022D29000000A8
:102D2B005761746572696E67284D616E75616C5F72
:082D3B004D6F6465290A0A00CE
:062D43004F46460A0A009B
:102D49005761746572696E67284175746F6D617436
:0B2D590069635F4D6F6465290A0A0082
:012D6400006E
:012D6500006D
:072D660049444C450A0A0034
:0B2D6D00414C41524D204F4E0A0A001D
:062D7800474554202F0026
:102D7E00485454502F312E3120323030204F4B0AD0
:0F2D8E00436F6E74656E742D747970653A200012
:0C2D9D00010106001223344500008000F4
:0C2DA900746578742F68746D6C0A0A0061
:062DB50063825363350147
:052DBB003703010306CF
:020000040030CA
:0D00010002191EFF8180FF07C007E00740C5
:00000001FF
