:04000000CAEF1AF039
:1000080000C017F001C016F002C015F0E1CF18F0DB
:10001800E2CF19F09DA039D09EA037D09E90020162
:10002800A651040A04E1A66B010E316F01D0A62B7C
:1000380081A00ED01B51000A0BE1140E1B6F010E9C
:100048001C6F140E1E5D02E31E6B01D01E2B04D024
:100058001B51000801E21B0781A20FD01B51000AA7
:100068000CE1140E1B6F010E1C6F1E51000A03E1F8
:10007800140E1E6F01D01E0704D01B51000801E2A8
:100088001B07B50ECE6EB30ECF6E9DAA3DD09EAAAD
:100098003BD09E9AAECF02F02CD036D0E00E0214A0
:1000A800016E0150200A15E10F0E0214016E015075
:1000B80030190DE11F0EE16E020EE26E3051E1269D
:1000C800D8B0E22A010EE66E010E336F01D0336B11
:1000D80001D0336B19D0760EE16E020EE26E30510C
:1000E800E126D8B0E22A02C0E6FF336B0DD0336BAD
:1000F8000BD002013351000AD0E03351020ACEE09E
:100108003351010AE8E0F3D717C000F016C001F038
:0E01180015C002F018C0E1FF19C0E2FF11008F
:1001260058C3C9FFC7B002D00000FCD7C9CF00F042
:020136001200B5
:10013800F250026EF29E0500FF6A0150FE6E0050FA
:08014800FD6E02BEF28E1200F2
:100150008090400E03015511006EFBC0E1FFFCC012
:10016000E2FF00C0E6FFF9C000F0FAC001F0E4DFF2
:10017000FBC0E1FFFCC0E2FF56C3E6FFF9C000F0A0
:10018000FAC001F0D9DFFBC0E1FFFCC0E2FF57C3BA
:10019000E6FFF9C000F0FAC001F0CEDF8080120067
:1001A000020E0301556F52C356F353C357F3D0DF0A
:1001B0008090FBC0E1FFFCC0E2FF7A0EE66EF9C062
:1001C00000F0FAC001F0B8DFFBC0E1FFFCC0E2FFC5
:1001D00054C3E6FFF9C000F0FAC001F0ADDF808043
:0201E00012000B
:1001E2008090FBC0E1FFFCC0E2FF52C3E6FFF9C012
:1001F20000F0FAC001F09FDFFBC0E1FFFCC0E2FFAC
:10020200E66AF9C000F0FAC001F095DF80801200C2
:100212008090FBC0E1FFFCC0E2FF7A0EE66EF9C0FF
:1002220000F0FAC001F087DFFBC0E1FFFCC0E2FF93
:1002320052C3E6FFF9C000F0FAC001F07CDF808013
:020242001200A8
:100244008090A00E03015211006EFBC0E1FFFCC0C0
:10025400E2FF00C0E6FFF9C000F0FAC001F06ADF77
:10026400FBC0E1FFFCC0E2FF53C3E6FFF9C000F0AE
:0A027400FAC001F05FDF8080120085
:10027E000301556B52C356F353C357F362DF80909D
:10028E00FBC0E1FFFCC0E2FF3A0EE66EF9C000F0E3
:10029E00FAC001F04ADFFBC0E1FFFCC0E2FFE66AF4
:0E02AE00F9C000F0FAC001F040DF80801200BD
:1002BC008090800E03015211006EFBC0E1FFFCC068
:1002CC00E2FF00C0E6FFF9C000F0FAC001F02EDF3B
:1002DC00FBC0E1FFFCC0E2FF53C3E6FFF9C000F036
:0A02EC00FAC001F023DF8080120049
:1002F600020E0301556F48C356F349C357F325DF72
:100306008090FBC0E1FFFCC0E2FF7A0EE66EF9C00A
:1003160000F0FAC001F00DDF03014C514D1117E05A
:10032600FBC0E1FFFCC0E2FF4AC3E9FF4BC3EAFFA3
:10033600EECFE6FFF9C000F0FAC001F0FADE0301E5
:100346004A4B4B2B010E4C5F000E4D5BE5D7808070
:02035600120093
:100358008090FBC0E1FFFCC0E2FF7A0EE66EF9C0B8
:1003680000F0FAC001F0E4DE4AC300F04BC301F02C
:10037800010E03014A5F000E4B5B0050011013E0B1
:10038800FBC0E1FFFCC0E2FF48C3E9FF49C3EAFF45
:10039800EECFE6FFF9C000F0FAC001F0C9DE0301B4
:0A03A800484B492BE1D7808012007A
:1003B2004AC304F04BC305F048C302F049C303F03B
:1003C2004CC300F04DC301F0010E03014C5F000E5F
:1003D2004D5B005001100FE004C0E9FF05C0EAFFC9
:1003E20002C0E1FF03C0E2FFEECFE6FF024A032AAA
:1003F200044A052AE5D748C300F049C301F01200B8
:10040200AE0E0301526F190E536F546BC8DEAE0E5F
:1004120003014825006E190E4921016E00C048F300
:1004220001C049F3060E556F00C056F301C057F3E1
:100432008EDE1F0E0301526F800E536F3EDF1F0EC2
:100442000301526F800E536FFCDE0001F851050A62
:1004520004E0F851070A01E006D01C0E0301526FB6
:100462000A0E536FEEDE1F0E0301526F080E536F1A
:1004720024DF0001F851050A04E0F851070A01E0FF
:1004820080D003014C6B4D6B1C0E526FA9DE0A0E1D
:10049200001600520AE103014C4B4D2B030E4D5D39
:1004A20002E1E80E4C5D01E2EFD703011C0E526F30
:1004B20097DE00B208D0030E03014D5D02E1E80EA3
:1004C2004C5D01E25DD003011F0E526F080E536FA7
:1004D200B8DE040E03014825526F000E4921536F06
:1004E200CDDE00C04BF303014A6B100E4A5D48E2B9
:1004F2001C0E526F75DE00A23FD003014BAB3CD005
:100502001F0E526F800E536FD8DE1F0E0301526F03
:10051200800E536F96DE1C0E0301526F0A0E536F4C
:1005220090DE1F0E0301526F080E536FC6DE0301E9
:100532004C6B4D6B1C0E526F53DE0A0E00160052AE
:100542000AE103014C4B4D2B030E4D5D02E1E80E17
:100552004C5D01E2EFD703011F0E526F080E536F7D
:1005620070DE040E03014825526F000E4921536FBD
:1005720085DE00C04BF301D003D003014A2BB5D76F
:1005820007D003011F0E526F2BDE00A601D0F9D750
:100592001D0E0301526F24DE060E0016005202E009
:0A05A200006A02D0010E006E120084
:1005AC0003014A5148254C6F4B5149214D6F010EA7
:1005BC004C5F000E4D5B100E556F48C356F349C38C
:1005CC0057F3C0DD120E0301556F4CC356F34DC3E8
:1005DC0057F3B8DD1F0E0301526F300E536F68DEF8
:1005EC001F0E0301526FF7DD00AA01D0F9D71200DC
:1005FC0048C352F349C353F34AC354F3CBDD4BC343
:06060C0052F301DE1200B2
:100612000301516B010E4A5F000E4B5B4E530DE01E
:100622004B51190802E14A51AD0807E2512BAD0EB8
:100632004A5D4F6F190E4B59506F515305E0AD0E85
:10064200016E190E026E04D04AC301F04BC302F0D0
:100652004951021802E1015048190DE148C352F311
:1006620049C353F30BDE00C054F34CC352F34DC3E2
:1006720053F395DD36D0100E0301556F48C356F380
:1006820049C357F364DD120E0301556F515305E060
:10069200AD0E006E190E016E04D04AC300F04BC3BA
:1006A20001F000C056F301C057F351DD140E0301EF
:1006B200556F4CC356F34DC357F349DD1F0E03016B
:1006C200526F100E536FBDDD1F0E0301526F200ECD
:1006D200536FF3DD1F0E0301526F82DD00AA01D0BA
:1006E200F9D7030151531AE048514A5D006E49514E
:1006F2004B59016E4F51005E5051015A004A012A76
:1007020000504C2701504D23010E4F5D4A6F000EE1
:0E07120050594B6F486B496B516B8FD71200DB
:100720008090FBC0E1FFFCC0E2FF7A0EE66EF9C0EC
:1007300000F0FAC001F000DDFBC0E1FFFCC0E2FF09
:1007400049C3E6FFF9C000F0FAC001F0F5DCFBC0D8
:10075000E1FFFCC0E2FF48C3E6FFF9C000F0FAC0C9
:0807600001F0EADC80801200C8
:10076800086A080E0C6E003408360450085ED8B0CB
:0E07780002D00826D89000360C2EF5D71200BD
:0E078600000000000000000000000000120053
:100794008090FBC0E1FFFCC0E2FF3A0EE66EF9C0B8
:1007A40000F0FAC001F0C6DCFBC0E1FFFCC0E2FFD0
:1007B400E66AF9C000F0FAC001F0BCDC80801200E7
:1007C40003013D6B030E3D5D0AE23D513B25E16EA5
:1007D400000E3C21E26E200EE66E3D2BF3D73D5118
:1007E4003B25E16E000E3C21E26EE66A3D073D5179
:1007F4003B253E6F000E3C213F6F0A0E046E3AC348
:1008040000F0B0DF08C000F0300E00263EC3E1FF68
:100814003FC3E2FF00C0E6FF0A0E046E3AC300F0D5
:10082400A1DF00C03AF30050000A01E102D03D0705
:04083400DED71200F9
:100838002D0E0C6EA30E0D6E0D2EFED70C2EFCD7B2
:04084800000012009A
:10084C008090FBC0E1FFFCC0E2FF7A0EE66EF9C0BF
:10085C0000F0FAC001F06ADC3DC300F03EC301F0C9
:10086C00010E03013D5F000E3E5B005001101BE0CA
:10087C00FBC0E1FFFCC0E2FF3AC3F6FF3BC3F7FF4E
:10088C003CC3F8FF0900F5CF00F000C0E6FFF9C04B
:10089C0000F0FAC001F04ADC010E03013A27000E09
:0A08AC003B233C23D9D780801200C3
:1008B600050E0C6E090E0D6E0D2EFED70C2EFCD7F6
:0208C60012001E
:0E08C800670E0D6E0D2EFED700000000120010
:1008D600AF0E0301486F190E496F3AC34AF33BC383
:1008E6004BF3060E4C6F000E4D6F02DD020E486F85
:1008F600020E496F060E4A6F000E4B6F2ADD000E80
:10090600486F080E496F09DF1C0E03014225456F2B
:10091600000E4321466F000E486F450E496FFDDEFF
:1009260045C348F346C349F3F8DE44C248F345C21B
:1009360049F3F3DE0201444B452B0301486B496B37
:10094600ECDE110E0301486F800E496FE6DE0301EF
:10095600486B496BE2DE0C0E0301486F020E496FCD
:10096600040E4A6F000E4B6FF4DC3CC348F33DC3E4
:1009760049F3040E4A6F000E4B6FEBDC080E42255E
:10098600456F000E4321466F3EC348F33FC349F30C
:10099600C4DE40C348F341C349F3BFDE45C348F351
:1009A60046C349F3BADE0301486B496BB6DEBD0E9A
:1009B6000301486F190E496F140E4A6F000E4B6FF4
:1009C600F2DD160E0301526F09DC00C047F3170E65
:1009D6000301526F03DC00C04AF3C70E0301486FE0
:1009E600190E496F47C34BF306DE010E0301451589
:1009F600446FD90E4225526F190E4321536F546B23
:100A0600D0EC00F0C90E0301486F190E496FD10EE4
:100A16004A6F190E4B6FD90E42254C6F190E4321A2
:100A26004D6F44514C27000E4D234E6BEFDDD90E12
:100A36004225486F190E4321496F44514827000E3D
:100A46004923080E4827000E49234A6B110E4B6FA7
:100A5600D2DD46C352F309EC01F045C352F309EC6B
:100A660001F0D10E0301486F190E496F0C0E452592
:100A76004A6F000E46214B6F44514A27000E4B2306
:100A860092DD160E0301526FF1EC00F000C047F341
:100A9600170E0301526FF1EC00F000C04AF3D70EB7
:100AA6000301486F190E496F47C34BF3A4DD2A0EA5
:100AB60003014225486F000E4321496F9FDC120057
:100AC60003013D51FF0A02E1FF0E3C1907E0556B99
:100AD6003CC356F33DC357F3A8EC00F08090FBC02F
:100AE600E1FFFCC0E2FF3A0EE66EF9C000F0FAC084
:100AF60001F09CEC00F03EC300F03FC301F0010E94
:100B060003013E5F000E3F5B0050011015E0FBC085
:100B1600E1FFFCC0E2FFE66AF9C000F0FAC001F0AE
:100B26009CEC00F03AC3E1FF3BC3E2FF00C0E6FFE6
:0C0B360003013A4B3B2BDFD780801200FC
:100B42003AC348F33BC349F30C0E03014A6F020E4A
:100B52004B6F040E4C6F000E4D6F2ADC3C6B3C5108
:100B6200030821E33C513A25026E000E3B21036E3D
:100B720002C0E9FF03C0EAFFEECF01F0150EE96EF5
:100B8200020EEA6E3C51E926D8B0EA2AFF0EEE18B0
:100B9200006E0150001202C0E1FF03C0E2FF00C07C
:080BA200E6FF3C2BDCD712003A
:100BAA003AC3E9FF3BC3EAFFEE50000A14E01D0E08
:100BBA00E16E010EE26E02013251E126D8B0E22A5C
:100BCA003AC3E9FF3BC3EAFFEECFE6FF322B03014C
:080BDA003A4B3B2BE5D712005A
:100BE2003EC301F03FC302F0010E03013E5F000E5F
:100BF2003F5B000E021802E1000E01181FE03AC32B
:100C0200E9FF3BC3EAFF3CC3D9FF3DC3DAFFEE5025
:100C1200DE180FE03AC3E9FF3BC3EAFF3CC3D9FF4A
:100C22003DC3DAFFDE50EE5C006E016A000E015A2F
:100C320007D03A4B3B2B3C4B3D2BD2D7006A016A83
:020C420012009E
:100C44000301346B356B32C3E9FF33C3EAFFEE5261
:100C54000EE032C3E9FF33C3EAFFEECF52F309ECEF
:100C640001F00301324B332B344B352BECD734C317
:080C740000F035C301F012008D
:100C7C00F90E0301356F000E366F020E556FD90E4B
:100C8C00566F190E576FA8EC00F0890E03013A6FDE
:100C9C00380E3B6F000E3C6F0C0E3D6F000E3E6F1E
:100CAC00CFDD3251030A0DE133530BE0FE0E486FDA
:100CBC00010E496F040E4A6F000E4B6FACEC01F045
:100CCC000AD0346B040E345D06E2526B09EC01F071
:100CDC000301342BF7D7346B0C0E345D06E2526BE8
:100CEC0009EC01F00301342BF7D7020E486F020E0A
:100CFC00496F060E4A6F000E4B6FACEC01F0346B73
:100D0C00CA0E345D06E2526B09EC01F00301342B80
:100D1C00F7D7A10E3A6F380E3B6F000E3C6F060EE4
:100D2C003D6F000E3E6F8CDD32C352F309EC01F0C7
:100D3C0003013251030A1AE1335318E1360E526F94
:100D4C0009EC01F0040E0301526F09EC01F0FA0EEC
:100D5C000301486F010E496F040E4A6F000E4B6F72
:100D6C00ACEC01F0060E3527000E3623A70E3A6FB9
:100D7C00380E3B6F000E3C6F050E3D6F000E3E6F44
:100D8C005FDD3251030A23E1335321E1320E526FFE
:100D9C0009EC01F0040E0301526F09EC01F00301A0
:100DAC00346B040E345D0FE2FE0EE96E010EEA6E3A
:100DBC003451E926D8B0EA2AEECF52F309EC01F00F
:100DCC000301342BEED7060E3527000E3623FF0E0B
:100DDC00526F09EC01F0BB0E03013A6F000E3B6F32
:100DEC00BB0E3C6F000E3D6F440E3E6F000E3F6F0E
:100DFC00430E406F000E416F35C342F336C343F3CD
:040E0C0064DD12008F
:100E10000301326BC80E325D04E24DDD4CDD322B36
:040E2000F9D71200EC
:100E24000301346B3C0E0101016F000E026F036F6E
:100E3400046FAEDC00C032F30050020AD8A41DD106
:100E44000301336B0F0E335D04E2A2DC0301332B89
:100E5400F9D7FE0E3A6F010E3B6FFF0E3C6FFF0E8B
:100E64003D6F040E3E6F000E3F6F2BDE336B080E9A
:100E7400335D04E28DDC0301332BF9D7336B060EAB
:100E8400335D12E285DC00C032F3020ED96E020E2D
:100E9400DA6E03013351D926D8B0DA2A0050DE18AD
:100EA40001E015D1332BEBD7336BCE0E335D04E267
:100EB4006FDC0301332BF9D7356B6ADC00C032F3E6
:100EC400BDD066DC00C032F30050010A04E160DCEE
:100ED40000C034F301D0FBD0CCD05ADC00C032F3D4
:100EE4000050040A0FE1080E03013A6F020E3B6F33
:100EF400FF0E3C6FFF0E3D6F040E3E6F000E3F6F02
:100F0400E0DD01D0E4D0B5D043DC00C032F3040E00
:100F1400005C0FE3F20E03013A6F010E3B6FFF0E0C
:100F24003C6FFF0E3D6F040E3E6F000E3F6FC9DD38
:100F340001D0CDD00301040E325F030132C300F0AF
:100F44003207005202E024DCF8D793D021DC00C041
:100F540032F3040E005C0FE3F60E03013A6F010E48
:100F64003B6FFF0E3C6FFF0E3D6F040E3E6F000E95
:100F74003F6FA7DD01D0ABD00301040E325F030144
:100F840032C300F03207005202E002DCF8D771D01D
:100F9400CAEC03F000C032F30050040A0FE1360E2D
:100FA40003013A6F030E3B6FFF0E3C6FFF0E3D6F64
:100FB400040E3E6F000E3F6F84DD01D088D059D0FF
:100FC4000301010E356F55D0CAEC03F000C032F3B3
:100FD4000050040A23E1010E03013A6F010E3B6F36
:100FE400FF0E3C6FFF0E3D6F040E3E6F000E3F6F11
:100FF40068DD01010451000808E10351000805E11E
:101004000251070802E10151080807E2080E015FD6
:10101400070E025B000E035B045B01D058D029D09D
:10102400CAEC03F000C032F332C300F0030132070C
:10103400005203E0CAEC03F0F7D71BD0030132518E
:10104400350AD8B43ED73251010AD8B446D7325102
:10105400030AD8B459D73251060AD8B477D73251D3
:10106400360A96E03251FF0AABE03251330AACE063
:10107400D7D703013553D8B420D703013451020A1A
:101084000FE1FA0E486F010E496F360E4A6F030ED8
:101094004B6F040E4C6F000E4D6FD9EC01F014D061
:1010A400FA0E3A6F010E3B6F360E3C6F030E3D6F26
:1010B400040E3E6F000E3F6F92DD000E011802E138
:1010C400000E001801E0346B34C300F001D0006A54
:0210D400120008
:1010D600150E0301486F020E496F32C34AF333C33C
:1010E6004BF3040E4C6F000E4D6FD9EC01F0110E50
:1010F600486F020E496F34C34AF335C34BF3040EEF
:101106004C6F000E4D6FD9EC01F0E00E486F010EEA
:10111600496F36C34AF337C34BF3040E4C6F000EC8
:101126004D6FD9EC01F0E40E3A6F010E3B6F06DD10
:021136001200A5
:101138000301356B366B32C3F6FF33C3F7FF34C395
:10114800F8FF0900F5CF00F0005214E032C3F6FFB3
:1011580033C3F7FF34C3F8FF0900F5CF52F309ECA6
:1011680001F0010E03013227000E33233423354BDF
:0E117800362BE1D735C300F036C301F012006C
:101186000301366B376B0201326B0301366B100EAF
:10119600365D5BE21F0EE96E020EEA6E3651E926F7
:1011A600D8B0EA2AEE50010A4EE1A40E3A6F000EBC
:1011B6003B6FF8DC36C33AF3320E3B6F030E3C6FDF
:1011C600E2EC03F0320E3A6F030E3B6FEBDCAB0E34
:1011D6003A6F000E3B6FE6DC760EE96E020EEA6EA3
:1011E6003651E926D8B0EA2AEECF01F001C037F32E
:1011F60001BE06D07B0E3A6F000E3B6FD3DC23D0C8
:1012060037AD1CD037A90DD0810E3A6F000E3B6F5B
:10121600C9DC37AB05D0990E3A6F000E3B6FC2DCC6
:101226000CD02A0E3A6F000E3B6FBCDC37AB05D0F4
:10123600450E3A6F000E3B6FB5DC05D0500E3A6F87
:10124600000E3B6FAFDC362BA2D71D0EE16E010EF2
:10125600E26E02013251E126D8B0E22AE66A322B6A
:02126600120074
:1012680032C302F033C303F035C300F036C301F0D4
:10127800010E0301355F000E365B0050011009E0D6
:1012880002C0E1FF03C0E2FF34C3E6FF024A032ABB
:0C129800EBD732C300F033C301F01200AA
:1012A4008090400E03013211006EFBC0E1FFFCC0D0
:1012B400E2FF00C0E6FFF9C000F0FAC001F09CECC8
:1012C40000F0FBC0E1FFFCC0E2FF33C3E6FFF9C05E
:0E12D40000F0FAC001F09CEC00F080801200E7
:1012E200030132BF02D0819E01D0818E32BD02D075
:1012F200819C01D0818C32BB02D0819A01D0818A3B
:1013020032B902D0819801D08188010100B102D0A6
:10131200828001D082908284C3EC03F08294030124
:1013220032B702D0819E01D0818E32B502D0819C2B
:1013320001D0818C32B302D0819A01D0818A32B13C
:1013420002D0819801D08188010100B102D082804F
:1013520001D082908284C3EC03F0829400A103D076
:0C1362001CEC04F002D064EC04F012005B
:10136E0003012251190802E12151AD0804E2AE0E2B
:10137E00215F190E225B556B21C356F322C357F31F
:06138E00A8EC00F01200C3
:10139400B5D00C0E0301326F020E336F346B040EA2
:1013A400356F000E366F5EDF010E326F336B64DC17
:1013B400AEC0EAF1AFC0EBF1B0C0ECF1B1C0EDF1F9
:1013C400030E0001C16FADD0050E0101EA25016EC7
:1013D400000EEB21026E000EEC21036E000EED21D7
:1013E400046E0001B151045C08E1B051035C05E1F5
:1013F400AF51025C02E1AE51015C02E2020EC16F28
:101404000FDD0050020A04E1040E0001C16F01D097
:1014140088D0030E0301326FBAC033F32DDCAEC0A3
:10142400EAF1AFC0EBF1B0C0ECF1B1C0EDF1050EE3
:101434000001C16F76D0F4DC00C021F30050060A2D
:1014440004E1040E0001C16F2ED003012151050AED
:101454002AE1AEC0EAF1AFC0EBF1B0C0ECF1B1C02B
:10146400EDF1060E0001C16F0C0E0301486F020E70
:10147400496FFE0E4A6F010E4B6F040E4C6F000E47
:101484004D6FD9EC01F0080E326F020E336FF20E7D
:10149400346F010E356FF60E366F010E376F19DE9D
:1014A4000001BA6B3ED03DD0010E0101EA25016E68
:1014B400000EEB21026E000EEC21036E000EED21F6
:1014C400046E04500001B15D08E10350B05D05E114
:1014D4000250AF5D02E10150AE5D0FE3010E010168
:1014E400015F000E025B035B045BAEC0EAF1AFC0B8
:1014F400EBF1B0C0ECF1B1C0EDF113D00001C1517A
:10150400020AD8B446D7C151030AD8B45DD7C15131
:10151400040AD8B47ED7C151050A8DE0C151060A28
:04152400C3E012000E
:10152800CAEC03F0CAEC03F0CAEC03F000C022F3E3
:10153800CAEC03F000C021F3CAEC03F000C024F3A6
:10154800CAEC03F000C023F3CAEC03F000C026F392
:10155800CAEC03F000C025F3CAEC03F0CAEC03F0B0
:10156800CAEC03F0CAEC03F023C300F024C301F073
:10157800010E0301235F000E245B005001100EE0F2
:10158800CAEC03F0005201E0FBD7CAEC03F0CAEC46
:1015980003F0CAEC03F0CAEC03F0E6D725C300F069
:1015A80026C301F0010E0301255F000E265B0050E3
:1015B800011048E0CAEC03F0CAEC03F0CAEC03F0EF
:1015C80000C02AF3CAEC03F000C029F3CAEC03F008
:1015D800CAEC03F0CAEC03F0CAEC03F0CAEC03F05F
:1015E800CAEC03F0CAEC03F000C028F3CAEC03F01D
:1015F80000C027F3000E03012A1902E1010E291980
:1016080011E1CAEC03F000C0EEF1CAEC03F000C02F
:10161800EFF1CAEC03F000C0F0F1CAEC03F000C02F
:10162800F1F110D027C300F028C301F0010E030127
:10163800275F000E285B0050011003E0CAEC03F09E
:06164800F1D7ACD712003F
:10164E001F0E0301526F010E536F22EC01F01F0E9D
:10165E000301526F020E536F5EEC01F0140E030184
:10166E00326F21C333F317DE08EC07F0160E326F1C
:10167E0023C333F310DE08EC07F0170E326F22C3CC
:0A168E0033F309DE08EC07F0120048
:101698001F0E0301526F010E536F22EC01F01F0E53
:1016A8000301526F020E536F5EEC01F0140E03013A
:1016B800326F21C333F3F2DD120E0301526F010EB4
:1016C800536F5EEC01F008EC07F0120E526F010E3A
:1016D800536F22EC01F0160E0301526FF1EC00F08B
:1016E80024C3E1FF25C3E2FF00C0E6FF170E030194
:1016F800526FF1EC00F022C3E1FF23C3E2FF00C008
:04170800E6FF1200E6
:10170C000301526BF1EC00F000C026F3010E030153
:10171C00526FF1EC00F000C027F30301556B21C3AD
:10172C0056F322C357F3A8EC00F08090FBC0E1FF06
:10173C00FCC0E2FF3A0EE66EF9C000F0FAC001F010
:10174C009CEC00F00301255318E0FBC0E1FFFCC04A
:10175C00E2FFE66AF9C000F0FAC001F09CEC00F080
:10176C0023C3D9FF24C3DAFF0050DE1801E005D0F3
:10177C000301234B242B2507E5D703018080556BF0
:10178C0026C356F327C357F3A8EC00F025C300F08B
:02179C00120039
:10179E000B6A0A6A096A00500402F4CF09F0F3CF0B
:1017AE0008F001500502F4CF0BF0F3CF0AF0005011
:1017BE000502F3500926F4500A22E86A0B22015062
:1017CE000402F3500926F4500A22E86A0B2208C0DC
:1017DE0000F009C001F00AC002F00BC003F01200C5
:1017EE00B50E0301486F190E496FBB0E4A6F190EE5
:1017FE004B6FAF0E4C6F190E4D6F4E6B09EC03F025
:10180E00B50E486F190E496F020E4A6F020E4B6FDE
:0E181E00060E4C6F000E4D6F7BEC01F01200B9
:0E182C000101009121C332F356DD008112004C
:06183A00006A016A1200C1
:1018400010D0800E0301216F1AD0C00E216F17D067
:10185000940E216F14D0D40E216F11D0800E216F01
:101860000ED003012151010AECE02151020AEDE002
:101870002151030AEDE02151040AEDE0EFD72205E2
:10188000006E2151002600C021F30101008100C03B
:1018900032F327DD009123C332F323DD00811200F0
:1018A00003012E6B2F6B000E261902E1500E251935
:1018B00003E0006A016A120080882C6B2D6B000E19
:1018C0002D5D02E1100E2C5D12E2090E2C25306F09
:1018D000010E2D21316FCAEC03F030C3E1FF31C39B
:1018E000E2FF00C0E6FF03012C4B2D2BE8D7090EC9
:1018F0002C25E16E010E2D21E26EE66A090E3A6F8B
:10190000010E3B6F640E3C6F000E3D6F050E3E6F87
:10191000000E3F6FF1EC05F00050011003E0006A8B
:10192000016A120001010E51720A34E1010E020136
:101930001D6F0F0E01010F150001FD6F0A0EFD0353
:10194000F3CFFDF00F0E01011015006E00500001E5
:10195000FD270F0E010111150001FE6F0A0EFE0397
:10196000F3CFFEF00F0E01011215006E00500001C2
:10197000FE270F0E010113150001FF6F0A0EFF0372
:10198000F3CFFFF00F0E01011415006E005000019F
:10199000FF27F2D001010E51620A55E10F0E0F151B
:1019A000006E0A0E0002F3CF01F0F4CF02F00F0E2A
:1019B0001015006E00500124036E000E0220046E0C
:1019C00003C000F004C001F0003600900136860E1E
:1019D0000026020E012200C0E1FF01C0E2FF0F0E4F
:1019E0001115006E0A0E0002F3CF01F00F0E121552
:1019F000006E0150002600C0E6FF0F0E0F15006EAE
:101A00000A0E0002F3CF01F0F4CF02F00F0E101512
:101A1000006E00500124036E000E0220046E03C00D
:101A200000F004C001F0003600900136860E00265A
:101A3000020E0122010E0024E16E000E0120E26E72
:101A4000010EE66E99D00E51700AD8A495D00F0EF3
:101A50000F15006E0A0E0002F3CF01F00F0E1015E5
:101A6000006E00500124036E03C02BF303C000F08E
:101A7000000E016E003600900136003600900136EF
:101A8000A70E0026020E012200C0E1FF01C0E2FF06
:101A90000F0E1115006E0A0E0002F3CF01F00F0EAB
:101AA0001215006E0150002600C0E6FF2BC300F0A7
:101AB000000E016E003600900136003600900136AF
:101AC000A70E0026020E0122010E0024E16E000E78
:101AD0000120E26E0F0E1315006E0A0E0002F3CF06
:101AE00001F00F0E1415006E0150002600C0E6FF35
:101AF0002BC300F0000E016E003600900136003658
:101B000000900136A70E0026020E0122020E0024CC
:101B1000E16E000E0120E26E0F0E1515006E0A0E2A
:101B20000002F3CF01F00F0E1615006E01500026D3
:101B300000C0E6FF2BC300F0000E016E00360090DF
:101B40000136003600900136A70E0026020E012253
:101B5000030E0024E16E000E0120E26E0F0E171539
:101B6000006E0A0E0002F3CF01F00F0E1815006E82
:101B70000150002600C0E6FF000E03012F1902E10C
:101B8000000E2E194CE1C3EC08F06A0E0301326F0F
:101B9000380E336F000E346F9CEC08F000C02EF34B
:101BA00001C02FF3950E326F380E336F000E346F75
:101BB0009CEC08F000502E2701502F231D0E326F91
:101BC000010E336F22EC06F000502E2701502F2318
:101BD0002C6B2D6B000E2D5D02E1100E2C5D1FE2B3
:101BE0001F0E2C25E16E020E2D21E26EE66A660EB6
:101BF0002C25E16E020E2D21E26EE66A560E2C2592
:101C0000E16E020E2D21E26EE66A460E2C25E16E93
:101C1000020E2D21E26EE66A2C4B2D2BDBD72EC354
:081C200000F02FC301F01200D7
:101C2800C90E0301486F190E496FCD0E4A6F190E80
:101C38004B6FCD0E4C6F190E4D6F4E6B09EC03F0C8
:101C4800C90E486F190E496F0C0E4A6F020E4B6F82
:0E1C5800040E4C6F000E4D6F7BEC01F012007D
:101C66000301326B0201F45303E00D0E006E02D045
:101C7600050E006E00C033F352EC09F0020E0301AC
:101C8600326F0201F45303E0310E006E02D0300EC3
:101C9600006E00C033F352EC09F00A0E0301556FD3
:101CA600EE0E566F050E576FA8EC00F0040E0301FA
:101CB600326F0201F45303E0150E006E02D0120ECD
:101CC600006E00C033F352EC09F0060E0301326FCA
:101CD600120E336F52EC09F00201F45307E1070EBE
:101CE6000301326F0C0E336F52EC09F00201F4530C
:101CF60007E1090E0301326F3F0E336F52EC09F014
:101D06001F0E0301526F010E536F5EEC01F01F0EA2
:101D16000301526F020E536F5EEC01F0040E0301D5
:101D2600326F02C233F352EC09F0050E0301326F33
:101D360003C233F352EC09F0020E0301326F04C200
:101D460033F352EC09F0030E0301326F05C233F38D
:101D560052EC09F00301326B06C233F352EC09F080
:101D6600010E0301326F07C233F352EC09F0150E70
:101D76000301326F336B52EC09F0120E0301526FFE
:101D8600F1EC00F000C0F8F00301216BF50E226FB4
:101D9600020E236FF60E246F020E256F7ADC030106
:101DA600216BFE0E0201F5150301226F0201F453A9
:101DB60003E0010E006E01D0006A005003012213F9
:101DC600F6C223F341DC100E216F010E226F236B46
:101DD6003BDC1F0E526F040E536F5EEC01F008ECF5
:101DE60007F0B30E326F010E336F346B2D0E356F65
:101DF600000E366F34EC09F01F0E526F010E536F52
:101E060022EC01F01F0E0301526F020E536F22ECFB
:041E160001F01200C5
:101E1A00C40E0301526F190E536F3FEC01F000C05C
:101E2A00F4F2E3D0D50E0301216F190E226F0C0EC6
:101E3A00236F020E246F040E256F63DC0050000A24
:101E4A004AE1C40E0301526F190E536F020E546F0A
:101E5A00D0EC00F0C7DCCB0E486F190E496FCF0EDD
:101E6A004A6F190E4B6FD50E4C6F190E4D6F4E6B94
:101E7A0009EC03F0CB0E486F190E496F0C0E4A6F2E
:101E8A00020E4B6F040E4C6F000E4D6F7BEC01F08F
:101E9A00C50E486F190E496FCB0E4A6F190E4B6F5C
:101EAA00CF0E4C6F190E4D6F4E6B09EC03F0C50E39
:101EBA00486F190E496F020E4A6F020E4B6F060EDB
:101ECA004C6F000E4D6F7BEC01F03C0E486F000E1C
:101EDA00496F01EC02F092D0AF0E0301216F190E87
:101EEA00226F020E236F020E246F060E256F09DC85
:101EFA000050000A79E1CB0E0301216F190E226FFF
:101F0A00E8C123F3E9C124F3040E256F86EC0BF034
:101F1A000050000A69E10F0E006E000E016EADC09E
:101F2A0004F0000E056E36DCB30E002403013A6F8E
:101F3A00010E01203B6F090E3A27000E3B23C50E06
:101F4A003C6F190E3D6F060E3E6F000E3F6F63EC3D
:101F5A0005F00F0E006E000E016EADC004F0000E0B
:101F6A00056E18DCB30E0024486F010E0120496F7C
:101F7A00050E4827000E4923E8C14AF3E9C14BF38D
:101F8A00040E4C6F000E4D6FD9EC01F00F0E006E6F
:101F9A00000E016EADC004F0000E056ECFEC0BF022
:101FAA00B30E0024E16E010E0120E26E010EE66E10
:101FBA000F0E006E000E016EADC004F0000E056E2D
:101FCA00CFEC0BF0B30E0026010E0122010E002405
:101FDA00E16E000E0120E26EAEC0E6FFAFC0E6FF82
:101FEA00B0C0E6FFB1C0E6FF09D00201F451010A10
:0E1FFA00D8B418D7F451020AD8B46ED712002A
:1020080010D0800E0201F46F1AD0C00EF46F17D0F2
:10201800940EF46F14D0D40EF46F11D0800EF46FB8
:102028000ED00201F451010AECE0F451020AEDE08D
:10203800F451030AEDE0F451040AEDE0EFD7F50599
:10204800006EF451002600C0F4F200C032F371ECC7
:1020580009F000910201F86BF851F625E96E000EBF
:10206800F721EA6EEE520DE0F851F625E96E000E02
:10207800F721EA6EEECF21F316EC0CF00201F82BF3
:08208800EBD7010100811200F9
:102090000201F86BF6C2F7F2F751090804E20A0EE2
:1020A000F75FF82BF9D7F4C221F3F5C222F3300E13
:1020B000F8250301236F20EC0CF0F4C221F3020198
:1020C000F551010F0301226F300E0201F7250301C4
:0820D000236F20EC0CF012005C
:1020D800F8C252F3F9C253F33FEC01F000C00AF31F
:1020E800CAEC03F000C009F3CAEC03F000C008F31F
:1020F800CAEC03F000C007F30201FF6B0301006B99
:10210800010E136F116B126B0C0E0201F8250301FF
:10211800526F000E0201F9210301536F3FEC01F0E9
:1021280000C00DF3000E03010E6F0D330D9F0D332C
:102138000D9F000E0E6FFC0E0D17FF0E0E171C0ED6
:102148003A6F030E3B6FC90E3C6F190E3D6F040EBC
:102158003E6F000E3F6F63EC05F00D0E0201F8258F
:102168000301526F000E0201F9210301536F3FEC86
:1021780001F03F0E001403010B6F0C6B000E0C17DF
:10218800000E0C6F0E0E0201195D03010F6F000E99
:1021980002011A590301106F0201F65103010F5F82
:1021A8000201F7510301105B0D510F5F0E51105BD7
:1021B800020E0201F8250301526F000E0201F921F7
:1021C8000301536F3FEC01F000C054F3F8C252F31F
:1021D800F9C253F3D0EC00F0030E0201F825030115
:1021E800526F000E0201F9210301536F3FEC01F019
:1021F80000C052F309EC01F009C348F30AC349F3DC
:1022080090EC03F0040E0201F8250301526F000E52
:102218000201F9210301536F3FEC01F000C017F3ED
:10222800CAEC03F000C016F3CAEC03F000C015F3C3
:10223800CAEC03F000C014F3CAEC03F000C01BF3AF
:10224800CAEC03F000C01AF3CAEC03F000C019F39B
:10225800CAEC03F000C018F3000E03010C1902E1E8
:10226800020E0B193EE1010E1425006E000E152119
:10227800016E000E1621026E000E1721036E00C0BB
:1022880018F301C019F302C01AF303C01BF3120EAE
:102298000B6F000E0C6F0C0E526FF1EC00F000C0CB
:1022A80014F30D0E0301526FF1EC00F000C015F3AA
:1022B8000301526BF1EC00F000C016F3010E0301AC
:1022C800526FF1EC00F000C017F30201FF2B180E5B
:1022D80003010D6F000E0E6F116B126B0001C36BC3
:1022E80078D0000E03010C1902E1180E0B1935E124
:1022F80014C3FAF215C3FBF216C3FCF217C3FDF2BE
:1023080018C314F319C315F31AC316F31BC317F331
:102318000F510201FA25006E030110510201FB2141
:10232800016E000EFC21026E000EFD21036E00C03E
:1023380018F301C019F302C01AF303C01BF3100EFF
:1023480003010B6F000E0C6F0201FF2B140E03012B
:102358000D6F000E0E6F002B3CD0000E0C1902E121
:10236800110E0B1936E114C301F315C302F316C39A
:1023780003F317C304F318C314F319C315F31AC3EB
:1023880016F31BC317F3010E0125006E000E022180
:10239800016E000E0321026E000E0421036E00C0C0
:1023A80018F301C019F302C01AF303C01BF3100E8F
:1023B8000B6F000E0C6F0201FF2B140E03010D6F43
:1023C800000E0E6F116B126B0001C25302E1C32B9A
:1023D800C26B0201FF53D8B411D20201040EF825D2
:1023E8000301486F000E0201F9210301496F17C369
:1023F8004AF316C34BF3FEEC02F015C352F309EC93
:1024080001F014C352F309EC01F01BC352F309ECB9
:1024180001F01AC352F309EC01F019C352F309ECA5
:1024280001F018C352F309EC01F00C0E0201F82573
:102438000301526F000E0201F9210301536F3FECB3
:1024480001F00F0E00140301546F0DC300F00036A5
:10245800009000360090005054130C0E0201F8252D
:102468000301526F000E0201F9210301536FD0ECF2
:1024780000F00D0E0201F8250301526F000E020153
:10248800F9210301536F3FEC01F0C00E0014030162
:10249800546F0B5154130D0E0201F8250301526FAE
:1024A800000E0201F9210301536FD0EC00F0000E79
:1024B80003010C1902E1120E0B192AE10E0E02019A
:1024C800F8250301486F000E0201F9210301496F45
:1024D800050E4A6FEE0E4B6FFEEC02F0140E020171
:1024E800F8250301486F000E0201F9210301496F25
:1024F800020E4A6F040E4B6FFEEC02F0050E03014C
:10250800526F09EC01F0780E0301526F09EC01F0EB
:102518000201F651030111250F6F0201F751030162
:102528001221106F0D510F270E511023135304E081
:10253800F7EC0BF014EC0EF0BF0E486F190E496F54
:1025480010C34AF30FC34BF3FEEC02F0C70E0301AE
:10255800486F190E496F4A6B4B6BFEEC02F0BD0ECB
:102568000301486F190E496FF6C24AF3F7C24BF3DD
:10257800D6EC02F0160E0301526FF1EC00F000C029
:1025880020F3170E0301526FF1EC00F000C04AF37C
:10259800C70E0301486F190E496F20C34BF3FEECB9
:1025A80002F0BD0E03010F25056F190E1021066FED
:1025B800100E0201F8250301486F000E0201F921EF
:1025C8000301496F4A6B4B6BFEEC02F0010E0301ED
:1025D8000F150201FE6F05C352F306C353F303013F
:1025E800546BD0EC00F0C90E0301486F190E496F07
:1025F800D10E4A6F190E4B6F0201FE5103010525DA
:102608004C6F000E06214D6F4E6B09EC03F0080E5F
:102618000525486F000E0621496F0201FE5103018E
:102628004827000E49234A6B060E4B6FFEEC02F05A
:102638000A0E03010525486F000E0621496F0201A5
:10264800FE5103014827000E492311510D25036E41
:1026580012510E21046E04C000F0016A00C04AF352
:1026680003C04BF3FEEC02F0F8C248F3F9C249F399
:10267800030111510D254A6F12510E214B6F0C0E9B
:102688004A27000E4B230201FE5103014A27000E80
:102698004B23D6EC02F0160E0301526FF1EC00F05A
:1026A80000C020F3170E0301526FF1EC00F000C0D8
:1026B8004AF3100E0201F8250301486F000E0201CB
:1026C800F9210301496F20C34BF3FEEC02F00E0E13
:1026D80003010F25486F000E1021496F01EC02F02D
:1026E8000301005361E0100E0B6F000E0C6F006BBE
:1026F800136B020E556F0D510201F8250301566F39
:102708000E510201F9210301576FA8EC00F00E0EDB
:102718000201F4250301216F000E0201F5210301D6
:10272800226F0201F651030121270201F75103012B
:1027380022230D5121270E512223B7EC09F0000165
:10274800C32B1C0E0301216F030E226F09C323F351
:102758000AC324F307C325F308C326F30E0E0201A8
:10276800195D0301276F000E02011A590301286F32
:102778000201F6510301275F0201F7510301285BAB
:102788000D51275F0E51285B100E296F020E2A6F1C
:1027980050EC0CF000C011F301C012F3020110B1AB
:1027A80002D00001C36B19D60001C35327E003010F
:1027B80011511425006E12511521016E000E1621BB
:1027C800026E000E1721036E00C014F301C015F34A
:1027D80002C016F303C017F3110E0B6F000E0C6F37
:1027E8000001C36B0301136B140E0D6F000E0E6F07
:0E27F800116B126B010E0001C26FEFD51200C3
:10280600F7C252F3F8C253F33FEC01F000C004F3F1
:10281600CAEC03F000C003F3CAEC03F000C002F3F5
:10282600CAEC03F000C001F3000E0301021902E135
:10283600000E011901E193D0CAEC03F000C006F3C3
:10284600CAEC03F000C005F3070E03013A6F030E4E
:102856003B6FC90E3C6F190E3D6F040E3E6F000EA6
:102866003F6F63EC05F0020E556F080E0201F72567
:102876000301566F000E0201F8210301576FA8EC01
:1028860000F00E0E0201F4250301216F000E020175
:10289600F5210301226F0201F65103012127000EE3
:1028A6002223080E2127000E2223B7EC09F0000E82
:1028B6000301041902E1350E031903E194EC0AF051
:1028C6004ED0000E0301021902E1440E011903E184
:1028D600CAEC09F044D0070E0301216F030E226FE4
:1028E60003C323F304C324F301C325F302C326F36E
:1028F600080E055D276F000E0659286F100E296F0A
:10290600020E2A6F1DEC0CF000C005F301C006F3A1
:102916000050011024E0F90E3A6F020E3B6FB50E1F
:102926003C6F190E3D6F060E3E6F000E3F6F63EC57
:1029360005F0F90E3A6F020E3B6F070E3C6F030E61
:102946003D6F01C33EF302C33FF303C340F304C329
:1029560041F305C342F306C343F36BEC04F01200E4
:102966000201E96BE95110082AE3760EE96E020EC0
:10297600EA6EE951E926D8B0EA2AE851EE14016E6A
:102986000150E8190DE1020E0301216F0201E95120
:1029960010080301226F310E236F20EC0CF00CD0CF
:1029A600020E0301216F0201E95110080301226F93
:1029B600300E236F20EC0CF00201E92BD3D7120066
:1029C600FF0E0201346FFF0E356FFF0E366FFF0EDE
:1029D600376FFF0E406FFF0E416F000E426F000E05
:1029E600436FFF0E3C6FFF0E3D6F000E3E6F000EF5
:1029F6003F6FFF0E386FFF0E396F000E3A6F000EF5
:102A06003B6FAC8A900EAB6E948E949C9EAA03D0BC
:082A1600AECF00F0FBD7120067
:102A1E00260E0001F96F010EFA6F580EFB6F030EB2
:102A2E00FC6FFF0E0101056FFF0E066FFF0E076FA5
:102A3E00FF0E086F949A0201E851040A02E194868F
:102A4E0001D094969488C66AE851C612EA51C6120D
:102A5E00E951C712EA5305E0EB51000A01E1C78CB8
:0C2A6E0003D0EB5301E0C78CC68A1200B5
:102A7A00929280829290808008EC07F0808208EC23
:102A8A0007F0809208EC07F0808208EC07F080904B
:102A9A00FBC0E1FFFCC0E2FFFF0EE66EF9C000F0EA
:102AAA00FAC001F09CEC00F0808008EC07F0020EFE
:102ABA00486F020E496FE8C24AF3E9C24BF3060EA9
:102ACA004C6F000E4D6FD9EC01F00C0E486F020EE0
:102ADA00496FEAC24AF3EBC24BF3040E4C6F000E85
:102AEA004D6FD9EC01F01F0E526F010E536F22EC9D
:102AFA0001F01F0E0301526F020E536F22EC01F018
:102B0A00080E0301556F566B576BA8EC00F00A0EBE
:102B1A000301556FAD0E566F190E576FA8EC00F0F2
:102B2A000C0E0301556FAD0E566F190E576FA8ECB8
:102B3A0000F00301556B566B576BA8EC00F0040EBE
:102B4A000301556FAE0E566F190E576FA8EC00F0C1
:102B5A001F0E0301526F010E536F22EC01F01F0E7C
:102B6A000301526F020E536F5EEC01F0ECC2F4F2F5
:062B7A0033EC0EF0120026
:102B8000949494909398939A939C939E8294829019
:102B9000819E819C819A81981CEC04F01CEC04F0CD
:102BA0001CEC04F0818A81888284C3EC03F0829457
:102BB0001CEC04F08284C3EC03F082941CEC04F05F
:102BC0008284C3EC03F082941CEC04F0819882842C
:102BD000C3EC03F082941CEC04F08284C3EC03F099
:102BE0008294819A818E8284C3EC03F082941CECDF
:102BF00004F0819E81888284C3EC03F082948198E2
:102C00008284C3EC03F082941CEC04F08284C3EC55
:102C100003F0829481888284C3EC03F082941CECDC
:102C200004F081988284C3EC03F08294818E818CBD
:102C3000818A81888284C3EC03F082941CEC04F0C6
:062C4000010100811200F9
:102C4600010E0201F46F010EF56F1A0EF66F000EFB
:102C5600F76F04EC10F0010E0201F46F060EF56F2B
:102C6600ECC2F6F248EC10F0010E0201F46F090E08
:102C7600F56F210EF66F000EF76F04EC10F0010EE3
:102C86000201F46F0C0EF56F250EF66F000EF76F4E
:102C960004EC10F0020E0201F46F010EF56FE8C2AB
:102CA600F6F248EC10F0020E0301216F030E226FBC
:102CB6003A0E236F20EC0CF0020E0201F46F040EA4
:102CC600F56FE9C2F6F248EC10F0020E0201F46F5D
:102CD600060EF56F570EF66F000EF76F04EC10F048
:102CE600020E0301216F080E226F2F0E236F20ECB8
:102CF6000CF0020E0201F46F0A0EF56FEAC2F6F24C
:102D060048EC10F0020E0201F46F0D0EF56FEBC2E7
:082D1600F6F248EC10F0120087
:102D1E000201F16B108110931F0E0301526F010E11
:102D2E00536F22EC01F01F0E0301526F020E536F10
:102D3E0022EC01F00301556BDFC056F3E0C057F3F0
:102D4E00A8EC00F08090FBC0E1FFFCC0E2FF3A0E61
:102D5E00E66EF9C000F0FAC001F09CEC00F0FBC08A
:102D6E00E1FFFCC0E2FFE66AF9C000F0FAC001F034
:102D7E009CEC00F000C0DFF0FBC0E1FFFCC0E2FF06
:102D8E00E66AF9C000F0FAC001F09CEC00F000C059
:102D9E00E0F0FBC0E1FFFCC0E2FFE66AF9C000F024
:102DAE00FAC001F09CEC00F000C019F2FBC0E1FF8C
:102DBE00FCC0E2FFE66AF9C000F0FAC001F09CEC3C
:102DCE0000F000C01AF2FBC0E1FFFCC0E2FFE66AB1
:102DDE00F9C000F0FAC001F09CEC00F000C0EFF278
:102DEE00FBC0E1FFFCC0E2FFE66AF9C000F0FAC0EA
:102DFE0001F09CEC00F000C0F0F28080040E0201A5
:102E0E00195F000E1A5B0001E051190802E1DF5153
:102E1E00AD080EE3DFB10CD00201F0BF09D01A519C
:102E2E00050802E11951EE0803E3EFAF01D003D01C
:102E3E00010E006EE2D10301526BF1EC00F000C006
:102E4E00EDF2010E0301526FF1EC00F000C0EEF254
:102E5E00EDC248F3EEC249F302011951ED2503010B
:102E6E004A6F02011A51EE2103014B6FAF0E4C6FE8
:102E7E00190E4D6F010E4E6F09EC03F0BB0E526F23
:102E8E00190E536F3FEC01F000C0F0F2CAEC03F0E4
:102E9E0000C0EFF20201F051080A02E1060EEF192E
:102EAE0013E1BD0E0301216F190E226FB20E236FB7
:102EBE00000E246F070E256F86EC0BF00050000AF3
:102ECE0002E10DEC0FF06AD10201F051080A02E1A5
:102EDE00000EEF19D8A45FD1CD0E0301216F190E8C
:102EEE00226FE40E236F010E246F040E256F86EC05
:102EFE000BF0005202E102011083CD0E0301216F8F
:102F0E00190E226FBB0E236F000E246F040E256F59
:102F1E0086EC0BF0005202E102011083CD0E03018C
:102F2E00216F190E226F0C0E236F020E246F040EEA
:102F3E00256F86EC0BF0005206E0020110B303D0B1
:102F4E00020EF16F27D1BD0E0301526F190E536F92
:102F5E003FEC01F0F00E0014016E0150400A04E047
:102F6E00030E0201F16F16D1BD0E0301526F190E41
:102F7E00536F3FEC01F000C0EBF2000E0201EC6F5C
:102F8E000F0EEB17000EEC17EB37EB91EC37EB3720
:102F9E00EB91EC37C30E0301526F190E536F3FECDA
:102FAE0001F0BF0E0014016E0150000AD8A4F2D039
:102FBE00C40E0301526F190E536F3FEC01F0005017
:102FCE00000AD8A4E7D0BD0E0201EB25E96F190E59
:102FDE00EC21EA6FC60E0301526F190E536F3FECD0
:102FEE0001F000C0E8F20050010AD8A494D0E9C262
:102FFE0052F3EAC253F33FEC01F00050080AD8A492
:10300E0089D0010E0201E9250301526F000E020163
:10301E00EA210301536F3FEC01F00050000A7AE100
:10302E00E9C252F3EAC253F30301546BD0EC00F041
:10303E00F7EC0BF014EC0EF0C70E486F190E496F3B
:10304E004A6B4B6BFEEC02F0BD0E0301486F190E7E
:10305E00496FEBC24AF3ECC24BF3D6EC02F0160EFC
:10306E000301526FF1EC00F000C0F2F2170E0301F3
:10307E00526FF1EC00F000C04AF3C70E0301486F27
:10308E00190E496FF2C24BF3FEEC02F0020E020172
:10309E00E9250301486F000E0201EA210301496F81
:1030AE004A6B4B6BFEEC02F0E9C248F3EAC249F3FD
:1030BE000201EB51195D03014A6F0201EC511A59DD
:1030CE0003014B6F0E0E4A5F000E4B5BD6EC02F007
:1030DE00160E0301526FF1EC00F000C0F2F2170E63
:1030EE000301526FF1EC00F000C04AF3020E020130
:1030FE00E9250301486F000E0201EA210301496F21
:10310E00F2C24BF3FEEC02F019C248F31AC249F3B5
:10311E0001EC02F03FD00201E851110A0DE1EDC2BF
:10312E00F4F2EEC2F5F2EBC2F6F2E9C2F7F2EAC23F
:10313E00F8F203EC14F02ED00201E851060A2AE14F
:10314E00100EED250301526F000E0201EE21030158
:10315E00536F3FEC01F000C0F3F20201F26BCAECC8
:10316E0003F000500201F225196F000EF3211A6FC1
:10317E000E0E1927000E1A23EDC2F4F2EEC2F5F26E
:10318E00EBC2F6F2ECC2F7F2E9C2F8F2EAC2F9F2D9
:10319E006CEC10F003D0040E0201F16F1E0E030151
:1031AE00526F400E536F5EEC01F0010E0001DF5DB9
:1031BE00016E000EE059026E0250190802E1015034
:1031CE00AD080AE20C0E0301556FAD0E566F190EC7
:1031DE00576FA8EC00F00FD00C0E0301556F010EC7
:1031EE000001DF5D0301566F000E0001E05903017F
:0C31FE00576FA8EC00F0F1C200F01200C6
:10320A000900F5CFE6FF0006FBE10106F9E112002D
:10321A009E6A210E9D6EB00ECD6ECD80B50ECE6E1D
:10322A00B30ECF6E400EF26EF28E926A0F0E936E4E
:10323A00D00E946E806A816A826AC26A0F0EC16E6B
:10324A00500EAF6EAC84E3EC14F0AC8AAB8EAB8854
:10325A00020E0201E86FE96BEA6B010EEB6F0FECED
:10326A0015F05A0EE86F000EE96F600EEA6F000E55
:10327A00EB6F010EEC6F3DEC15F07DDC010E0301E6
:10328A00326F71EC09F00C0E0301326F71EC09F028
:02329A00120020
:10329C000201E76B1F0E0301526F010E536F5EECC0
:1032AC0001F01F0E0301526F020E536F22EC01F05E
:1032BC00190E0301526FF1EC00F00050000803E20C
:1032CC0028DD00C0E7F21F0E0301526F010E536F91
:1032DC0022EC01F01F0E0301526F020E536F22EC11
:0832EC0001F0E7C200F012003E
:0C32F400E7C2ADFFACB201D0FDD7120064
:1033000002011E5110081EE31EC200F0000E016EE5
:10331000003600900136003600900136A70E0024DA
:10332000E96E020E0120EA6E040E006EE80EE16EF8
:10333000020EE26EEECFE6FF0006FCE11EC2ECF2EA
:1033400082DC78D002011E51110A1BE1010EF46FDC
:10335000010EF56FD50EF66F000EF76F04EC10F04E
:10336000010E0201F46F0A0EF56FCE0EF66F000E1D
:10337000F76F04EC10F0800E0201E86FB3EC14F06C
:1033800059D01E51120A1BE1010EF46F010EF56FA8
:10339000E10EF66F000EF76F04EC10F0010E020163
:1033A000F46F090EF56FF00EF66F000EF76F04EC78
:1033B00010F0400E0201E86FB3EC14F03BD01E5148
:1033C000130A1BE1010EF46F010EF56FEA0EF66FA2
:1033D000000EF76F04EC10F0010E0201F46F060E00
:1033E000F56FC40EF66F000EF76F04EC10F0200EB0
:1033F0000201E86FB3EC14F01DD01E51140A1AE15B
:10340000010EF46F010EF56F6A0EF66F000EF76F86
:1034100004EC10F0010E0201F46F070EF56F710E4F
:10342000F66F000EF76F04EC10F0100E0201E86F5B
:06343000B3EC14F01200E1
:103436000201326B336B316B1D6B1C6B1B6B1E6B8E
:103446000F0E306F2F6B100E2F5DD8B09FD01F0E52
:10345600E16E020EE26E2F51E126D8B0E22AE66A4C
:10346600660EE16E020EE26E2F51E126D8B0E22A18
:10347600E66A560EE16E020EE26E2F51E126D8B0D4
:10348600E22AE66A460EE16E020EE26E2F51E12650
:10349600D8B0E22AE66A760EE16E020EE26E2F518F
:1034A600E126D8B0E22AE66A2FC200F0000E016ECD
:1034B600003600900136003600900136A70E002433
:1034C600E16E020E0120E26EE66A2FC200F0000EE7
:1034D600016E003600900136003600900136A70EC8
:1034E6000026020E0122010E0024E16E000E0120CC
:1034F600E26EE66A2FC200F0000E016E0036009002
:103506000136003600900136A70E0026020E012273
:10351600020E0024E16E000E0120E26EE66A2FC262
:1035260000F0000E016E0036009001360036009065
:103536000136A70E0026020E0122030E0024E16EBC
:10354600000E0120E26EE66A2FC200F0000E016E48
:10355600003600900136860E0024E16E020E012030
:10356600E26EE66A2FC200F0000E016E0036009091
:103576000136860E0026020E0122010E0024E16E9F
:0E358600000E0120E26EE66A2F2B5DD71200C8
:1035940056EC1CF040DE4DDF7FDE02013151010AA2
:1035A400D8A4DAD0316B302B1C51010A02E11C6B18
:1035B400A5DE808A200E02013011E76F99DE809A21
:1035C400020E0201336F3051100A02E1306B808821
:1035D40030C200F0000E016E003600900136860EF7
:1035E4000026020E0122010E0024E96E000E0120C5
:1035F400EA6EEE50010AD8A4AFD0808AA00E301132
:10360400E76F76DE30C200F0000E016E00360090E7
:103614000136860E0024E96E020E0120EA6EEECF1A
:1036240003F003C000F0000E016E00360090013676
:10363400003600900136A70E0024E96E020E012028
:10364400EA6EEECFE7F254DE30C200F0000E016EF7
:10365400003600900136860E0024E96E020E012029
:10366400EA6EEECF03F003C000F0000E016E0036E8
:1036740000900136003600900136A70E0026020E97
:103684000122010E0024E96E000E0120EA6EEECF45
:10369400E7F22EDE30C200F0000E016E003600901C
:1036A4000136860E0024E96E020E0120EA6EEECF8A
:1036B40003F003C000F0000E016E003600900136E6
:1036C400003600900136A70E0026020E0122020EDB
:1036D4000024E96E000E0120EA6EEECFE7F208DE68
:1036E40030C200F0000E016E003600900136860EE6
:1036F4000024E96E020E0120EA6EEECF03F003C04F
:1037040000F0000E016E0036009001360036009085
:103714000136A70E0026020E0122030E0024E96ED4
:10372400000E0120EA6EEECFE7F2E2DD809A30C2AD
:1037340000F0000E016E003600900136860E002661
:10374400020E0122010E0024E16E000E0120E26E41
:10375400E66A020E0201336F80981D51010A12E1DC
:10376400808A7F0EE76FC4DDFDC0E7F2C1DDFEC0D5
:10377400E7F2BEDDFFC0E7F2BBDD809A02011D6BFC
:08378400020E336F09D7FFD7D5
:1038AC0010EE1AF0DE0E006E010E016E8C0EF66E2E
:0E38BC00370EF76E000EF86E05EC19F01200D4
:07378C0050726F673A200044
:0437930020202000D2
:05379700546F746C008A
:10379C005761746572696E67284175746F6D6174D9
:0B37AC0069635F4D6F6465290A0A0025
:0B37B700414C41524D204F4E0A0A00C9
:0737C20049444C450A0A00CE
:0337C900202000BD
:0637CC000014A576193F70
:0437D2000A630C0179
:0637D600474554202F00BE
:0737DC004D616E75616C0088
:0A37E30020202020202020202000BC
:0637ED004F46460A0A00E7
:1037F3005761746572696E67284D616E75616C5FA0
:083803004D6F6465290A0A00FB
:0B380B00414C41524D204F4E0A0A0074
:0738160042617374613A0086
:02381D00200089
:01381F0000A8
:0438200000000000A4
:08382400000108000604000089
:01382C00009B
:06382D00FFFFFFFFFFFF9B
:013833000094
:013834000093
:013835000092
:0A3836002020202020202020200068
:0738400020202020202000C1
:0A3847004F7065726174696F6E00C6
:02385100000075
:093853005761746572696E67002B
:06385C00416C61726D0079
:0838620020202020202020007E
:10386A00485454502F312E3120323030204F4B0AD9
:0F387A00436F6E74656E742D747970653A20001B
:0C388900010106001223344500008000FD
:0C389500746578742F68746D6C0A0A006A
:0638A10063825363350150
:0538A7003703010306D8
:020000040030CA
:0D00010002191EFF8180FF07C007E00740C5
:00000001FF
