:02000000CF2C03
:10000800FF00030E8301D8000A08D9008A0170088E
:10001800A1007108A0000F300805B40083160C1C5D
:100028002F2883120C1C2F280C102408093A031DB2
:100038002228A40133246A2454142328A40A220859
:10004800003C03182928A2032A28A20191240B3076
:100058008F00DC308E0083168C1EB92883128C1E0C
:10006800B9281A08AA003508003A031D6C280F3071
:100078002A05F10071083406031D5028E0302A05CE
:10008800F1007108A03A031D50282A08A50008307D
:10009800B5000430A2006B282A087F3A031D5928AE
:1000A8000330B5000330A2006B280F302A05F10099
:1000B80071083406031D6B28E0302A05F100710829
:1000C800203A031D6B282A08A500B501D414B928C5
:1000D8003508033A031D7A282A08EA00C12456087D
:1000E800BE005708BC000230B500B9283508023AEE
:1000F800031D88282A08EA00C1245608BF005708AB
:10010800C0000130B500B9283508013A031D96280A
:100118002A08EA00C1245608A8005708A900B50112
:100128005415B9283508083A031D9F282A08B10034
:100138000730B500B9283508073A031DA8282A084A
:10014800B0000630B500B9283508063A031DB128B5
:100158002A08BA000530B500B9283508053A031D44
:10016800B9282A08BB00B501551583122108F000EB
:100178002008F10059088A00580E8300FF0E7F0EF0
:0201880009006C
:0C018A0000000000000000000000080061
:10019600243083120313FC00B530FD00FD0BD1287B
:0A01A600FC0BD12800000000080047
:0E01B000533083120313FD00FD0BDC28080002
:1001BE0083120313E91BE5288813E6288817691BA9
:1001CE00EA280813EB280817E91AEF288812F028F6
:1001DE008816691AF4280812F5280816D518F92871
:1001EE000714FA2807100715C5200711E919012968
:1001FE008813022988176919062908130729081771
:10020E00E9180B2988120C2988166918102908126A
:10021E0011290816D51815290714162907100715C0
:10022E00C5200711D51C1D29CB201E29D82008005A
:10023E003129803083120313E6004429C030E600D2
:10024E0044299430E6004429D430E6004429803015
:10025E00E6004429831203136608013A0319202984
:10026E006608023A031925296608033A0319282954
:10027E006608043A03192B292E296703F000660835
:10028E00F0077008E600D5147008E900DF20D510DD
:0A029E006808E900DF20D51408000D
:1002A80083120313D5106208E900DF20D514080073
:1002B80083120313E5016408093C031867290A300F
:1002C800E402E50A5F296208E6006308E7003030C7
:1002D8006507E8001F216208E600630AE70030307E
:0802E8006407E8001F21080073
:0E02F000831203135B088A005A08820008007C
:1002FE00831603139816903083129800831687176F
:10030E00071383128C1E8E291A08F0008829080004
:10031E0083120313E001E1015F08633C03189B297C
:10032E006430DF02E00A93295F08093C0318A32911
:10033E000A30DF02E10A9B295D08E6005E08E7004D
:10034E0030306007E8001F215D08E6005E0AE70016
:10035E0030306107E8001F215D08E60002305E07BD
:0C036E00E70030305F07E8001F210800A6
:10037A0083120313F8010830FC00700DF80D74089D
:10038A00F8020318CA29F8070310F00DFC0BC2295A
:02039A00080059
:10039C00E029803083120313DD00F329C030DD0027
:1003AC00F3299430DD00F329D430DD00F3298030BB
:1003BC00DD00F329831203135D08013A0319CF29D9
:1003CC005D08023A0319D4295D08033A0319D729A9
:1003DC005D08043A0319DA29DD295E03F0005D0893
:1003EC00F0077008DD007008E900DF20D510E0018F
:1003FC0060085F078400000803190C2A60085F0777
:10040C0084000008E2005421E00AFE29D5140800FB
:10041C0083120313E10100306002031D172A3C30E4
:10042C005F02031C232A633061020318232A3C3029
:10043C00DF02031CE003E10A112A00306002031DF5
:10044C00292A3C305F02031C2F2A3B30DF0000308E
:10045C00E0005D08E2005E08E3006108E4005C2156
:10046C005D08E60002305E07E7003A30E8001F2125
:10047C005D08E20003305E07E3005F08E4005C21E6
:02048C00080066
:10048E00831203131F151F1D4D2A4A2A1E08F00042
:02049E00080054
:1004A000831203135C08990083169818582A542A5B
:0204B000080042
:1004B200013083120313DD000130DE004F30DF0014
:1004C200CE210130E6000330E70030304E07E8006D
:1004D2001F210130E6000430E70030305207E80007
:1004E2001F210130E6000530E7003A30E8001F2105
:1004F2000130E6000630E70030305307E8001F21E4
:100502000130E6000730E70030304D07E8001F21D8
:100512000130E6000830E7003A30E8001F210130E0
:10052200E6000930E70030304807E8001F210130BB
:10053200E6000A30E70030304707E8001F210130AB
:10054200E6000B30E7002030E8001F210130DD001B
:100552000C30DE004530DF00CE210130DD000D30F1
:10056200DE004908DF008F21551FBF2A0230E60056
:100572000130E7004130E8001F21C62A0230E600C0
:100582000130E7002F30E8001F21D51ED02A0230AB
:10059200E6000230E7004D30E8001F21D72A023082
:1005A200E6000230E7002F30E8001F210230DD00B4
:1005B2000330DE004A30DF00CE210230E600043094
:1005C200E7000A30F4003108F000BD213030700736
:1005D200E8001F210230E6000530E7000A30F4008F
:1005E2003108F000BD217808F00030307007E800D3
:1005F2001F210230DD000630DE003230DF00CE2166
:100602000230E6000730E7000A30F4003008F0005C
:10061200BD2130307007E8001F210230E6000830AB
:10062200E7000A30F4003008F000BD217808F0003D
:1006320030307007E8001F210230DD000A30DE0092
:100642002B30DF00CE210230DD000C30DE002E0820
:0A065200DF002F08E0000E22080070
:10065C00831203137008F100F0010830FC007108DC
:10066C00F40C03183D2BFC0B362BF101003403105A
:10067C00422BF40C0318F107F10CF00CFC0B3F2B84
:02068C00080064
:10068E008316031307110710081288120813881314
:10069E008312071107108813081388120812CB2033
:1006AE00CB20CB20881608160715C5200711CB20A6
:1006BE000715C5200711CB200715C5200711CB2024
:1006CE0008120715C5200711CB200715C5200711E5
:1006DE00881288170715C5200711CB208813081616
:1006EE000715C520071108120715C5200711CB20C5
:1006FE000715C520071108160715C5200711CB20B1
:10070E0008120715C520071188170817881608162E
:0C071E000715C5200711CB20D5140800DA
:10072A0083120313B401D41254135412D411B50111
:10073A00AA01A501A601A401A201A301A701D4103F
:10074A0054115410C701C801CD01D301D201CE0101
:10075A00A801A901BF01C001BE01BC01BD01C101BF
:10076A00C301C401C201AE01AF01D512D5115512A0
:10077A005511B701B8010515851105125510D41385
:10078A0055130130E900DF200C30E900DF200800B2
:10079A0083120313DC01551CD32BDC17D41FD62B71
:1007AA005C17551FD92BDC16D51EDC2B5C165C0892
:0407BA00F000080043
:1007BE0003308316031385003F308600C030870058
:1007CE000F30880083128501860187010E30831653
:1007DE009F00813083129F00C0308B0083168C01E6
:1007EE003030831290000B308F00DC308E001014EE
:1007FE000C1083160C144030990018157F218316A7
:10080E00981683129817181683168C168B170800D5
:10081E0083120313F2015C08093C03181A2C0A30E8
:10082E00DC02F20A122C7208F000F00D7010F00DBE
:10083E007010F00D7010F00D70105C08F0040800D0
:10084E0078218A110A128000840ADA0A0319DB0A57
:08085E00F003031D272C080024
:100866000930831203134702031C682CC7010530A5
:100876004802031C662CC80109304D02031C642C77
:10088600CD0105305302031C622CD30109305202FC
:100896000318572C02304E02031C562C033052020A
:1008A600031C562C572C602CD2014E08023A031D0D
:1008B6005E2CCE015F2CCE0A612CD20A632CD30AA1
:0E08C600652CCD0A672CC80A692CC70A0800E9
:1008D400831203134808BD00BD0D3D10BD0D3D102E
:1008E400BD0D3D10BD0D3D104708BD075308C100A7
:1008F400C10D4110C10D4110C10D4110C10D411078
:100904004D08C1074E08C300C30D4310C30D431067
:0E091400C30D4310C30D43105208C307080063
:10092200831203132308003C0318982CA303061810
:100932009B2C54132308003A031DAC2C541BAC2CE3
:10094200061CAC2C54170A30A300D51EAA2CD512B3
:10095200AB2CD516D5152708003C0318B12CA703DC
:100962000619B42CD4112708003A031DC02CD4193F
:10097200C02C061DC02CD4150A30A700551608003D
:10098200831203136A08D600D7015608093C0318DC
:0C099200CE2C0A30D602D70AC62C080072
:10099E00CE25DF23952347235922551EE12C5512D0
:1009AE00D512D511AE01AF015514D41355138511BF
:1009BE0005150512D51DF42CD511D51EEE2CB4300F
:1009CE00AE00AF01D417851555140515F42CAE01E4
:1009DE00AF01D413851155140515541C472D541011
:1009EE00D41B152D3D08003A031D152D430837065F
:1009FE00031D152D41083806031D152D4408F00062
:100A0E006430F4002E2342087007AE0071080318FC
:100A1E00013EAF00D417851555140515D41F302D82
:100A2E002F08003C031D1D2D2E08003C0318232DFE
:100A3E000130AE02031CAF0300302F06031D292D1B
:100A4E0000302E06031D302DD413851155140515B7
:100A5E00D51247227008C900D41F442D360849020A
:100A6E00031C3E2D49083902031C3E2D412D05164F
:100A7E005517432D05125513462D051255135922A0
:100A8E003508003C0318502D2208003A031D502D46
:100A9E00B501D41C5E2D871620303404DC005022A4
:100AAE00CD237008DC00502283128712D410541DFF
:100ABE00782D2808C7002908C8003F08CD00400837
:100ACE00D3003E08D2003C08CE00871620303404F6
:100ADE00DC005022CD237008DC005022831254110A
:100AEE008712551D942D3108DC000F247008B700B5
:100AFE003008DC000F247008B8003A08C4003B0828
:100B0E00C200871620303404DC005022CD2370083A
:0E0B1E00DC005022831255118712D42C952D25
:100B9C0022308400323083120313F0009B30DA00D1
:080BAC000530DB0027240800DE
:020B3600003489
:020B3800003487
:020B3A00003485
:020B3C00003483
:020B3E00003481
:020B400000347F
:020B420000347D
:020B440000347B
:020B4600003479
:060B480020345234003499
:040B4E00003400343B
:020B520000346D
:020B540000346B
:040B56003A340034F9
:020B5A00003465
:020B5C00003463
:020B5E0014344D
:020B600000345F
:020B620000345D
:020B64003C341F
:020B6600003459
:020B6800003457
:020B6A00003455
:020B6C00003453
:020B6E00003451
:020B700000344F
:020B720000344D
:020B740000344B
:020B7600003449
:020B7800003447
:020B7A00003445
:040B7C0046340034C7
:020B800000343F
:020B820000343D
:020B840000343B
:060B860053343A34003440
:020B8C00003433
:020B8E00003431
:060B90005434203400344F
:020B9600003429
:020B9800003427
:02400E004A2F37
:00000001FF
