:02000000572D7A
:10000800FF00030E8301D6000A08D5008A01700894
:10001800A2007108A1007C08A00083160C1C2E28E1
:1000280083120C1C2E280C103908093A031D2228AB
:10003800B90142247924A02451162328B90A360884
:10004800003C03182928B6032A28B6010B308F0074
:10005800DC308E0083168C1E572983128C1E57297C
:100068001A08BA008C123708003A031D7E280F3090
:100078003A05F10071083806031D7D283A08BE00CC
:10008800E0303A05F1007108203A031D4E28B70107
:1000980054167D28E0303A05F1007108603A031DD6
:1000A8005A280330B7000330B6007D28E0303A05FF
:1000B800F1007108803A031D66280130B70003304B
:1000C800B6007D28E0303A05F1007108A03A031D1A
:1000D80072280530B7000530B6007D28E0303A05B3
:1000E800F1007108C03A031D7D280130B7000330C4
:1000F800B60057293708053A031D87280430B7008A
:100108003A08C40057293708043A031D9B280330CE
:10011800B70030303A02F1007108BA007108173C94
:10012800031898281730BA003A08C2005729370828
:10013800033A031DD228E0303E05F1007108603A09
:10014800031DBB280230B70030303A02F1007108B5
:10015800BA007108173C0318B3281730BA003A08D8
:10016800E4003D255308A3005208A400D128E0303C
:100178003E05F1007108A03A031DD1280230B700EE
:1001880030303A02F1007108BA0071083B3C03189C
:10019800CF283B30BA003A08C00057293708023A3E
:1001A800031DFE28E0303E05F1007108603A031D8A
:1001B800F2280130B70030303A02F1007108BA0075
:1001C80071083B3C0318EA283B30BA003A08E400BF
:1001D8003D255308A7005208A500FD28E0303E053C
:1001E800F1007108A03A031DFD280130B7003A0854
:1001F800C10057293708013A031D5729E0303E0549
:10020800F1007108603A031D1E29B70130303A0227
:10021800F1007108BA0071083B3C031815293B30FE
:10022800BA003A08E4003D255308AC005208A6007D
:10023800D1155729E0303E05F1007108A03A031D99
:100248002A29B7013A08C500D1145729E0303E05DC
:10025800F1007108C03A031D4C29B7013A08BF00E4
:100268003A08FF3A031D42295415D41A4129D416D5
:100278005410CA01B430C90005154A295411D412C2
:100288005410CA01C9010511511185115416572975
:10029800E0303E05F1007108803A031D5729B70187
:1002A8003A08C400D41583122208F0002108F1008E
:1002B8002008FC0055088A00560E8300FF0E7F0EAA
:0202C80009002B
:1002CA00243083120313FC00B530FD00FD0B6B29AB
:0A02DA00FC0B6B2900000000080077
:0E02E400533083120313FD00FD0B7629080032
:0C02F200000000000000000000000800F8
:1002FE0083120313E31B8529881386298817631B32
:10030E008A2908138B290817E31A8F298812902936
:10031E008816631A9429081295290816D418992953
:10032E0007149A290710071579210711E319A12936
:10033E008813A22988176319A6290813A729081755
:10034E00E318AB298812AC2988166318B029081255
:10035E00B1290816D418B5290714B62907100715A0
:10036E0079210711D41CBD296521BE2972210800EF
:10037E000F30831203136005F1007108E0000A309C
:10038E0071020318CE2930306007F00008004130AA
:0A039E006007F0000A30F0020800CA
:1003A80083120313D4106008E3007F21D4140800DB
:1003B800EE29803083120313E000012AC030E000E8
:1003C800012A9430E000012AD430E000012A80306C
:1003D800E000012A831203136008013A0319DD299A
:1003E8006008023A0319E2296008033A0319E5296B
:1003F8006008043A0319E829EB296103F000600852
:10040800F0077008E000D4147008E3007F21D410CE
:0A0418006208E3007F21D4140800FD
:0E0422008312031358088A005708820008004E
:10043000831603139816903083129800831687173B
:10044000071383128C1E272A1A08F000212A08009D
:10045000831203135B08990083169818302A2C2AFC
:02046000080092
:100462002030831203133804AD00B501541D3A2A1B
:10047200B517D41E3D2A3517511D402AB516541CF6
:06048200432A35160800B4
:1004880083120313DF015D08DE005E08093C0318D0
:10049800512A0A30DE02DF0A492A5B08E0005C08BC
:1004A800E10030305F07E200DC215B08E0005C0A15
:0C04B800E10030305E07E200DC210800AB
:1004C400742A803083120313DB00872AC030DB00D8
:1004D400872A9430DB00872AD430DB00872A8030D7
:1004E400DB00872A831203135B08013A0319632A8A
:1004F4005B08023A0319682A5B08033A03196B2A5A
:100504005B08043A03196E2A712A5C03F0005B0845
:10051400F0077008DB007008E3007F21D410DE01CF
:100524005E085D07840000080319A02A5E085D07C1
:1005340084000008E000D421DE0A922AD4140800C2
:10054400831203135D08E000E00CE013E00CE013F9
:10055400E00CE013E00CE013BF217008E2005B083C
:10056400E0005C08E100DC215D08E000BF217008C8
:0E057400E2005B08E0005C0AE100DC21080008
:10058200831203131F151F1DC72AC42A1E08F00059
:0205920008005F
:10059400831203137008F100F0010830FC007108A5
:1005A400F40C0318D92AFC0BD22AF10100340310ED
:1005B400DE2AF40C0318F107F10CF00CFC0BDB2A17
:0205C40008002D
:1005C60083160313071107100812881208138813DD
:1005D6008312071107108813081388120812652161
:1005E60065216521881608160715792107116521E9
:1005F600071579210711652107157921071165214D
:1006060008120715792107116521071579210711A8
:10061600881288170715792107116521881308168E
:100626000715792107110812071579210711652188
:100636000715792107110816071579210711652174
:100646000812071579210711881708178816081642
:0C0656000715792107116521D414080054
:10066200312287162D08DB00282283123508DB0091
:08067200282283128712080000
:10067A0083120313D901DA010130E0000130E100ED
:10068A0030304E07E200DC210130E0000230E100A8
:10069A0030304C07E200DC210130E0000330E10099
:1006AA003A30E200DC210130E0000430E100303071
:1006BA004D07E200DC210130E0000530E100303076
:1006CA005007E200DC210130E0000630E1003A3058
:1006DA00E200DC210130E0000730E10030304F0752
:1006EA00E200DC210130E0000830E10030304B0745
:1006FA00E200DC210130E0000930E1002030E200B4
:10070A00DC210130E0000A30E1002030E200DC2187
:10071A000130DB000B30DC004708DD0044220130E9
:10072A00E0000D30E1003A30E200DC210130DB006C
:10073A000E30DC004608DD004422D41EAC2B01300A
:10074A00E0001030E1005030E200DC21B32B013030
:10075A00E0001030E1002030E200DC21D41EBA2B88
:10076A004A08D9004908DA00BE2B4808D9003308DC
:10077A00DA000230E0000130E1004430E200DC211E
:10078A000230E0000230E1003A30E200DC210230BF
:10079A00DB000330DC005908DD00A2220230DB0056
:1007AA000530DC005A08DD00A2220230E0000730E2
:1007BA00E1002030E200DC210230E0000830E100F4
:1007CA004630E200DC210230E0000930E1003A3034
:1007DA00E200DC210230DB000A30DC003408DD00F4
:1007EA00A2220230DB000C30DC002E30DD00622257
:1007FA00511D072C0230E0001030E1004130E200C8
:10080A00DC210E2C0230E0001030E1002030E20042
:04081A00DC210800D5
:10081E000330831603138500FF308600C030870037
:10082E000F308800890183128501860187018801B6
:10083E0089010E3083169F00813083129F00C030D5
:10084E008B0083168C013030831290000B308F009A
:10085E00DC308E0010140C1083160C1440309900EE
:10086E0018151822831698168312981718168316C1
:06087E008C168B17080028
:100884000930831203134B02031C772CCB01053070
:100894004F02031C752CCF0109305002031C732C2A
:1008A400D00105304D02031C712CCD0109304C02DE
:1008B4000318662C02304E02031C652C03304C02D4
:1008C400031C652C662C6F2CCC014E08023A031DC8
:1008D4006D2CCE016E2CCE0A702CCC0A722CCD0A53
:0E08E400742CD00A762CCF0A782CCB0A080090
:1008F200831203134F08BD00BD0D3D10BD0D3D1009
:10090200BD0D3D10BD0D3D104B08BD074D08BB0090
:10091200BB0D3B10BB0D3B10BB0D3B10BB0D3B1089
:100922005008BB074E08BC00BC0D3C10BC0D3C106F
:0E093200BC0D3C10BC0D3C104C08BC0708006E
:1009400083120313D11AA62CD113A72CD117061C7E
:10095000AB2CD116AC2CD112D11BC32CD11EC32C65
:10096000541DC32CD41EBC2CD4125410CA01C9016E
:10097000051151118511C32CD41654144808CA000E
:100980003308C9000515C1227008B400D41ED92C43
:100990002A083402031CD12C34082902031CD12C50
:1009A000D52C511585155113D82C5111851151177E
:1009B000DC2C5111851151170F300805B800541D5A
:1009C0001A2DD41A1A2D4E08F0000A30F400CA224B
:1009D0004C087007F20071080318013EF300003064
:1009E0007306031DF52C47087206031D1A2D4D08CA
:1009F000F0000A30F400CA2250087007F2007108B3
:100A00000318013EF30000307306031D092D46084C
:100A10007206031D1A2D4F08003A031D1A2D4B08AC
:100A2000003A031D1A2DD41654104808CA00330882
:100A3000C9000515D41E372D4A08003A031D2A2D7A
:100A40004908003A031D2A2DD412541005115111E2
:100A50008511372D4908003C0318302DC903372D67
:100A6000FF30C9004A08003C0318372DCA03541D43
:0A0A70003B2D05163C2D0512080071
:100A7A00831203136408D300D2015308093C0318F4
:0C0A8A004A2D0A30D302D20A422D080087
:100A960011228A110A128000840AD70A0319D80A79
:080AA600F003031D4B2D0800B5
:100AAE00D6250F24E3220C30E3007F210130E30032
:100ABE007F210F300805B80051163708003C031887
:100ACE006D2D3608003A031D6D2DB701511E712D87
:100ADE0051123D23D11D812DD1112C08CB0026089A
:100AEE00CF002708D0002508CD002308CC0024080D
:100AFE00CE003123511C892D51102B08AA00280835
:100B0E00A9003123D11C972DD1104408C3004208EF
:100B1E00C7004008C6004108C8004508B30031238D
:100B2E00D41D9D2DD4114408C3003123541EA12D74
:080B3E0054123123642DA22D95
:100BAC00233084002E3083120313F000A830D700BA
:080BBC000530D8004B250800AC
:020B500000346F
:020B520000346D
:020B540000346B
:020B5600003469
:020B5800003467
:020B5A00003465
:020B5C003C3427
:020B5E0014344D
:020B600000345F
:020B620000345D
:020B640000345B
:0A0B66002034203420342034003401
:020B70003C3413
:020B720000344D
:020B740000344B
:020B7600003449
:020B7800003447
:020B7A00003445
:020B7C00003443
:020B7E00003441
:020B800000343F
:020B820000343D
:020B840000343B
:020B8600003439
:020B8800003437
:020B8A00003435
:020B8C00003433
:020B8E00003431
:020B900000342F
:020B920000342D
:020B940000342B
:020B9600003429
:020B9800063421
:020B9A00003425
:020B9C00003423
:020B9E00003421
:020BA00000341F
:020BA20000341D
:020BA40000341B
:020BA600003419
:020BA800003417
:020BAA00003415
:02400E004A2F37
:00000001FF
