:02000000FC2BD7
:10000800FF00030E8301DD000A08DC008A01700886
:10001800A1007108A0000F300805D80083160C1C39
:100028002F2883120C1C2F280C105708093A031D7F
:100038002228D70160239723D9142328D70A5208E6
:10004800003C03182928D2032A28D201BE230B30EA
:100058008F00DC308E0083168C1EBB2883128C1E0A
:10006800BB281A08D4005308003A031D6E280F3025
:100078005405F10071085806031D5028E030540556
:10008800F1007108A03A031D50285408D500083023
:10009800D3000430D2006D28E0305405F100710817
:1000A800603A031D5C280330D3000330D2006D286A
:1000B8000F305405F10071085806031D6D28E03013
:1000C8005405F1007108203A031D6D285408D50025
:1000D800D301BB285308033A031D7C285408E800C1
:1000E800EE235A08A3005B08A7000230D300BB2800
:1000F8005308023A031D8A285408E800EE235A08D8
:10010800A4005B08A2000130D300BB285308013AC1
:10011800031D98285408E800EE235A08A5005B0838
:10012800A600D3015914BB285308083A031DA12877
:100138005408B8000730D300BB285308073A031DFA
:10014800AA285408C0000630D300BB285308063A32
:10015800031DB3285408C1000530D300BB28530839
:10016800053A031DBB285408C200D301591683124F
:100178002108F0002008F1005C088A005D0E830069
:06018800FF0E7F0E0900CE
:0C018E000000000000000000000008005D
:0E019A00533083120313FD00FD0BD128080023
:1001A800243083120313FC00B530FD00FD0BDA2860
:0A01B800FC0BDA280000000008002C
:1001C20083120313E71BE7288813E8288817671BA5
:1001D200EC280813ED280817E71AF1288812F228EC
:1001E2008816671AF6280812F7280816D919FB2864
:1001F2000714FC2807100715C7200711E719032960
:100202008813042988176719082908130929081768
:10021200E7180D2988120E29881667181229081264
:1002220013290816D91917290714182907100715B1
:10023200C7200711D91D1F29D4202029CD2008004D
:1002420083120313D9116608E700E120D9150800CB
:0E0252008312031360088A005F088200080010
:100260004229803083120313E2005529C030E20096
:1002700055299430E2005529D430E20055298030C8
:10028000E2005529831203136208013A0319312948
:100290006208023A031936296208033A0319392918
:1002A0006208043A03193C293F296303F0006208FD
:1002B000F0077008E200D9157008E700E120D911B5
:0A02C0006408E700E120D9150800EA
:1002CA007729803083120313E2008A29C030E200C2
:1002DA008A299430E2008A29D430E2008A298030BF
:1002EA00E2008A29831203136208013A0319662974
:1002FA006208023A03196B296208033A03196E2944
:10030A006208043A0319712974296303F000620828
:10031A00F0077008E2007008E700E120D911E50152
:10032A0065086407840000080319A329650864079F
:10033A0084000008E6002121E50A9529D91508005C
:10034A008316031398169030831298008316871722
:10035A00071383128C1EB4291A08F000AE2908006C
:10036A0083120313E101051DBB29E117851DBE296F
:10037A006117051EC129E116591FC42961166108B2
:04038A00F000080077
:10038E00831203131F151F1DCD29CA291E08F00045
:02039E00080055
:1003A00083120313F2016108093C0318DB290A30A8
:1003B000E102F20AD3297208F000F00D7010F00D7E
:1003C0007010F00D7010F00D70106108F00408004E
:1003D000831203136108990083169818F029EC29F9
:0203E000080013
:1003E20029218A110A128000840ADF0A0319E00A0D
:0803F200F003031DF1290800CE
:1003FA00013083120313E2000130E3004C30E400C1
:10040A0065210130E2000330E30030303107E400B7
:10041A0030210130E2000430E30030303007E400DC
:10042A0030210130E2000530E3003A30E4003021A7
:10043A000130E2000630E30030303207E4003021B8
:10044A000130E2000730E30030303407E4003021A5
:10045A000130E2000830E3003A30E4003021013094
:10046A00E2000930E30030303307E4003021013084
:10047A00E2000A30E30030302F07E4003021013077
:10048A00E2000C30E3004F30E40065210130E20065
:10049A000E30E3004B08E40065210230E20001302F
:1004AA00E3004530E4006521051D632A0230E200BD
:1004BA000330E3003130E40030216A2A0230E200DE
:1004CA000330E3003030E40030210230E20005302E
:1004DA00E3004830E4006521851D7B2A0230E200F2
:1004EA000730E3003130E4003021822A0230E20092
:1004FA000730E3003030E40030210230E2000930F6
:10050A00E3003A30E4006521051E932A0230E20036
:10051A000B30E3003130E40030219A2A0230E20045
:10052A000B30E3003030E40030210230E2000D30BD
:10053A00E3003D30E4006521591FAB2A0230E20096
:10054A000F30E3003130E4003021B22A0230E200F9
:0C055A000F30E3003030E40030210800D6
:1005660083120313D8015E11DE11DE105E10D30173
:10057600D401D501D601D701D201AD01AE01591181
:100586005910D910AF01B301B401B201B001B101E4
:10059600A501A601A401A201A301A701AB01AC011B
:1005A600AA01A801A901B501B6015913D913D91297
:0E05B6005912C301C401051585110512080074
:1005C40083160313071107100812881208138813DF
:1005D4008312071107108813081388120812D420F5
:1005E400D420D420881608160715C7200711D42054
:1005F4000715C7200711D4200715C7200711D420D9
:1006040008120715C7200711D4200715C7200711A2
:10061400881288170715C7200711D42088130816D5
:100624000715C720071108120715C7200711D42082
:100634000715C720071108160715C7200711D4206E
:1006440008120715C72007118817081788160816F7
:0C0654000715C7200711D420D915080095
:1006600003308316031385003F308600C0308700B7
:100670000F30880083128501860187010E308316B2
:100680009F00813083129F00C0308B0083168C0145
:100690003030831290000B308F00DC308E0010144D
:1006A0000C1083160C14403099001815A5218316E0
:1006B000981683129817181683168C168B17080035
:1006C0000930831203132F02031C952BAF01053051
:1006D0003302031C932BB30109303402031C912B0A
:1006E000B40105303202031C8F2BB20109303002F5
:1006F0000318842B02303102031C832B0330300299
:10070000031C832B842B8D2BB0013108023A031D6F
:100710008B2BB1018C2BB10A8E2BB00A902BB20A15
:0E072000922BB40A942BB30A962BAF0A080052
:10072E00831203133308AB00AB0D2B10AB0D2B1044
:10073E00AB0D2B10AB0D2B102F08AB073208AC00F6
:10074E00AC0D2C10AC0D2C10AC0D2C10AC0D2C10C7
:10075E003408AC073108AA00AA0D2A10AA0D2A10D7
:0E076E00AA0D2A10AA0D2A103008AA070800AA
:10077C00831203132D08003C0318C52BAD03061878
:10078C00C82BDE112D08003A031DD92BDE19D92BED
:10079C00061CD92BDE150A30AD00591FD72B591367
:1007AC00D82B5917D9172E08003C0318DE2BAE0393
:1007BC000619E12B5E102E08003A031DED2B5E1876
:1007CC00ED2B061DED2B5E140A30AE00D916080079
:1007DC00831203136808DA00DB015A08093C03187A
:0C07EC00FB2B0A30DA02DB0AF32B0800BA
:1007F800F0243023B322E2220C30E700E120FD216F
:10080800D91E0E2CD9128511051505125913D913A5
:10081800B501B601D91F1B2CD913591F192CB43097
:10082800B500B601851505151B2CB501B601D91CF7
:10083800652CD9108519382C2B08003A031D382C43
:100848002A084306031D382C2C084406031D382C9F
:100858002808B500B6013508B600B5012908B50461
:100868000030B60485150515851D512C3608003C49
:10087800031D402C3508003C0318462C0130B502F6
:10088800031CB60300303606031D4C2C0030350619
:10089800031D512C851105155913C7217008CB006C
:1008A800851D632C39084B02031C5F2C4B0837024B
:1008B800031C5F2C612C0516622C0512642C051292
:1008C800FD215308003C03186E2C5208003A031D02
:1008D8006E2CD301591D7C2C871620305804E1005A
:1008E800E821B5217008E100E82183128712591127
:1008F800591C962C2508AF002608B3002408B4001C
:100908002208B2002308B0002708B100871620305B
:100918005804E100E821B5217008E100E8218312BC
:1009280059108712591EB22C3808E100D0217008DE
:10093800C3004008E100D0217008C4004108A800A5
:100948004208A900871620305804E100E821B521A3
:100958007008E100E821831259128712042CB32C85
:1009E00022308400373083120313F000B930DF0067
:0809F0000430E000F1210800D1
:0209720000344F
:0209740000344D
:0209760000344B
:02097800003449
:02097A00003447
:02097C00003445
:02097E00003443
:02098000003441
:0209820000343F
:0209840000343D
:0209860000343B
:02098800003439
:02098A00003437
:02098C00003435
:02098E00003433
:02099000003431
:0209920000342F
:0209940000342D
:0209960000342B
:0409980000340034F3
:02099C003C34E9
:02099E00003423
:0209A00014340D
:0609A20041343A34003438
:0609A8004D343A34003426
:0209AE00003413
:0209B000003411
:0209B20000340F
:0209B40000340D
:0209B60000340B
:0609B80053343A34003410
:0609BE0057343A34003406
:0209C4000034FD
:0609C6005434203400341B
:0609CC0046343A34003409
:0209D2000034EF
:0209D4000034ED
:0209D6000034EB
:0209D8000034E9
:0209DA000034E7
:0209DC000034E5
:0209DE000034E3
:02400E004A2F37
:00000001FF
