:02000000DF2BF4
:10000800FF00030E83018316A0000A088312EF0085
:100018008A017008A1007108A00083160C1C2E2804
:1000280083120C1C2E280C102308093A031D2128C2
:10003800A3010C2343236B152228A30A2208003CA2
:1000480003182828A2032928A2016A230B308F004D
:10005800DC308E0083168C1EA62883128C1EA628E0
:100068001A08A9002A08003A031D59280F30290543
:10007800F10071086A06031D58282908A400E03019
:100088002905F1007108203A031D4D28AA016B14B7
:100098005828E0302905F1007108603A031D5828F6
:1000A8000330AA000330A200A6282A08033A031D39
:1000B80073280230AA0030302902F1007108A90023
:1000C80071083B3C03186A283B30A90029088316AD
:1000D800AB00D0236D08DF006E08E000A6282A08D0
:1000E800023A031D8D280130AA0030302902F100A0
:1000F8007108A90071083B3C031884283B30A9000B
:1001080029088316AB00D0236D08E7006E08E800C5
:10011800A6282A08013A031DA628AA013030290278
:10012800F1007108A9007108173C03189D281730C1
:10013800A90029088316AB00D0236D08E6006E08D5
:10014800E400EB1483122108F0002008F1006F0886
:0E0158008A008316200E8300FF0E7F0E090022
:0C01660000000000000000000000080085
:10017200243083120313FC00B530FD00FD0BBF28B1
:0A018200FC0BBF280000000008007D
:0E018C00533083120313FD00FD0BCA28080038
:10019A0083160313AA1BD42883128813D628831222
:1001AA00881783162A1BDC2883120813DE28831279
:1001BA0008178316AA1AE42883128812E6288312DB
:1001CA00881683162A1AEC2883120812EE2883123C
:1001DA0008166C1AF2280714F32807100715B3201B
:1001EA0007118316AA19FC2883128813FE28831282
:1001FA00881783162A1904298312081306298312D9
:10020A0008178316AA180C29831288120E2983123A
:10021A00881683162A18142983120812162983129B
:10022A0008166C1A1A2907141B2907100715B32078
:0E023A0007116C1E2229B9202329C6200800B6
:10024800831203136C1283162908AA00CD206C169A
:0202580008009C
:10025A003F29803083160313A5005229C030A50018
:10026A0052299430A5005229D430A5005229803051
:10027A00A5005229831603132508013A03192E29CA
:10028A002508023A031933292508033A031936299E
:10029A002508043A031939293C292603F0002508C0
:1002AA00F0077008A5007008AA00CD206C1283160A
:1002BA00A801280827078400000803196D292808BF
:1002CA00270784000008A90024218316A80A5E29AA
:0602DA0083126C160800FF
:1002E000831603139816903083129800831687178D
:1002F000071383128C1E7F291A08F0007929080041
:0E0300008316031323088A00220882000800D7
:10030E009929803083160313A500AC29C030A500AF
:10031E00AC299430A500AC29D430A500AC2980308E
:10032E00A500AC29831603132508013A0319882961
:10033E002508023A03198D292508033A0319902935
:10034E002508043A0319932996292603F000250857
:10035E00F0077008A50083126C1670088316AA00A9
:10036E00CD206C1283162708AA00CD206C1608002B
:10037E0083120313EA01E901EC136C1383162110A7
:10038E00A1112111A1108312EC126B13EB13EB12BE
:10039E00EB116B126C11EC11EC106C10AA01A9018F
:1003AE00A401A501A301A2016B10EB106B11A80112
:1003BE00A601A701E201E301E101DF01E001E7018E
:0E03CE00E801E601E401E501DE01C9010800D5
:1003DC0083160313071107100812881208138813C9
:1003EC008312071107108813081388120812B920FA
:1003FC00B920B920881608160715B3200711B920A3
:10040C000715B3200711B9200715B3200711B92020
:10041C0008120715B3200711B9200715B3200711CF
:10042C00881288170715B3200711B92088130816EE
:10043C000715B320071108120715B3200711B920AF
:10044C000715B320071108160715B3200711B9209B
:10045C0008120715B32007118817081788160816F5
:0C046C000715B3200711B9206C1608001A
:100478008316031324088312990083169818452AB3
:04048800412A0800FD
:10048C0003308316031385003F308600C03087008D
:10049C000F30880083128501860187019F01063089
:1004AC0083169F00C0308B008C013030831290007B
:1004BC000B308F00DC308E0010140C1083160C14D3
:1004CC0040309900181570218316981683129817CE
:0A04DC00181683168C168B17080003
:1004E60080218A110A128000840AA20A0319A30A2B
:0804F600F003031D732A080046
:1004FE00013083160313A5000130A6004A30A70071
:10050E002D2101308316A5000630A600303083124F
:10051E0061078316A700872101308316A5000730D7
:10052E00A6003030831263078316A700872101309F
:10053E008316A5000830A6003A30A70087210130A7
:10054E008316A5000930A600303083126207831689
:10055E00A700872101308316A5000A30A60030308F
:10056E00831227078316A700872101308316A50063
:10057E000B30A6003A30A700872101308316A50064
:10058E000C30A6003030831226078316A700872171
:10059E0001308316A5000D30A600303083122807D7
:1005AE008316A7008721EC1EE52A02308316A500CC
:1005BE000130A6003F30A7002D21F82A8316211DF9
:1005CE00F02A0230A5000130A6002B30A7002D2105
:1005DE00F82A02308316A5000130A6003530A70098
:1005EE002D216B1F032B02308316A5000B30A600A6
:1005FE005030A7002D210B2B02308316A5000B3097
:0A060E00A6005730A7002D210800B8
:100618000930831203132802031C412BA80105305B
:100628002602031C3F2BA60109302702031C3D2B81
:10063800A70105306202031C3B2BE201093063026B
:100648000318302B02306102031C2F2B0330630286
:10065800031C2F2B302B392BE3016108023A031DB1
:10066800372BE101382BE10A3A2BE30A3C2BE20A4B
:0E0678003E2BA70A402BA60A422BA80A080018
:10068600831203132608E500E50D6510E50D6510D8
:10069600E50D6510E50D65102808E5076208DE0022
:1006A600DE0D5E10DE0D5E10DE0D5E10DE0D5E10E0
:1006B6002708DE076108C900C90D4910C90D491090
:0E06C600C90D4910C90D49106308C907080085
:1006D40083120313EB1A702BEB13712BEB17061C0D
:1006E400752BEB16762BEB12EB1F7C2BEB1E7C2B66
:1006F4006C1705166B1A802BEB11812BEB15861CDE
:10070400852B6B16862B6B12EB1D8C2B6B1E8C2B87
:10071400831621108312EC19912B6C11922B6C15FA
:10072400061E962BEC15972BEC116C1D9E2BEC1DC5
:100734009E2B83162115A52B83126C19A52BEC195E
:10074400A52B8316211183126C18AA2BEC10AB2B4A
:10075400EC14861EAF2B6C14B02B6C10EC1CB72B56
:100764006C1CB72B8316A115BE2B8312EC18BE2B61
:100774006C18BE2B8316A1118312081DC92B881D6A
:10078400C62B0330E900C82B0230E900CF2B881DAB
:0C079400CE2B0130E900CF2BE90108005A
:1007A000831603132B088312ED00EE016D08093C3C
:0E07B0000318DE2B0A30ED02EE0AD62B0800ED
:1007BE00E0244622BF21EE210C308316AA00CD2064
:1007CE007F2283162118F02BA119F02B83126B13A5
:1007DE00F22B83126B178316211DF82B8312EC124A
:1007EE00FE2B8312EC1BFD2BEC12FE2BEC16EC1ADF
:1007FE00022C0511032C05156B1B072C8511082CDB
:10080E0085156B1D0C2C6B117F222A08003C0318DA
:10081E00152C2208003A031D152CAA016B1C712CF5
:10082E0010302405F1007108103A031D202CEC172E
:10083E00212CEC138316211D352C83128716EC1FE9
:10084E002C2C10306A04A5002E2C6A08A500250851
:10085E008316A4003C22831287126F2C83126C1B0A
:10086E00492C8716EC1F3F2C30306A04A500422C11
:10087E0020306A04A50025088316A4003C228312AA
:10088E0087126F2CEC1F6F2C871650306A04F00005
:10089E007008A50070088316A4003C228312650818
:1008AE008316A4003C2283125E088316A4003C2209
:1008BE00831249088316A4003C228312690883160A
:1008CE00A4003C22831287126C1305128316211486
:1008DE0083126B10EB1C902C5F08A8006008A6001A
:1008EE006708A7006808E2006608E3006408E100F4
:1008FE008716EC1F862C70306A04A500892C603098
:10090E006A04A50025088316A4003C228312EB106E
:06091E008712E82B912C6A
:1009C00022308400493083120313F00097308316DD
:0A09D000A2000430A3007322080007
:02092E00003493
:02093000003491
:0209320000348F
:0209340000348D
:0209360000348B
:02093800003489
:02093A00003487
:02093C00003485
:02093E00003483
:100940004534723472346F3472342034203420349D
:04095000203400341B
:1009540020342034203420342034203420342034F3
:040964002034003407
:100968004F347034653472346134743469346E349D
:0409780067340034AC
:02097C00003445
:0C097E00543469346D3465343A3400346C
:0E098A004F34703465346E3465346434003498
:0E09980043346C346F3473346534643400348B
:0209A60000341B
:0209A800003419
:0209AA00003417
:0209AC00003415
:0209AE00003413
:0209B000003411
:0209B20000340F
:0209B40000340D
:0209B60000340B
:0209B800003409
:0209BA00003407
:0209BC00003405
:0209BE00003403
:02400E004A2F37
:00000001FF
